{
  "_format": "hh-sol-artifact-1",
  "contractName": "OrderBook",
  "sourceName": "contracts/OrderBook.sol",
  "abi": [
    {
      "anonymous": false,
      "inputs": [
        {
          "indexed": true,
          "internalType": "uint256",
          "name": "id",
          "type": "uint256"
        },
        {
          "indexed": true,
          "internalType": "address",
          "name": "buyer",
          "type": "address"
        },
        {
          "indexed": false,
          "internalType": "uint256",
          "name": "amount",
          "type": "uint256"
        },
        {
          "indexed": false,
          "internalType": "uint256",
          "name": "price",
          "type": "uint256"
        },
        {
          "indexed": false,
          "internalType": "string",
          "name": "ipfsHash",
          "type": "string"
        }
      ],
      "name": "OrderPlaced",
      "type": "event"
    },
    {
      "anonymous": false,
      "inputs": [
        {
          "indexed": true,
          "internalType": "uint256",
          "name": "id",
          "type": "uint256"
        },
        {
          "indexed": false,
          "internalType": "bool",
          "name": "verified",
          "type": "bool"
        }
      ],
      "name": "OrderVerified",
      "type": "event"
    },
    {
      "inputs": [
        {
          "internalType": "bytes32",
          "name": "_messageHash",
          "type": "bytes32"
        }
      ],
      "name": "getEthSignedMessageHash",
      "outputs": [
        {
          "internalType": "bytes32",
          "name": "",
          "type": "bytes32"
        }
      ],
      "stateMutability": "pure",
      "type": "function"
    },
    {
      "inputs": [
        {
          "internalType": "uint256",
          "name": "_id",
          "type": "uint256"
        },
        {
          "internalType": "address",
          "name": "_buyer",
          "type": "address"
        },
        {
          "internalType": "uint256",
          "name": "_amount",
          "type": "uint256"
        },
        {
          "internalType": "uint256",
          "name": "_price",
          "type": "uint256"
        },
        {
          "internalType": "string",
          "name": "_ipfsHash",
          "type": "string"
        }
      ],
      "name": "getMessageHash",
      "outputs": [
        {
          "internalType": "bytes32",
          "name": "",
          "type": "bytes32"
        }
      ],
      "stateMutability": "pure",
      "type": "function"
    },
    {
      "inputs": [
        {
          "internalType": "uint256",
          "name": "",
          "type": "uint256"
        }
      ],
      "name": "orders",
      "outputs": [
        {
          "internalType": "uint256",
          "name": "id",
          "type": "uint256"
        },
        {
          "internalType": "address",
          "name": "buyer",
          "type": "address"
        },
        {
          "internalType": "uint256",
          "name": "amount",
          "type": "uint256"
        },
        {
          "internalType": "uint256",
          "name": "price",
          "type": "uint256"
        },
        {
          "internalType": "string",
          "name": "ipfsHash",
          "type": "string"
        },
        {
          "internalType": "bool",
          "name": "exists",
          "type": "bool"
        }
      ],
      "stateMutability": "view",
      "type": "function"
    },
    {
      "inputs": [
        {
          "internalType": "uint256",
          "name": "_id",
          "type": "uint256"
        },
        {
          "internalType": "address",
          "name": "_buyer",
          "type": "address"
        },
        {
          "internalType": "uint256",
          "name": "_amount",
          "type": "uint256"
        },
        {
          "internalType": "uint256",
          "name": "_price",
          "type": "uint256"
        },
        {
          "internalType": "string",
          "name": "_ipfsHash",
          "type": "string"
        },
        {
          "internalType": "bytes",
          "name": "_signature",
          "type": "bytes"
        }
      ],
      "name": "placeOrder",
      "outputs": [],
      "stateMutability": "nonpayable",
      "type": "function"
    },
    {
      "inputs": [
        {
          "internalType": "bytes32",
          "name": "_messageHash",
          "type": "bytes32"
        },
        {
          "internalType": "bytes",
          "name": "_signature",
          "type": "bytes"
        }
      ],
      "name": "recoverSigner",
      "outputs": [
        {
          "internalType": "address",
          "name": "",
          "type": "address"
        }
      ],
      "stateMutability": "pure",
      "type": "function"
    },
    {
      "inputs": [
        {
          "internalType": "bytes",
          "name": "sig",
          "type": "bytes"
        }
      ],
      "name": "splitSignature",
      "outputs": [
        {
          "internalType": "bytes32",
          "name": "r",
          "type": "bytes32"
        },
        {
          "internalType": "bytes32",
          "name": "s",
          "type": "bytes32"
        },
        {
          "internalType": "uint8",
          "name": "v",
          "type": "uint8"
        }
      ],
      "stateMutability": "pure",
      "type": "function"
    }
  ],
  "bytecode": "0x608060405234801561001057600080fd5b50611896806100206000396000f3fe608060405234801561001057600080fd5b50600436106100625760003560e01c80633b6877e71461006757806397aba7f914610097578063a7bb5803146100c7578063a85c38ef146100f9578063ed1e9ac51461012e578063fa5408011461014a575b600080fd5b610081600480360381019061007c91906110e4565b61017a565b60405161008e919061145d565b60405180910390f35b6100b160048036038101906100ac9190611026565b6101f2565b6040516100be9190611427565b60405180910390f35b6100e160048036038101906100dc919061107a565b6104f0565b6040516100f093929190611478565b60405180910390f35b610113600480360381019061010e91906110bb565b610631565b60405161012596959493929190611536565b60405180910390f35b61014860048036038101906101439190611173565b610722565b005b610164600480360381019061015f9190610ffd565b610dd9565b604051610171919061145d565b60405180910390f35b600061019067bc0e72d5aa67a1d760c01b610e45565b6101a4676aadd7eaf4faa0e660c01b610e45565b6101b86774d246f9cf16eafb60c01b610e45565b85858585856040516020016101d19594939291906113cc565b60405160208183030381529060405280519060200120905095945050505050565b60006102086777e81af5f2ed505b60c01b610e45565b61021c673d5616b4f20a127360c01b610e45565b61023067b08e784a68b3996560c01b610e45565b61024467088ce5644b36b26460c01b610e45565b60418251146040518060400160405280601881526020017f496e76616c6964207369676e6174757265206c656e6774680000000000000000815250906102c0576040517f08c379a00000000000000000000000000000000000000000000000000000000081526004016102b791906114f4565b60405180910390fd5b506102d5679edcdb404c4ff42060c01b610e45565b6102e967c31574ade32c2fb560c01b610e45565b6102fd679e20085bd3e35c0f60c01b610e45565b600061030884610dd9565b905061031e67ef2a1d01b9c7565060c01b610e45565b61033267d07f7f3231c67ebf60c01b610e45565b6000806000610340866104f0565b92509250925061035a6712d9869cc597c15460c01b610e45565b61036e674f3f18bd4524b2b760c01b610e45565b60006001858386866040516000815260200160405260405161039394939291906114af565b6020604051602081039080840390855afa1580156103b5573d6000803e3d6000fd5b5050506020604051035190506103d567a89e09f5781ae31d60c01b610e45565b6103e967ca0185a932095c2260c01b610e45565b6103fd677926f4500a8164a760c01b610e45565b600073ffffffffffffffffffffffffffffffffffffffff168173ffffffffffffffffffffffffffffffffffffffff1614156040518060400160405280601181526020017f496e76616c6964207369676e6174757265000000000000000000000000000000815250906104a5576040517f08c379a000000000000000000000000000000000000000000000000000000000815260040161049c91906114f4565b60405180910390fd5b506104ba67590c7f966950afd160c01b610e45565b6104ce67c1adf0c5fab0240560c01b610e45565b6104e267445c5f67233d177160c01b610e45565b809550505050505092915050565b6000806000610509674a9adbd96c529fd460c01b610e45565b61051d67ddf065094d30bf6e60c01b610e45565b61053167c1b178296cd0713b60c01b610e45565b61054567d978e2c4796452c060c01b610e45565b60418451146040518060400160405280601881526020017f496e76616c6964207369676e6174757265206c656e6774680000000000000000815250906105c1576040517f08c379a00000000000000000000000000000000000000000000000000000000081526004016105b891906114f4565b60405180910390fd5b506105d667f7a32724d255ad2a60c01b610e45565b6105ea6705c4d3c643c5b1c360c01b610e45565b6020840151925060408401519150606084015160001a9050610616676a0a3195ef42940360c01b610e45565b61062a674041d37d8f33033560c01b610e45565b9193909250565b60006020528060005260406000206000915090508060000154908060010160009054906101000a900473ffffffffffffffffffffffffffffffffffffffff169080600201549080600301549080600401805461068c90611735565b80601f01602080910402602001604051908101604052809291908181526020018280546106b890611735565b80156107055780601f106106da57610100808354040283529160200191610705565b820191906000526020600020905b8154815290600101906020018083116106e857829003601f168201915b5050505050908060050160009054906101000a900460ff16905086565b61073667f1e32a8efa92d7cf60c01b610e48565b61074a672e44ad0c0a003f7360c01b610e48565b61075e67ad04fc3a8cb5594860c01b610e48565b61077267cdd507f08a2a2bee60c01b610e48565b60008087815260200190815260200160002060050160009054906101000a900460ff16156040518060400160405280601781526020017f4f7264657220494420616c7265616479206578697374730000000000000000008152509061080d576040517f08c379a000000000000000000000000000000000000000000000000000000000815260040161080491906114f4565b60405180910390fd5b5061082267fd6c7f545415ebc060c01b610e48565b610836677a464904c896452860c01b610e48565b61084a67f20dd3a51066381f60c01b610e48565b61085e677d9c77482fc3d51e60c01b610e48565b600084116040518060400160405280602081526020017f416d6f756e74206d7573742062652067726561746572207468616e207a65726f815250906108d9576040517f08c379a00000000000000000000000000000000000000000000000000000000081526004016108d091906114f4565b60405180910390fd5b506108ee67eca81a09ebf8d42160c01b610e48565b610902672c0833d4c76c24f760c01b610e48565b6109166768682f1dad78925260c01b610e48565b61092a67dbc81c595b1780f660c01b610e48565b600083116040518060400160405280601f81526020017f5072696365206d7573742062652067726561746572207468616e207a65726f00815250906109a5576040517f08c379a000000000000000000000000000000000000000000000000000000000815260040161099c91906114f4565b60405180910390fd5b506109ba6712ae7fb4e118303460c01b610e48565b6109ce67f2121135761f606060c01b610e48565b6109e267d9155468f2745ce260c01b610e48565b60008290506109fb67afbec24596df2a8260c01b610e48565b610a0f6772f884d1ddbf029660c01b610e48565b610a2367c715ea265b7e3add60c01b610e48565b602e8151146040518060400160405280601881526020017f496e76616c696420495046532068617368206c656e677468000000000000000081525090610a9f576040517f08c379a0000000000000000000000000000000000000000000000000000000008152600401610a9691906114f4565b60405180910390fd5b50610ab4675a4ca1f2767ffc1a60c01b610e48565b610ac86722669b47ad5e3e2c60c01b610e48565b610adc67d0d3698b49e4cce460c01b610e48565b6000610aeb888888888861017a565b9050610b0167babfd5bc696bd7fb60c01b610e48565b610b1567e2ef5794623c746160c01b610e48565b6000610b2182856101f2565b9050610b3767fc6772bc657b8c4c60c01b610e48565b610b4b67880aaa336ee0fa9d60c01b610e48565b610b5f6746661592ebb273b260c01b610e48565b8773ffffffffffffffffffffffffffffffffffffffff168173ffffffffffffffffffffffffffffffffffffffff1614610bcd576040517f08c379a0000000000000000000000000000000000000000000000000000000008152600401610bc490611516565b60405180910390fd5b610be16731949fa012b7a90460c01b610e48565b610bf56782baf8fe0804ab2060c01b610e48565b6040518060c001604052808a81526020018973ffffffffffffffffffffffffffffffffffffffff168152602001888152602001878152602001868152602001600115158152506000808b81526020019081526020016000206000820151816000015560208201518160010160006101000a81548173ffffffffffffffffffffffffffffffffffffffff021916908373ffffffffffffffffffffffffffffffffffffffff16021790555060408201518160020155606082015181600301556080820151816004019080519060200190610cce929190610e4b565b5060a08201518160050160006101000a81548160ff021916908315150217905550905050610d0667f8bd3216bd351c8460c01b610e48565b610d1a67bbc3cad465118ce260c01b610e48565b8773ffffffffffffffffffffffffffffffffffffffff16897f684f2057bb3a8509f1f7339a074b4a45b6ec52d18ff42336bb628d15d256f308898989604051610d659392919061159e565b60405180910390a3610d8167139a5bb1bf81342f60c01b610e48565b610d9567fb573c4fa30038fc60c01b610e48565b887ff1af884d94e28fcbc40f458caa0f4480ed2be0ea44cd8f4a33439947b455b0636001604051610dc69190611442565b60405180910390a2505050505050505050565b6000610def670cc508dc319380d060c01b610e45565b610e0367cc0dd83dd45bbc0160c01b610e45565b610e1767aa508dc83adf1ffd60c01b610e45565b81604051602001610e2891906113a6565b604051602081830303815290604052805190602001209050919050565b50565b50565b828054610e5790611735565b90600052602060002090601f016020900481019282610e795760008555610ec0565b82601f10610e9257805160ff1916838001178555610ec0565b82800160010185558215610ec0579182015b82811115610ebf578251825591602001919060010190610ea4565b5b509050610ecd9190610ed1565b5090565b5b80821115610eea576000816000905550600101610ed2565b5090565b6000610f01610efc8461160d565b6115dc565b905082815260208101848484011115610f1957600080fd5b610f248482856116f3565b509392505050565b6000610f3f610f3a8461163d565b6115dc565b905082815260208101848484011115610f5757600080fd5b610f628482856116f3565b509392505050565b600081359050610f798161181b565b92915050565b600081359050610f8e81611832565b92915050565b600082601f830112610fa557600080fd5b8135610fb5848260208601610eee565b91505092915050565b600082601f830112610fcf57600080fd5b8135610fdf848260208601610f2c565b91505092915050565b600081359050610ff781611849565b92915050565b60006020828403121561100f57600080fd5b600061101d84828501610f7f565b91505092915050565b6000806040838503121561103957600080fd5b600061104785828601610f7f565b925050602083013567ffffffffffffffff81111561106457600080fd5b61107085828601610f94565b9150509250929050565b60006020828403121561108c57600080fd5b600082013567ffffffffffffffff8111156110a657600080fd5b6110b284828501610f94565b91505092915050565b6000602082840312156110cd57600080fd5b60006110db84828501610fe8565b91505092915050565b600080600080600060a086880312156110fc57600080fd5b600061110a88828901610fe8565b955050602061111b88828901610f6a565b945050604061112c88828901610fe8565b935050606061113d88828901610fe8565b925050608086013567ffffffffffffffff81111561115a57600080fd5b61116688828901610fbe565b9150509295509295909350565b60008060008060008060c0878903121561118c57600080fd5b600061119a89828a01610fe8565b96505060206111ab89828a01610f6a565b95505060406111bc89828a01610fe8565b94505060606111cd89828a01610fe8565b935050608087013567ffffffffffffffff8111156111ea57600080fd5b6111f689828a01610fbe565b92505060a087013567ffffffffffffffff81111561121357600080fd5b61121f89828a01610f94565b9150509295509295509295565b61123581611694565b82525050565b61124c61124782611694565b611767565b82525050565b61125b816116a6565b82525050565b61126a816116b2565b82525050565b61128161127c826116b2565b611779565b82525050565b60006112928261166d565b61129c8185611678565b93506112ac818560208601611702565b6112b5816117fd565b840191505092915050565b60006112cb8261166d565b6112d58185611689565b93506112e5818560208601611702565b80840191505092915050565b60006112fe601c83611689565b91507f19457468657265756d205369676e6564204d6573736167653a0a3332000000006000830152601c82019050919050565b600061133e601183611678565b91507f496e76616c6964207369676e61747572650000000000000000000000000000006000830152602082019050919050565b61137a816116dc565b82525050565b61139161138c826116dc565b611795565b82525050565b6113a0816116e6565b82525050565b60006113b1826112f1565b91506113bd8284611270565b60208201915081905092915050565b60006113d88288611380565b6020820191506113e8828761123b565b6014820191506113f88286611380565b6020820191506114088285611380565b60208201915061141882846112c0565b91508190509695505050505050565b600060208201905061143c600083018461122c565b92915050565b60006020820190506114576000830184611252565b92915050565b60006020820190506114726000830184611261565b92915050565b600060608201905061148d6000830186611261565b61149a6020830185611261565b6114a76040830184611397565b949350505050565b60006080820190506114c46000830187611261565b6114d16020830186611397565b6114de6040830185611261565b6114eb6060830184611261565b95945050505050565b6000602082019050818103600083015261150e8184611287565b905092915050565b6000602082019050818103600083015261152f81611331565b9050919050565b600060c08201905061154b6000830189611371565b611558602083018861122c565b6115656040830187611371565b6115726060830186611371565b81810360808301526115848185611287565b905061159360a0830184611252565b979650505050505050565b60006060820190506115b36000830186611371565b6115c06020830185611371565b81810360408301526115d28184611287565b9050949350505050565b6000604051905081810181811067ffffffffffffffff82111715611603576116026117ce565b5b8060405250919050565b600067ffffffffffffffff821115611628576116276117ce565b5b601f19601f8301169050602081019050919050565b600067ffffffffffffffff821115611658576116576117ce565b5b601f19601f8301169050602081019050919050565b600081519050919050565b600082825260208201905092915050565b600081905092915050565b600061169f826116bc565b9050919050565b60008115159050919050565b6000819050919050565b600073ffffffffffffffffffffffffffffffffffffffff82169050919050565b6000819050919050565b600060ff82169050919050565b82818337600083830152505050565b60005b83811015611720578082015181840152602081019050611705565b8381111561172f576000848401525b50505050565b6000600282049050600182168061174d57607f821691505b602082108114156117615761176061179f565b5b50919050565b600061177282611783565b9050919050565b6000819050919050565b600061178e8261180e565b9050919050565b6000819050919050565b7f4e487b7100000000000000000000000000000000000000000000000000000000600052602260045260246000fd5b7f4e487b7100000000000000000000000000000000000000000000000000000000600052604160045260246000fd5b6000601f19601f8301169050919050565b60008160601b9050919050565b61182481611694565b811461182f57600080fd5b50565b61183b816116b2565b811461184657600080fd5b50565b611852816116dc565b811461185d57600080fd5b5056fea264697066735822122037951badffc364d05ab4be3d5343d7fc7981698d78f22bd017475bb1c5b7e9df64736f6c63430008000033",
  "linkReferences": {},
  "deployedLinkReferences": {}
}