{
  "_format": "hh-sol-artifact-1",
  "contractName": "OrderBook",
  "sourceName": "contracts/OrderBook.sol",
  "abi": [
    {
      "anonymous": false,
      "inputs": [
        {
          "indexed": true,
          "internalType": "uint256",
          "name": "id",
          "type": "uint256"
        },
        {
          "indexed": true,
          "internalType": "address",
          "name": "buyer",
          "type": "address"
        },
        {
          "indexed": false,
          "internalType": "uint256",
          "name": "amount",
          "type": "uint256"
        },
        {
          "indexed": false,
          "internalType": "uint256",
          "name": "price",
          "type": "uint256"
        },
        {
          "indexed": false,
          "internalType": "string",
          "name": "ipfsHash",
          "type": "string"
        }
      ],
      "name": "OrderPlaced",
      "type": "event"
    },
    {
      "anonymous": false,
      "inputs": [
        {
          "indexed": true,
          "internalType": "uint256",
          "name": "id",
          "type": "uint256"
        },
        {
          "indexed": false,
          "internalType": "bool",
          "name": "verified",
          "type": "bool"
        }
      ],
      "name": "OrderVerified",
      "type": "event"
    },
    {
      "inputs": [
        {
          "internalType": "bytes32",
          "name": "_messageHash",
          "type": "bytes32"
        }
      ],
      "name": "getEthSignedMessageHash",
      "outputs": [
        {
          "internalType": "bytes32",
          "name": "",
          "type": "bytes32"
        }
      ],
      "stateMutability": "pure",
      "type": "function"
    },
    {
      "inputs": [
        {
          "internalType": "uint256",
          "name": "_id",
          "type": "uint256"
        },
        {
          "internalType": "address",
          "name": "_buyer",
          "type": "address"
        },
        {
          "internalType": "uint256",
          "name": "_amount",
          "type": "uint256"
        },
        {
          "internalType": "uint256",
          "name": "_price",
          "type": "uint256"
        },
        {
          "internalType": "string",
          "name": "_ipfsHash",
          "type": "string"
        }
      ],
      "name": "getMessageHash",
      "outputs": [
        {
          "internalType": "bytes32",
          "name": "",
          "type": "bytes32"
        }
      ],
      "stateMutability": "pure",
      "type": "function"
    },
    {
      "inputs": [
        {
          "internalType": "uint256",
          "name": "",
          "type": "uint256"
        }
      ],
      "name": "orders",
      "outputs": [
        {
          "internalType": "uint256",
          "name": "id",
          "type": "uint256"
        },
        {
          "internalType": "address",
          "name": "buyer",
          "type": "address"
        },
        {
          "internalType": "uint256",
          "name": "amount",
          "type": "uint256"
        },
        {
          "internalType": "uint256",
          "name": "price",
          "type": "uint256"
        },
        {
          "internalType": "string",
          "name": "ipfsHash",
          "type": "string"
        },
        {
          "internalType": "bool",
          "name": "exists",
          "type": "bool"
        }
      ],
      "stateMutability": "view",
      "type": "function"
    },
    {
      "inputs": [
        {
          "internalType": "uint256",
          "name": "_id",
          "type": "uint256"
        },
        {
          "internalType": "address",
          "name": "_buyer",
          "type": "address"
        },
        {
          "internalType": "uint256",
          "name": "_amount",
          "type": "uint256"
        },
        {
          "internalType": "uint256",
          "name": "_price",
          "type": "uint256"
        },
        {
          "internalType": "string",
          "name": "_ipfsHash",
          "type": "string"
        },
        {
          "internalType": "bytes",
          "name": "_signature",
          "type": "bytes"
        }
      ],
      "name": "placeOrder",
      "outputs": [],
      "stateMutability": "nonpayable",
      "type": "function"
    },
    {
      "inputs": [
        {
          "internalType": "bytes32",
          "name": "_messageHash",
          "type": "bytes32"
        },
        {
          "internalType": "bytes",
          "name": "_signature",
          "type": "bytes"
        }
      ],
      "name": "recoverSigner",
      "outputs": [
        {
          "internalType": "address",
          "name": "",
          "type": "address"
        }
      ],
      "stateMutability": "pure",
      "type": "function"
    },
    {
      "inputs": [
        {
          "internalType": "bytes",
          "name": "sig",
          "type": "bytes"
        }
      ],
      "name": "splitSignature",
      "outputs": [
        {
          "internalType": "bytes32",
          "name": "r",
          "type": "bytes32"
        },
        {
          "internalType": "bytes32",
          "name": "s",
          "type": "bytes32"
        },
        {
          "internalType": "uint8",
          "name": "v",
          "type": "uint8"
        }
      ],
      "stateMutability": "pure",
      "type": "function"
    }
  ],
  "bytecode": "0x608060405234801561001057600080fd5b50610c4c806100206000396000f3fe608060405234801561001057600080fd5b50600436106100625760003560e01c80633b6877e71461006757806397aba7f914610090578063a7bb5803146100b0578063a85c38ef146100d2578063ed1e9ac5146100f7578063fa5408011461010c575b600080fd5b61007a6100753660046108e1565b61011f565b6040516100879190610aa0565b60405180910390f35b6100a361009e366004610861565b61015b565b6040516100879190610a81565b6100c36100be3660046108a6565b61028b565b60405161008793929190610aa9565b6100e56100e0366004610849565b610301565b60405161008796959493929190610b25565b61010a61010536600461094a565b6103cd565b005b61007a61011a366004610849565b6106e7565b6000858585858560405160200161013a959493929190610a34565b60405160208183030381529060405280519060200120905095945050505050565b6000815160411460405180604001604052806018815260200177092dcecc2d8d2c840e6d2cedcc2e8eae4ca40d8cadccee8d60431b815250906101ba5760405162461bcd60e51b81526004016101b19190610ae0565b60405180910390fd5b5060006101c6846106e7565b905060008060006101d68661028b565b9250925092506000600185838686604051600081526020016040526040516102019493929190610ac2565b6020604051602081039080840390855afa158015610223573d6000803e3d6000fd5b505060408051601f198101518183019092526011815270496e76616c6964207369676e617475726560781b602082015290925090506001600160a01b03821661027f5760405162461bcd60e51b81526004016101b19190610ae0565b50979650505050505050565b6000806000835160411460405180604001604052806018815260200177092dcecc2d8d2c840e6d2cedcc2e8eae4ca40d8cadccee8d60431b815250906102e45760405162461bcd60e51b81526004016101b19190610ae0565b5050505060208101516040820151606083015160001a9193909250565b6000602081905290815260409020805460018201546002830154600384015460048501805494956001600160a01b03909416949293919261034190610bc5565b80601f016020809104026020016040519081016040528092919081815260200182805461036d90610bc5565b80156103ba5780601f1061038f576101008083540402835291602001916103ba565b820191906000526020600020905b81548152906001019060200180831161039d57829003601f168201915b5050506005909301549192505060ff1686565b60008681526020818152604091829020600501548251808401909352601783527f4f7264657220494420616c7265616479206578697374730000000000000000009183019190915260ff16156104365760405162461bcd60e51b81526004016101b19190610ae0565b50600084116040518060400160405280602081526020017f416d6f756e74206d7573742062652067726561746572207468616e207a65726f8152509061048f5760405162461bcd60e51b81526004016101b19190610ae0565b5060408051808201909152601f81527f5072696365206d7573742062652067726561746572207468616e207a65726f006020820152836104e25760405162461bcd60e51b81526004016101b19190610ae0565b50815160408051808201909152601881527f496e76616c696420495046532068617368206c656e677468000000000000000060208201528391602e1461053b5760405162461bcd60e51b81526004016101b19190610ae0565b50600061054b888888888861011f565b90506000610559828561015b565b9050876001600160a01b0316816001600160a01b03161461058c5760405162461bcd60e51b81526004016101b190610afa565b6040518060c001604052808a8152602001896001600160a01b03168152602001888152602001878152602001868152602001600115158152506000808b81526020019081526020016000206000820151816000015560208201518160010160006101000a8154816001600160a01b0302191690836001600160a01b031602179055506040820151816002015560608201518160030155608082015181600401908051906020019061063e929190610718565b5060a091909101516005909101805460ff19169115159190911790556040516001600160a01b038916908a907f684f2057bb3a8509f1f7339a074b4a45b6ec52d18ff42336bb628d15d256f3089061069b908b908b908b90610b6d565b60405180910390a3887ff1af884d94e28fcbc40f458caa0f4480ed2be0ea44cd8f4a33439947b455b06360016040516106d49190610a95565b60405180910390a2505050505050505050565b6000816040516020016106fa9190610a03565b6040516020818303038152906040528051906020012090505b919050565b82805461072490610bc5565b90600052602060002090601f016020900481019282610746576000855561078c565b82601f1061075f57805160ff191683800117855561078c565b8280016001018555821561078c579182015b8281111561078c578251825591602001919060010190610771565b5061079892915061079c565b5090565b5b80821115610798576000815560010161079d565b80356001600160a01b038116811461071357600080fd5b600082601f8301126107d8578081fd5b813567ffffffffffffffff808211156107f3576107f3610c00565b604051601f8301601f19168101602001828111828210171561081757610817610c00565b60405282815284830160200186101561082e578384fd5b82602086016020830137918201602001929092529392505050565b60006020828403121561085a578081fd5b5035919050565b60008060408385031215610873578081fd5b82359150602083013567ffffffffffffffff811115610890578182fd5b61089c858286016107c8565b9150509250929050565b6000602082840312156108b7578081fd5b813567ffffffffffffffff8111156108cd578182fd5b6108d9848285016107c8565b949350505050565b600080600080600060a086880312156108f8578081fd5b85359450610908602087016107b1565b93506040860135925060608601359150608086013567ffffffffffffffff811115610931578182fd5b61093d888289016107c8565b9150509295509295909350565b60008060008060008060c08789031215610962578081fd5b86359550610972602088016107b1565b94506040870135935060608701359250608087013567ffffffffffffffff8082111561099c578283fd5b6109a88a838b016107c8565b935060a08901359150808211156109bd578283fd5b506109ca89828a016107c8565b9150509295509295509295565b600081518084526109ef816020860160208601610b95565b601f01601f19169290920160200192915050565b7f19457468657265756d205369676e6564204d6573736167653a0a3332000000008152601c810191909152603c0190565b60008682526bffffffffffffffffffffffff198660601b1660208301528460348301528360548301528251610a70816074850160208701610b95565b919091016074019695505050505050565b6001600160a01b0391909116815260200190565b901515815260200190565b90815260200190565b928352602083019190915260ff16604082015260600190565b93845260ff9290921660208401526040830152606082015260800190565b600060208252610af360208301846109d7565b9392505050565b602080825260119082015270496e76616c6964207369676e617475726560781b604082015260600190565b600087825260018060a01b038716602083015285604083015284606083015260c06080830152610b5860c08301856109d7565b905082151560a0830152979650505050505050565b600084825283602083015260606040830152610b8c60608301846109d7565b95945050505050565b60005b83811015610bb0578181015183820152602001610b98565b83811115610bbf576000848401525b50505050565b600281046001821680610bd957607f821691505b60208210811415610bfa57634e487b7160e01b600052602260045260246000fd5b50919050565b634e487b7160e01b600052604160045260246000fdfea2646970667358221220951e7cc1450721116eaf4af264a8f8193e8f9b86f2edccca415f187a896e682264736f6c63430008000033",
  "linkReferences": {},
  "deployedLinkReferences": {}
}