{
  "_format": "hh-sol-artifact-1",
  "contractName": "SignatureVerifier",
  "sourceName": "contracts/SignatureVerifier.sol",
  "abi": [
    {
      "inputs": [
        {
          "internalType": "bytes32",
          "name": "_messageHash",
          "type": "bytes32"
        }
      ],
      "name": "getEthSignedMessageHash",
      "outputs": [
        {
          "internalType": "bytes32",
          "name": "",
          "type": "bytes32"
        }
      ],
      "stateMutability": "pure",
      "type": "function"
    },
    {
      "inputs": [
        {
          "internalType": "uint256",
          "name": "_id",
          "type": "uint256"
        },
        {
          "internalType": "address",
          "name": "_buyer",
          "type": "address"
        },
        {
          "internalType": "uint256",
          "name": "_amount",
          "type": "uint256"
        },
        {
          "internalType": "uint256",
          "name": "_price",
          "type": "uint256"
        },
        {
          "internalType": "string",
          "name": "_ipfsHash",
          "type": "string"
        }
      ],
      "name": "getMessageHash",
      "outputs": [
        {
          "internalType": "bytes32",
          "name": "",
          "type": "bytes32"
        }
      ],
      "stateMutability": "pure",
      "type": "function"
    },
    {
      "inputs": [
        {
          "internalType": "bytes32",
          "name": "_messageHash",
          "type": "bytes32"
        },
        {
          "internalType": "bytes",
          "name": "_signature",
          "type": "bytes"
        }
      ],
      "name": "recoverSigner",
      "outputs": [
        {
          "internalType": "address",
          "name": "",
          "type": "address"
        }
      ],
      "stateMutability": "pure",
      "type": "function"
    },
    {
      "inputs": [
        {
          "internalType": "bytes",
          "name": "sig",
          "type": "bytes"
        }
      ],
      "name": "splitSignature",
      "outputs": [
        {
          "internalType": "bytes32",
          "name": "r",
          "type": "bytes32"
        },
        {
          "internalType": "bytes32",
          "name": "s",
          "type": "bytes32"
        },
        {
          "internalType": "uint8",
          "name": "v",
          "type": "uint8"
        }
      ],
      "stateMutability": "pure",
      "type": "function"
    }
  ],
  "bytecode": "0x608060405234801561001057600080fd5b50610d53806100206000396000f3fe608060405234801561001057600080fd5b506004361061004c5760003560e01c80633b6877e71461005157806397aba7f914610081578063a7bb5803146100b1578063fa540801146100e3575b600080fd5b61006b60048036038101906100669190610806565b610113565b6040516100789190610a4d565b60405180910390f35b61009b60048036038101906100969190610771565b61018b565b6040516100a89190610a32565b60405180910390f35b6100cb60048036038101906100c691906107c5565b610489565b6040516100da93929190610a68565b60405180910390f35b6100fd60048036038101906100f89190610748565b6105ca565b60405161010a9190610a4d565b60405180910390f35b600061012967bc0e72d5aa67a1d760c01b610636565b61013d676aadd7eaf4faa0e660c01b610636565b6101516774d246f9cf16eafb60c01b610636565b858585858560405160200161016a9594939291906109d7565b60405160208183030381529060405280519060200120905095945050505050565b60006101a16777e81af5f2ed505b60c01b610636565b6101b5673d5616b4f20a127360c01b610636565b6101c967b08e784a68b3996560c01b610636565b6101dd67088ce5644b36b26460c01b610636565b60418251146040518060400160405280601881526020017f496e76616c6964207369676e6174757265206c656e677468000000000000000081525090610259576040517f08c379a00000000000000000000000000000000000000000000000000000000081526004016102509190610ae4565b60405180910390fd5b5061026e679edcdb404c4ff42060c01b610636565b61028267c31574ade32c2fb560c01b610636565b610296679e20085bd3e35c0f60c01b610636565b60006102a1846105ca565b90506102b767ef2a1d01b9c7565060c01b610636565b6102cb67d07f7f3231c67ebf60c01b610636565b60008060006102d986610489565b9250925092506102f36712d9869cc597c15460c01b610636565b610307674f3f18bd4524b2b760c01b610636565b60006001858386866040516000815260200160405260405161032c9493929190610a9f565b6020604051602081039080840390855afa15801561034e573d6000803e3d6000fd5b50505060206040510351905061036e67a89e09f5781ae31d60c01b610636565b61038267ca0185a932095c2260c01b610636565b610396677926f4500a8164a760c01b610636565b600073ffffffffffffffffffffffffffffffffffffffff168173ffffffffffffffffffffffffffffffffffffffff1614156040518060400160405280601181526020017f496e76616c6964207369676e61747572650000000000000000000000000000008152509061043e576040517f08c379a00000000000000000000000000000000000000000000000000000000081526004016104359190610ae4565b60405180910390fd5b5061045367590c7f966950afd160c01b610636565b61046767c1adf0c5fab0240560c01b610636565b61047b67445c5f67233d177160c01b610636565b809550505050505092915050565b60008060006104a2674a9adbd96c529fd460c01b610636565b6104b667ddf065094d30bf6e60c01b610636565b6104ca67c1b178296cd0713b60c01b610636565b6104de67d978e2c4796452c060c01b610636565b60418451146040518060400160405280601881526020017f496e76616c6964207369676e6174757265206c656e67746800000000000000008152509061055a576040517f08c379a00000000000000000000000000000000000000000000000000000000081526004016105519190610ae4565b60405180910390fd5b5061056f67f7a32724d255ad2a60c01b610636565b6105836705c4d3c643c5b1c360c01b610636565b6020840151925060408401519150606084015160001a90506105af676a0a3195ef42940360c01b610636565b6105c3674041d37d8f33033560c01b610636565b9193909250565b60006105e0670cc508dc319380d060c01b610636565b6105f467cc0dd83dd45bbc0160c01b610636565b61060867aa508dc83adf1ffd60c01b610636565b8160405160200161061991906109b1565b604051602081830303815290604052805190602001209050919050565b50565b600061064c61064784610b37565b610b06565b90508281526020810184848401111561066457600080fd5b61066f848285610c11565b509392505050565b600061068a61068584610b67565b610b06565b9050828152602081018484840111156106a257600080fd5b6106ad848285610c11565b509392505050565b6000813590506106c481610cd8565b92915050565b6000813590506106d981610cef565b92915050565b600082601f8301126106f057600080fd5b8135610700848260208601610639565b91505092915050565b600082601f83011261071a57600080fd5b813561072a848260208601610677565b91505092915050565b60008135905061074281610d06565b92915050565b60006020828403121561075a57600080fd5b6000610768848285016106ca565b91505092915050565b6000806040838503121561078457600080fd5b6000610792858286016106ca565b925050602083013567ffffffffffffffff8111156107af57600080fd5b6107bb858286016106df565b9150509250929050565b6000602082840312156107d757600080fd5b600082013567ffffffffffffffff8111156107f157600080fd5b6107fd848285016106df565b91505092915050565b600080600080600060a0868803121561081e57600080fd5b600061082c88828901610733565b955050602061083d888289016106b5565b945050604061084e88828901610733565b935050606061085f88828901610733565b925050608086013567ffffffffffffffff81111561087c57600080fd5b61088888828901610709565b9150509295509295909350565b61089e81610bbe565b82525050565b6108b56108b082610bbe565b610c53565b82525050565b6108c481610bd0565b82525050565b6108db6108d682610bd0565b610c65565b82525050565b60006108ec82610b97565b6108f68185610ba2565b9350610906818560208601610c20565b61090f81610cba565b840191505092915050565b600061092582610b97565b61092f8185610bb3565b935061093f818560208601610c20565b80840191505092915050565b6000610958601c83610bb3565b91507f19457468657265756d205369676e6564204d6573736167653a0a3332000000006000830152601c82019050919050565b61099c61099782610bfa565b610c81565b82525050565b6109ab81610c04565b82525050565b60006109bc8261094b565b91506109c882846108ca565b60208201915081905092915050565b60006109e3828861098b565b6020820191506109f382876108a4565b601482019150610a03828661098b565b602082019150610a13828561098b565b602082019150610a23828461091a565b91508190509695505050505050565b6000602082019050610a476000830184610895565b92915050565b6000602082019050610a6260008301846108bb565b92915050565b6000606082019050610a7d60008301866108bb565b610a8a60208301856108bb565b610a9760408301846109a2565b949350505050565b6000608082019050610ab460008301876108bb565b610ac160208301866109a2565b610ace60408301856108bb565b610adb60608301846108bb565b95945050505050565b60006020820190508181036000830152610afe81846108e1565b905092915050565b6000604051905081810181811067ffffffffffffffff82111715610b2d57610b2c610c8b565b5b8060405250919050565b600067ffffffffffffffff821115610b5257610b51610c8b565b5b601f19601f8301169050602081019050919050565b600067ffffffffffffffff821115610b8257610b81610c8b565b5b601f19601f8301169050602081019050919050565b600081519050919050565b600082825260208201905092915050565b600081905092915050565b6000610bc982610bda565b9050919050565b6000819050919050565b600073ffffffffffffffffffffffffffffffffffffffff82169050919050565b6000819050919050565b600060ff82169050919050565b82818337600083830152505050565b60005b83811015610c3e578082015181840152602081019050610c23565b83811115610c4d576000848401525b50505050565b6000610c5e82610c6f565b9050919050565b6000819050919050565b6000610c7a82610ccb565b9050919050565b6000819050919050565b7f4e487b7100000000000000000000000000000000000000000000000000000000600052604160045260246000fd5b6000601f19601f8301169050919050565b60008160601b9050919050565b610ce181610bbe565b8114610cec57600080fd5b50565b610cf881610bd0565b8114610d0357600080fd5b50565b610d0f81610bfa565b8114610d1a57600080fd5b5056fea264697066735822122019369d917192b7e05150ef359a7b0e50355d50aa7273d71c0957bd60c236f42f64736f6c63430008000033",
  "linkReferences": {},
  "deployedLinkReferences": {}
}