{
  "_format": "hh-sol-artifact-1",
  "contractName": "SignatureVerifier",
  "sourceName": "contracts/SignatureVerifier.sol",
  "abi": [
    {
      "inputs": [
        {
          "internalType": "bytes32",
          "name": "_messageHash",
          "type": "bytes32"
        }
      ],
      "name": "getEthSignedMessageHash",
      "outputs": [
        {
          "internalType": "bytes32",
          "name": "",
          "type": "bytes32"
        }
      ],
      "stateMutability": "pure",
      "type": "function"
    },
    {
      "inputs": [
        {
          "internalType": "uint256",
          "name": "_id",
          "type": "uint256"
        },
        {
          "internalType": "address",
          "name": "_buyer",
          "type": "address"
        },
        {
          "internalType": "uint256",
          "name": "_amount",
          "type": "uint256"
        },
        {
          "internalType": "uint256",
          "name": "_price",
          "type": "uint256"
        },
        {
          "internalType": "string",
          "name": "_ipfsHash",
          "type": "string"
        }
      ],
      "name": "getMessageHash",
      "outputs": [
        {
          "internalType": "bytes32",
          "name": "",
          "type": "bytes32"
        }
      ],
      "stateMutability": "pure",
      "type": "function"
    },
    {
      "inputs": [
        {
          "internalType": "bytes32",
          "name": "_messageHash",
          "type": "bytes32"
        },
        {
          "internalType": "bytes",
          "name": "_signature",
          "type": "bytes"
        }
      ],
      "name": "recoverSigner",
      "outputs": [
        {
          "internalType": "address",
          "name": "",
          "type": "address"
        }
      ],
      "stateMutability": "pure",
      "type": "function"
    },
    {
      "inputs": [
        {
          "internalType": "bytes",
          "name": "sig",
          "type": "bytes"
        }
      ],
      "name": "splitSignature",
      "outputs": [
        {
          "internalType": "bytes32",
          "name": "r",
          "type": "bytes32"
        },
        {
          "internalType": "bytes32",
          "name": "s",
          "type": "bytes32"
        },
        {
          "internalType": "uint8",
          "name": "v",
          "type": "uint8"
        }
      ],
      "stateMutability": "pure",
      "type": "function"
    }
  ],
  "bytecode": "0x608060405234801561001057600080fd5b50610619806100206000396000f3fe608060405234801561001057600080fd5b506004361061004c5760003560e01c80633b6877e71461005157806397aba7f91461007a578063a7bb58031461009a578063fa540801146100bc575b600080fd5b61006461005f36600461040f565b6100cf565b604051610071919061052a565b60405180910390f35b61008d61008836600461038f565b61010b565b6040516100719190610516565b6100ad6100a83660046103d4565b61023b565b60405161007193929190610533565b6100646100ca366004610377565b6102b1565b600085858585856040516020016100ea9594939291906104c9565b60405160208183030381529060405280519060200120905095945050505050565b6000815160411460405180604001604052806018815260200177092dcecc2d8d2c840e6d2cedcc2e8eae4ca40d8cadccee8d60431b8152509061016a5760405162461bcd60e51b8152600401610161919061056a565b60405180910390fd5b506000610176846102b1565b905060008060006101868661023b565b9250925092506000600185838686604051600081526020016040526040516101b1949392919061054c565b6020604051602081039080840390855afa1580156101d3573d6000803e3d6000fd5b505060408051601f198101518183019092526011815270496e76616c6964207369676e617475726560781b602082015290925090506001600160a01b03821661022f5760405162461bcd60e51b8152600401610161919061056a565b50979650505050505050565b6000806000835160411460405180604001604052806018815260200177092dcecc2d8d2c840e6d2cedcc2e8eae4ca40d8cadccee8d60431b815250906102945760405162461bcd60e51b8152600401610161919061056a565b5050505060208101516040820151606083015160001a9193909250565b6000816040516020016102c49190610498565b604051602081830303815290604052805190602001209050919050565b600067ffffffffffffffff808411156102fc576102fc6105cd565b604051601f8501601f191681016020018281118282101715610320576103206105cd565b60405284815291508183850186101561033857600080fd5b8484602083013760006020868301015250509392505050565b600082601f830112610361578081fd5b610370838335602085016102e1565b9392505050565b600060208284031215610388578081fd5b5035919050565b600080604083850312156103a1578081fd5b82359150602083013567ffffffffffffffff8111156103be578182fd5b6103ca85828601610351565b9150509250929050565b6000602082840312156103e5578081fd5b813567ffffffffffffffff8111156103fb578182fd5b61040784828501610351565b949350505050565b600080600080600060a08688031215610426578081fd5b8535945060208601356001600160a01b0381168114610443578182fd5b93506040860135925060608601359150608086013567ffffffffffffffff81111561046c578182fd5b8601601f8101881361047c578182fd5b61048b888235602084016102e1565b9150509295509295909350565b7f19457468657265756d205369676e6564204d6573736167653a0a3332000000008152601c810191909152603c0190565b60008682526bffffffffffffffffffffffff198660601b166020830152846034830152836054830152825161050581607485016020870161059d565b919091016074019695505050505050565b6001600160a01b0391909116815260200190565b90815260200190565b928352602083019190915260ff16604082015260600190565b93845260ff9290921660208401526040830152606082015260800190565b600060208252825180602084015261058981604085016020870161059d565b601f01601f19169190910160400192915050565b60005b838110156105b85781810151838201526020016105a0565b838111156105c7576000848401525b50505050565b634e487b7160e01b600052604160045260246000fdfea264697066735822122027200dcc4865d21b95a6e8c91ffc5b52c693a29f42566d182a1521f8b0f19f8a64736f6c63430008000033",
  "linkReferences": {},
  "deployedLinkReferences": {}
}