{"contracts/SignatureVerifier.sol":{"SignatureVerifier":{"abi":[{"inputs":[{"internalType":"bytes32","name":"_messageHash","type":"bytes32"}],"name":"getEthSignedMessageHash","outputs":[{"internalType":"bytes32","name":"","type":"bytes32"}],"stateMutability":"pure","type":"function"},{"inputs":[{"internalType":"uint256","name":"_id","type":"uint256"},{"internalType":"address","name":"_buyer","type":"address"},{"internalType":"uint256","name":"_amount","type":"uint256"},{"internalType":"uint256","name":"_price","type":"uint256"},{"internalType":"string","name":"_ipfsHash","type":"string"}],"name":"getMessageHash","outputs":[{"internalType":"bytes32","name":"","type":"bytes32"}],"stateMutability":"pure","type":"function"},{"inputs":[{"internalType":"bytes32","name":"_messageHash","type":"bytes32"},{"internalType":"bytes","name":"_signature","type":"bytes"}],"name":"recoverSigner","outputs":[{"internalType":"address","name":"","type":"address"}],"stateMutability":"pure","type":"function"},{"inputs":[{"internalType":"bytes","name":"sig","type":"bytes"}],"name":"splitSignature","outputs":[{"internalType":"bytes32","name":"r","type":"bytes32"},{"internalType":"bytes32","name":"s","type":"bytes32"},{"internalType":"uint8","name":"v","type":"uint8"}],"stateMutability":"pure","type":"function"}],"evm":{"bytecode":{"linkReferences":{},"object":"608060405234801561001057600080fd5b50610d53806100206000396000f3fe608060405234801561001057600080fd5b506004361061004c5760003560e01c80633b6877e71461005157806397aba7f914610081578063a7bb5803146100b1578063fa540801146100e3575b600080fd5b61006b60048036038101906100669190610806565b610113565b6040516100789190610a4d565b60405180910390f35b61009b60048036038101906100969190610771565b61018b565b6040516100a89190610a32565b60405180910390f35b6100cb60048036038101906100c691906107c5565b610489565b6040516100da93929190610a68565b60405180910390f35b6100fd60048036038101906100f89190610748565b6105ca565b60405161010a9190610a4d565b60405180910390f35b600061012967bc0e72d5aa67a1d760c01b610636565b61013d676aadd7eaf4faa0e660c01b610636565b6101516774d246f9cf16eafb60c01b610636565b858585858560405160200161016a9594939291906109d7565b60405160208183030381529060405280519060200120905095945050505050565b60006101a16777e81af5f2ed505b60c01b610636565b6101b5673d5616b4f20a127360c01b610636565b6101c967b08e784a68b3996560c01b610636565b6101dd67088ce5644b36b26460c01b610636565b60418251146040518060400160405280601881526020017f496e76616c6964207369676e6174757265206c656e677468000000000000000081525090610259576040517f08c379a00000000000000000000000000000000000000000000000000000000081526004016102509190610ae4565b60405180910390fd5b5061026e679edcdb404c4ff42060c01b610636565b61028267c31574ade32c2fb560c01b610636565b610296679e20085bd3e35c0f60c01b610636565b60006102a1846105ca565b90506102b767ef2a1d01b9c7565060c01b610636565b6102cb67d07f7f3231c67ebf60c01b610636565b60008060006102d986610489565b9250925092506102f36712d9869cc597c15460c01b610636565b610307674f3f18bd4524b2b760c01b610636565b60006001858386866040516000815260200160405260405161032c9493929190610a9f565b6020604051602081039080840390855afa15801561034e573d6000803e3d6000fd5b50505060206040510351905061036e67a89e09f5781ae31d60c01b610636565b61038267ca0185a932095c2260c01b610636565b610396677926f4500a8164a760c01b610636565b600073ffffffffffffffffffffffffffffffffffffffff168173ffffffffffffffffffffffffffffffffffffffff1614156040518060400160405280601181526020017f496e76616c6964207369676e61747572650000000000000000000000000000008152509061043e576040517f08c379a00000000000000000000000000000000000000000000000000000000081526004016104359190610ae4565b60405180910390fd5b5061045367590c7f966950afd160c01b610636565b61046767c1adf0c5fab0240560c01b610636565b61047b67445c5f67233d177160c01b610636565b809550505050505092915050565b60008060006104a2674a9adbd96c529fd460c01b610636565b6104b667ddf065094d30bf6e60c01b610636565b6104ca67c1b178296cd0713b60c01b610636565b6104de67d978e2c4796452c060c01b610636565b60418451146040518060400160405280601881526020017f496e76616c6964207369676e6174757265206c656e67746800000000000000008152509061055a576040517f08c379a00000000000000000000000000000000000000000000000000000000081526004016105519190610ae4565b60405180910390fd5b5061056f67f7a32724d255ad2a60c01b610636565b6105836705c4d3c643c5b1c360c01b610636565b6020840151925060408401519150606084015160001a90506105af676a0a3195ef42940360c01b610636565b6105c3674041d37d8f33033560c01b610636565b9193909250565b60006105e0670cc508dc319380d060c01b610636565b6105f467cc0dd83dd45bbc0160c01b610636565b61060867aa508dc83adf1ffd60c01b610636565b8160405160200161061991906109b1565b604051602081830303815290604052805190602001209050919050565b50565b600061064c61064784610b37565b610b06565b90508281526020810184848401111561066457600080fd5b61066f848285610c11565b509392505050565b600061068a61068584610b67565b610b06565b9050828152602081018484840111156106a257600080fd5b6106ad848285610c11565b509392505050565b6000813590506106c481610cd8565b92915050565b6000813590506106d981610cef565b92915050565b600082601f8301126106f057600080fd5b8135610700848260208601610639565b91505092915050565b600082601f83011261071a57600080fd5b813561072a848260208601610677565b91505092915050565b60008135905061074281610d06565b92915050565b60006020828403121561075a57600080fd5b6000610768848285016106ca565b91505092915050565b6000806040838503121561078457600080fd5b6000610792858286016106ca565b925050602083013567ffffffffffffffff8111156107af57600080fd5b6107bb858286016106df565b9150509250929050565b6000602082840312156107d757600080fd5b600082013567ffffffffffffffff8111156107f157600080fd5b6107fd848285016106df565b91505092915050565b600080600080600060a0868803121561081e57600080fd5b600061082c88828901610733565b955050602061083d888289016106b5565b945050604061084e88828901610733565b935050606061085f88828901610733565b925050608086013567ffffffffffffffff81111561087c57600080fd5b61088888828901610709565b9150509295509295909350565b61089e81610bbe565b82525050565b6108b56108b082610bbe565b610c53565b82525050565b6108c481610bd0565b82525050565b6108db6108d682610bd0565b610c65565b82525050565b60006108ec82610b97565b6108f68185610ba2565b9350610906818560208601610c20565b61090f81610cba565b840191505092915050565b600061092582610b97565b61092f8185610bb3565b935061093f818560208601610c20565b80840191505092915050565b6000610958601c83610bb3565b91507f19457468657265756d205369676e6564204d6573736167653a0a3332000000006000830152601c82019050919050565b61099c61099782610bfa565b610c81565b82525050565b6109ab81610c04565b82525050565b60006109bc8261094b565b91506109c882846108ca565b60208201915081905092915050565b60006109e3828861098b565b6020820191506109f382876108a4565b601482019150610a03828661098b565b602082019150610a13828561098b565b602082019150610a23828461091a565b91508190509695505050505050565b6000602082019050610a476000830184610895565b92915050565b6000602082019050610a6260008301846108bb565b92915050565b6000606082019050610a7d60008301866108bb565b610a8a60208301856108bb565b610a9760408301846109a2565b949350505050565b6000608082019050610ab460008301876108bb565b610ac160208301866109a2565b610ace60408301856108bb565b610adb60608301846108bb565b95945050505050565b60006020820190508181036000830152610afe81846108e1565b905092915050565b6000604051905081810181811067ffffffffffffffff82111715610b2d57610b2c610c8b565b5b8060405250919050565b600067ffffffffffffffff821115610b5257610b51610c8b565b5b601f19601f8301169050602081019050919050565b600067ffffffffffffffff821115610b8257610b81610c8b565b5b601f19601f8301169050602081019050919050565b600081519050919050565b600082825260208201905092915050565b600081905092915050565b6000610bc982610bda565b9050919050565b6000819050919050565b600073ffffffffffffffffffffffffffffffffffffffff82169050919050565b6000819050919050565b600060ff82169050919050565b82818337600083830152505050565b60005b83811015610c3e578082015181840152602081019050610c23565b83811115610c4d576000848401525b50505050565b6000610c5e82610c6f565b9050919050565b6000819050919050565b6000610c7a82610ccb565b9050919050565b6000819050919050565b7f4e487b7100000000000000000000000000000000000000000000000000000000600052604160045260246000fd5b6000601f19601f8301169050919050565b60008160601b9050919050565b610ce181610bbe565b8114610cec57600080fd5b50565b610cf881610bd0565b8114610d0357600080fd5b50565b610d0f81610bfa565b8114610d1a57600080fd5b5056fea264697066735822122019369d917192b7e05150ef359a7b0e50355d50aa7273d71c0957bd60c236f42f64736f6c63430008000033","opcodes":"PUSH1 0x80 PUSH1 0x40 MSTORE CALLVALUE DUP1 ISZERO PUSH2 0x10 JUMPI PUSH1 0x0 DUP1 REVERT JUMPDEST POP PUSH2 0xD53 DUP1 PUSH2 0x20 PUSH1 0x0 CODECOPY PUSH1 0x0 RETURN INVALID PUSH1 0x80 PUSH1 0x40 MSTORE CALLVALUE DUP1 ISZERO PUSH2 0x10 JUMPI PUSH1 0x0 DUP1 REVERT JUMPDEST POP PUSH1 0x4 CALLDATASIZE LT PUSH2 0x4C JUMPI PUSH1 0x0 CALLDATALOAD PUSH1 0xE0 SHR DUP1 PUSH4 0x3B6877E7 EQ PUSH2 0x51 JUMPI DUP1 PUSH4 0x97ABA7F9 EQ PUSH2 0x81 JUMPI DUP1 PUSH4 0xA7BB5803 EQ PUSH2 0xB1 JUMPI DUP1 PUSH4 0xFA540801 EQ PUSH2 0xE3 JUMPI JUMPDEST PUSH1 0x0 DUP1 REVERT JUMPDEST PUSH2 0x6B PUSH1 0x4 DUP1 CALLDATASIZE SUB DUP2 ADD SWAP1 PUSH2 0x66 SWAP2 SWAP1 PUSH2 0x806 JUMP JUMPDEST PUSH2 0x113 JUMP JUMPDEST PUSH1 0x40 MLOAD PUSH2 0x78 SWAP2 SWAP1 PUSH2 0xA4D JUMP JUMPDEST PUSH1 0x40 MLOAD DUP1 SWAP2 SUB SWAP1 RETURN JUMPDEST PUSH2 0x9B PUSH1 0x4 DUP1 CALLDATASIZE SUB DUP2 ADD SWAP1 PUSH2 0x96 SWAP2 SWAP1 PUSH2 0x771 JUMP JUMPDEST PUSH2 0x18B JUMP JUMPDEST PUSH1 0x40 MLOAD PUSH2 0xA8 SWAP2 SWAP1 PUSH2 0xA32 JUMP JUMPDEST PUSH1 0x40 MLOAD DUP1 SWAP2 SUB SWAP1 RETURN JUMPDEST PUSH2 0xCB PUSH1 0x4 DUP1 CALLDATASIZE SUB DUP2 ADD SWAP1 PUSH2 0xC6 SWAP2 SWAP1 PUSH2 0x7C5 JUMP JUMPDEST PUSH2 0x489 JUMP JUMPDEST PUSH1 0x40 MLOAD PUSH2 0xDA SWAP4 SWAP3 SWAP2 SWAP1 PUSH2 0xA68 JUMP JUMPDEST PUSH1 0x40 MLOAD DUP1 SWAP2 SUB SWAP1 RETURN JUMPDEST PUSH2 0xFD PUSH1 0x4 DUP1 CALLDATASIZE SUB DUP2 ADD SWAP1 PUSH2 0xF8 SWAP2 SWAP1 PUSH2 0x748 JUMP JUMPDEST PUSH2 0x5CA JUMP JUMPDEST PUSH1 0x40 MLOAD PUSH2 0x10A SWAP2 SWAP1 PUSH2 0xA4D JUMP JUMPDEST PUSH1 0x40 MLOAD DUP1 SWAP2 SUB SWAP1 RETURN JUMPDEST PUSH1 0x0 PUSH2 0x129 PUSH8 0xBC0E72D5AA67A1D7 PUSH1 0xC0 SHL PUSH2 0x636 JUMP JUMPDEST PUSH2 0x13D PUSH8 0x6AADD7EAF4FAA0E6 PUSH1 0xC0 SHL PUSH2 0x636 JUMP JUMPDEST PUSH2 0x151 PUSH8 0x74D246F9CF16EAFB PUSH1 0xC0 SHL PUSH2 0x636 JUMP JUMPDEST DUP6 DUP6 DUP6 DUP6 DUP6 PUSH1 0x40 MLOAD PUSH1 0x20 ADD PUSH2 0x16A SWAP6 SWAP5 SWAP4 SWAP3 SWAP2 SWAP1 PUSH2 0x9D7 JUMP JUMPDEST PUSH1 0x40 MLOAD PUSH1 0x20 DUP2 DUP4 SUB SUB DUP2 MSTORE SWAP1 PUSH1 0x40 MSTORE DUP1 MLOAD SWAP1 PUSH1 0x20 ADD KECCAK256 SWAP1 POP SWAP6 SWAP5 POP POP POP POP POP JUMP JUMPDEST PUSH1 0x0 PUSH2 0x1A1 PUSH8 0x77E81AF5F2ED505B PUSH1 0xC0 SHL PUSH2 0x636 JUMP JUMPDEST PUSH2 0x1B5 PUSH8 0x3D5616B4F20A1273 PUSH1 0xC0 SHL PUSH2 0x636 JUMP JUMPDEST PUSH2 0x1C9 PUSH8 0xB08E784A68B39965 PUSH1 0xC0 SHL PUSH2 0x636 JUMP JUMPDEST PUSH2 0x1DD PUSH8 0x88CE5644B36B264 PUSH1 0xC0 SHL PUSH2 0x636 JUMP JUMPDEST PUSH1 0x41 DUP3 MLOAD EQ PUSH1 0x40 MLOAD DUP1 PUSH1 0x40 ADD PUSH1 0x40 MSTORE DUP1 PUSH1 0x18 DUP2 MSTORE PUSH1 0x20 ADD PUSH32 0x496E76616C6964207369676E6174757265206C656E6774680000000000000000 DUP2 MSTORE POP SWAP1 PUSH2 0x259 JUMPI PUSH1 0x40 MLOAD PUSH32 0x8C379A000000000000000000000000000000000000000000000000000000000 DUP2 MSTORE PUSH1 0x4 ADD PUSH2 0x250 SWAP2 SWAP1 PUSH2 0xAE4 JUMP JUMPDEST PUSH1 0x40 MLOAD DUP1 SWAP2 SUB SWAP1 REVERT JUMPDEST POP PUSH2 0x26E PUSH8 0x9EDCDB404C4FF420 PUSH1 0xC0 SHL PUSH2 0x636 JUMP JUMPDEST PUSH2 0x282 PUSH8 0xC31574ADE32C2FB5 PUSH1 0xC0 SHL PUSH2 0x636 JUMP JUMPDEST PUSH2 0x296 PUSH8 0x9E20085BD3E35C0F PUSH1 0xC0 SHL PUSH2 0x636 JUMP JUMPDEST PUSH1 0x0 PUSH2 0x2A1 DUP5 PUSH2 0x5CA JUMP JUMPDEST SWAP1 POP PUSH2 0x2B7 PUSH8 0xEF2A1D01B9C75650 PUSH1 0xC0 SHL PUSH2 0x636 JUMP JUMPDEST PUSH2 0x2CB PUSH8 0xD07F7F3231C67EBF PUSH1 0xC0 SHL PUSH2 0x636 JUMP JUMPDEST PUSH1 0x0 DUP1 PUSH1 0x0 PUSH2 0x2D9 DUP7 PUSH2 0x489 JUMP JUMPDEST SWAP3 POP SWAP3 POP SWAP3 POP PUSH2 0x2F3 PUSH8 0x12D9869CC597C154 PUSH1 0xC0 SHL PUSH2 0x636 JUMP JUMPDEST PUSH2 0x307 PUSH8 0x4F3F18BD4524B2B7 PUSH1 0xC0 SHL PUSH2 0x636 JUMP JUMPDEST PUSH1 0x0 PUSH1 0x1 DUP6 DUP4 DUP7 DUP7 PUSH1 0x40 MLOAD PUSH1 0x0 DUP2 MSTORE PUSH1 0x20 ADD PUSH1 0x40 MSTORE PUSH1 0x40 MLOAD PUSH2 0x32C SWAP5 SWAP4 SWAP3 SWAP2 SWAP1 PUSH2 0xA9F JUMP JUMPDEST PUSH1 0x20 PUSH1 0x40 MLOAD PUSH1 0x20 DUP2 SUB SWAP1 DUP1 DUP5 SUB SWAP1 DUP6 GAS STATICCALL ISZERO DUP1 ISZERO PUSH2 0x34E JUMPI RETURNDATASIZE PUSH1 0x0 DUP1 RETURNDATACOPY RETURNDATASIZE PUSH1 0x0 REVERT JUMPDEST POP POP POP PUSH1 0x20 PUSH1 0x40 MLOAD SUB MLOAD SWAP1 POP PUSH2 0x36E PUSH8 0xA89E09F5781AE31D PUSH1 0xC0 SHL PUSH2 0x636 JUMP JUMPDEST PUSH2 0x382 PUSH8 0xCA0185A932095C22 PUSH1 0xC0 SHL PUSH2 0x636 JUMP JUMPDEST PUSH2 0x396 PUSH8 0x7926F4500A8164A7 PUSH1 0xC0 SHL PUSH2 0x636 JUMP JUMPDEST PUSH1 0x0 PUSH20 0xFFFFFFFFFFFFFFFFFFFFFFFFFFFFFFFFFFFFFFFF AND DUP2 PUSH20 0xFFFFFFFFFFFFFFFFFFFFFFFFFFFFFFFFFFFFFFFF AND EQ ISZERO PUSH1 0x40 MLOAD DUP1 PUSH1 0x40 ADD PUSH1 0x40 MSTORE DUP1 PUSH1 0x11 DUP2 MSTORE PUSH1 0x20 ADD PUSH32 0x496E76616C6964207369676E6174757265000000000000000000000000000000 DUP2 MSTORE POP SWAP1 PUSH2 0x43E JUMPI PUSH1 0x40 MLOAD PUSH32 0x8C379A000000000000000000000000000000000000000000000000000000000 DUP2 MSTORE PUSH1 0x4 ADD PUSH2 0x435 SWAP2 SWAP1 PUSH2 0xAE4 JUMP JUMPDEST PUSH1 0x40 MLOAD DUP1 SWAP2 SUB SWAP1 REVERT JUMPDEST POP PUSH2 0x453 PUSH8 0x590C7F966950AFD1 PUSH1 0xC0 SHL PUSH2 0x636 JUMP JUMPDEST PUSH2 0x467 PUSH8 0xC1ADF0C5FAB02405 PUSH1 0xC0 SHL PUSH2 0x636 JUMP JUMPDEST PUSH2 0x47B PUSH8 0x445C5F67233D1771 PUSH1 0xC0 SHL PUSH2 0x636 JUMP JUMPDEST DUP1 SWAP6 POP POP POP POP POP POP SWAP3 SWAP2 POP POP JUMP JUMPDEST PUSH1 0x0 DUP1 PUSH1 0x0 PUSH2 0x4A2 PUSH8 0x4A9ADBD96C529FD4 PUSH1 0xC0 SHL PUSH2 0x636 JUMP JUMPDEST PUSH2 0x4B6 PUSH8 0xDDF065094D30BF6E PUSH1 0xC0 SHL PUSH2 0x636 JUMP JUMPDEST PUSH2 0x4CA PUSH8 0xC1B178296CD0713B PUSH1 0xC0 SHL PUSH2 0x636 JUMP JUMPDEST PUSH2 0x4DE PUSH8 0xD978E2C4796452C0 PUSH1 0xC0 SHL PUSH2 0x636 JUMP JUMPDEST PUSH1 0x41 DUP5 MLOAD EQ PUSH1 0x40 MLOAD DUP1 PUSH1 0x40 ADD PUSH1 0x40 MSTORE DUP1 PUSH1 0x18 DUP2 MSTORE PUSH1 0x20 ADD PUSH32 0x496E76616C6964207369676E6174757265206C656E6774680000000000000000 DUP2 MSTORE POP SWAP1 PUSH2 0x55A JUMPI PUSH1 0x40 MLOAD PUSH32 0x8C379A000000000000000000000000000000000000000000000000000000000 DUP2 MSTORE PUSH1 0x4 ADD PUSH2 0x551 SWAP2 SWAP1 PUSH2 0xAE4 JUMP JUMPDEST PUSH1 0x40 MLOAD DUP1 SWAP2 SUB SWAP1 REVERT JUMPDEST POP PUSH2 0x56F PUSH8 0xF7A32724D255AD2A PUSH1 0xC0 SHL PUSH2 0x636 JUMP JUMPDEST PUSH2 0x583 PUSH8 0x5C4D3C643C5B1C3 PUSH1 0xC0 SHL PUSH2 0x636 JUMP JUMPDEST PUSH1 0x20 DUP5 ADD MLOAD SWAP3 POP PUSH1 0x40 DUP5 ADD MLOAD SWAP2 POP PUSH1 0x60 DUP5 ADD MLOAD PUSH1 0x0 BYTE SWAP1 POP PUSH2 0x5AF PUSH8 0x6A0A3195EF429403 PUSH1 0xC0 SHL PUSH2 0x636 JUMP JUMPDEST PUSH2 0x5C3 PUSH8 0x4041D37D8F330335 PUSH1 0xC0 SHL PUSH2 0x636 JUMP JUMPDEST SWAP2 SWAP4 SWAP1 SWAP3 POP JUMP JUMPDEST PUSH1 0x0 PUSH2 0x5E0 PUSH8 0xCC508DC319380D0 PUSH1 0xC0 SHL PUSH2 0x636 JUMP JUMPDEST PUSH2 0x5F4 PUSH8 0xCC0DD83DD45BBC01 PUSH1 0xC0 SHL PUSH2 0x636 JUMP JUMPDEST PUSH2 0x608 PUSH8 0xAA508DC83ADF1FFD PUSH1 0xC0 SHL PUSH2 0x636 JUMP JUMPDEST DUP2 PUSH1 0x40 MLOAD PUSH1 0x20 ADD PUSH2 0x619 SWAP2 SWAP1 PUSH2 0x9B1 JUMP JUMPDEST PUSH1 0x40 MLOAD PUSH1 0x20 DUP2 DUP4 SUB SUB DUP2 MSTORE SWAP1 PUSH1 0x40 MSTORE DUP1 MLOAD SWAP1 PUSH1 0x20 ADD KECCAK256 SWAP1 POP SWAP2 SWAP1 POP JUMP JUMPDEST POP JUMP JUMPDEST PUSH1 0x0 PUSH2 0x64C PUSH2 0x647 DUP5 PUSH2 0xB37 JUMP JUMPDEST PUSH2 0xB06 JUMP JUMPDEST SWAP1 POP DUP3 DUP2 MSTORE PUSH1 0x20 DUP2 ADD DUP5 DUP5 DUP5 ADD GT ISZERO PUSH2 0x664 JUMPI PUSH1 0x0 DUP1 REVERT JUMPDEST PUSH2 0x66F DUP5 DUP3 DUP6 PUSH2 0xC11 JUMP JUMPDEST POP SWAP4 SWAP3 POP POP POP JUMP JUMPDEST PUSH1 0x0 PUSH2 0x68A PUSH2 0x685 DUP5 PUSH2 0xB67 JUMP JUMPDEST PUSH2 0xB06 JUMP JUMPDEST SWAP1 POP DUP3 DUP2 MSTORE PUSH1 0x20 DUP2 ADD DUP5 DUP5 DUP5 ADD GT ISZERO PUSH2 0x6A2 JUMPI PUSH1 0x0 DUP1 REVERT JUMPDEST PUSH2 0x6AD DUP5 DUP3 DUP6 PUSH2 0xC11 JUMP JUMPDEST POP SWAP4 SWAP3 POP POP POP JUMP JUMPDEST PUSH1 0x0 DUP2 CALLDATALOAD SWAP1 POP PUSH2 0x6C4 DUP2 PUSH2 0xCD8 JUMP JUMPDEST SWAP3 SWAP2 POP POP JUMP JUMPDEST PUSH1 0x0 DUP2 CALLDATALOAD SWAP1 POP PUSH2 0x6D9 DUP2 PUSH2 0xCEF JUMP JUMPDEST SWAP3 SWAP2 POP POP JUMP JUMPDEST PUSH1 0x0 DUP3 PUSH1 0x1F DUP4 ADD SLT PUSH2 0x6F0 JUMPI PUSH1 0x0 DUP1 REVERT JUMPDEST DUP2 CALLDATALOAD PUSH2 0x700 DUP5 DUP3 PUSH1 0x20 DUP7 ADD PUSH2 0x639 JUMP JUMPDEST SWAP2 POP POP SWAP3 SWAP2 POP POP JUMP JUMPDEST PUSH1 0x0 DUP3 PUSH1 0x1F DUP4 ADD SLT PUSH2 0x71A JUMPI PUSH1 0x0 DUP1 REVERT JUMPDEST DUP2 CALLDATALOAD PUSH2 0x72A DUP5 DUP3 PUSH1 0x20 DUP7 ADD PUSH2 0x677 JUMP JUMPDEST SWAP2 POP POP SWAP3 SWAP2 POP POP JUMP JUMPDEST PUSH1 0x0 DUP2 CALLDATALOAD SWAP1 POP PUSH2 0x742 DUP2 PUSH2 0xD06 JUMP JUMPDEST SWAP3 SWAP2 POP POP JUMP JUMPDEST PUSH1 0x0 PUSH1 0x20 DUP3 DUP5 SUB SLT ISZERO PUSH2 0x75A JUMPI PUSH1 0x0 DUP1 REVERT JUMPDEST PUSH1 0x0 PUSH2 0x768 DUP5 DUP3 DUP6 ADD PUSH2 0x6CA JUMP JUMPDEST SWAP2 POP POP SWAP3 SWAP2 POP POP JUMP JUMPDEST PUSH1 0x0 DUP1 PUSH1 0x40 DUP4 DUP6 SUB SLT ISZERO PUSH2 0x784 JUMPI PUSH1 0x0 DUP1 REVERT JUMPDEST PUSH1 0x0 PUSH2 0x792 DUP6 DUP3 DUP7 ADD PUSH2 0x6CA JUMP JUMPDEST SWAP3 POP POP PUSH1 0x20 DUP4 ADD CALLDATALOAD PUSH8 0xFFFFFFFFFFFFFFFF DUP2 GT ISZERO PUSH2 0x7AF JUMPI PUSH1 0x0 DUP1 REVERT JUMPDEST PUSH2 0x7BB DUP6 DUP3 DUP7 ADD PUSH2 0x6DF JUMP JUMPDEST SWAP2 POP POP SWAP3 POP SWAP3 SWAP1 POP JUMP JUMPDEST PUSH1 0x0 PUSH1 0x20 DUP3 DUP5 SUB SLT ISZERO PUSH2 0x7D7 JUMPI PUSH1 0x0 DUP1 REVERT JUMPDEST PUSH1 0x0 DUP3 ADD CALLDATALOAD PUSH8 0xFFFFFFFFFFFFFFFF DUP2 GT ISZERO PUSH2 0x7F1 JUMPI PUSH1 0x0 DUP1 REVERT JUMPDEST PUSH2 0x7FD DUP5 DUP3 DUP6 ADD PUSH2 0x6DF JUMP JUMPDEST SWAP2 POP POP SWAP3 SWAP2 POP POP JUMP JUMPDEST PUSH1 0x0 DUP1 PUSH1 0x0 DUP1 PUSH1 0x0 PUSH1 0xA0 DUP7 DUP9 SUB SLT ISZERO PUSH2 0x81E JUMPI PUSH1 0x0 DUP1 REVERT JUMPDEST PUSH1 0x0 PUSH2 0x82C DUP9 DUP3 DUP10 ADD PUSH2 0x733 JUMP JUMPDEST SWAP6 POP POP PUSH1 0x20 PUSH2 0x83D DUP9 DUP3 DUP10 ADD PUSH2 0x6B5 JUMP JUMPDEST SWAP5 POP POP PUSH1 0x40 PUSH2 0x84E DUP9 DUP3 DUP10 ADD PUSH2 0x733 JUMP JUMPDEST SWAP4 POP POP PUSH1 0x60 PUSH2 0x85F DUP9 DUP3 DUP10 ADD PUSH2 0x733 JUMP JUMPDEST SWAP3 POP POP PUSH1 0x80 DUP7 ADD CALLDATALOAD PUSH8 0xFFFFFFFFFFFFFFFF DUP2 GT ISZERO PUSH2 0x87C JUMPI PUSH1 0x0 DUP1 REVERT JUMPDEST PUSH2 0x888 DUP9 DUP3 DUP10 ADD PUSH2 0x709 JUMP JUMPDEST SWAP2 POP POP SWAP3 SWAP6 POP SWAP3 SWAP6 SWAP1 SWAP4 POP JUMP JUMPDEST PUSH2 0x89E DUP2 PUSH2 0xBBE JUMP JUMPDEST DUP3 MSTORE POP POP JUMP JUMPDEST PUSH2 0x8B5 PUSH2 0x8B0 DUP3 PUSH2 0xBBE JUMP JUMPDEST PUSH2 0xC53 JUMP JUMPDEST DUP3 MSTORE POP POP JUMP JUMPDEST PUSH2 0x8C4 DUP2 PUSH2 0xBD0 JUMP JUMPDEST DUP3 MSTORE POP POP JUMP JUMPDEST PUSH2 0x8DB PUSH2 0x8D6 DUP3 PUSH2 0xBD0 JUMP JUMPDEST PUSH2 0xC65 JUMP JUMPDEST DUP3 MSTORE POP POP JUMP JUMPDEST PUSH1 0x0 PUSH2 0x8EC DUP3 PUSH2 0xB97 JUMP JUMPDEST PUSH2 0x8F6 DUP2 DUP6 PUSH2 0xBA2 JUMP JUMPDEST SWAP4 POP PUSH2 0x906 DUP2 DUP6 PUSH1 0x20 DUP7 ADD PUSH2 0xC20 JUMP JUMPDEST PUSH2 0x90F DUP2 PUSH2 0xCBA JUMP JUMPDEST DUP5 ADD SWAP2 POP POP SWAP3 SWAP2 POP POP JUMP JUMPDEST PUSH1 0x0 PUSH2 0x925 DUP3 PUSH2 0xB97 JUMP JUMPDEST PUSH2 0x92F DUP2 DUP6 PUSH2 0xBB3 JUMP JUMPDEST SWAP4 POP PUSH2 0x93F DUP2 DUP6 PUSH1 0x20 DUP7 ADD PUSH2 0xC20 JUMP JUMPDEST DUP1 DUP5 ADD SWAP2 POP POP SWAP3 SWAP2 POP POP JUMP JUMPDEST PUSH1 0x0 PUSH2 0x958 PUSH1 0x1C DUP4 PUSH2 0xBB3 JUMP JUMPDEST SWAP2 POP PUSH32 0x19457468657265756D205369676E6564204D6573736167653A0A333200000000 PUSH1 0x0 DUP4 ADD MSTORE PUSH1 0x1C DUP3 ADD SWAP1 POP SWAP2 SWAP1 POP JUMP JUMPDEST PUSH2 0x99C PUSH2 0x997 DUP3 PUSH2 0xBFA JUMP JUMPDEST PUSH2 0xC81 JUMP JUMPDEST DUP3 MSTORE POP POP JUMP JUMPDEST PUSH2 0x9AB DUP2 PUSH2 0xC04 JUMP JUMPDEST DUP3 MSTORE POP POP JUMP JUMPDEST PUSH1 0x0 PUSH2 0x9BC DUP3 PUSH2 0x94B JUMP JUMPDEST SWAP2 POP PUSH2 0x9C8 DUP3 DUP5 PUSH2 0x8CA JUMP JUMPDEST PUSH1 0x20 DUP3 ADD SWAP2 POP DUP2 SWAP1 POP SWAP3 SWAP2 POP POP JUMP JUMPDEST PUSH1 0x0 PUSH2 0x9E3 DUP3 DUP9 PUSH2 0x98B JUMP JUMPDEST PUSH1 0x20 DUP3 ADD SWAP2 POP PUSH2 0x9F3 DUP3 DUP8 PUSH2 0x8A4 JUMP JUMPDEST PUSH1 0x14 DUP3 ADD SWAP2 POP PUSH2 0xA03 DUP3 DUP7 PUSH2 0x98B JUMP JUMPDEST PUSH1 0x20 DUP3 ADD SWAP2 POP PUSH2 0xA13 DUP3 DUP6 PUSH2 0x98B JUMP JUMPDEST PUSH1 0x20 DUP3 ADD SWAP2 POP PUSH2 0xA23 DUP3 DUP5 PUSH2 0x91A JUMP JUMPDEST SWAP2 POP DUP2 SWAP1 POP SWAP7 SWAP6 POP POP POP POP POP POP JUMP JUMPDEST PUSH1 0x0 PUSH1 0x20 DUP3 ADD SWAP1 POP PUSH2 0xA47 PUSH1 0x0 DUP4 ADD DUP5 PUSH2 0x895 JUMP JUMPDEST SWAP3 SWAP2 POP POP JUMP JUMPDEST PUSH1 0x0 PUSH1 0x20 DUP3 ADD SWAP1 POP PUSH2 0xA62 PUSH1 0x0 DUP4 ADD DUP5 PUSH2 0x8BB JUMP JUMPDEST SWAP3 SWAP2 POP POP JUMP JUMPDEST PUSH1 0x0 PUSH1 0x60 DUP3 ADD SWAP1 POP PUSH2 0xA7D PUSH1 0x0 DUP4 ADD DUP7 PUSH2 0x8BB JUMP JUMPDEST PUSH2 0xA8A PUSH1 0x20 DUP4 ADD DUP6 PUSH2 0x8BB JUMP JUMPDEST PUSH2 0xA97 PUSH1 0x40 DUP4 ADD DUP5 PUSH2 0x9A2 JUMP JUMPDEST SWAP5 SWAP4 POP POP POP POP JUMP JUMPDEST PUSH1 0x0 PUSH1 0x80 DUP3 ADD SWAP1 POP PUSH2 0xAB4 PUSH1 0x0 DUP4 ADD DUP8 PUSH2 0x8BB JUMP JUMPDEST PUSH2 0xAC1 PUSH1 0x20 DUP4 ADD DUP7 PUSH2 0x9A2 JUMP JUMPDEST PUSH2 0xACE PUSH1 0x40 DUP4 ADD DUP6 PUSH2 0x8BB JUMP JUMPDEST PUSH2 0xADB PUSH1 0x60 DUP4 ADD DUP5 PUSH2 0x8BB JUMP JUMPDEST SWAP6 SWAP5 POP POP POP POP POP JUMP JUMPDEST PUSH1 0x0 PUSH1 0x20 DUP3 ADD SWAP1 POP DUP2 DUP2 SUB PUSH1 0x0 DUP4 ADD MSTORE PUSH2 0xAFE DUP2 DUP5 PUSH2 0x8E1 JUMP JUMPDEST SWAP1 POP SWAP3 SWAP2 POP POP JUMP JUMPDEST PUSH1 0x0 PUSH1 0x40 MLOAD SWAP1 POP DUP2 DUP2 ADD DUP2 DUP2 LT PUSH8 0xFFFFFFFFFFFFFFFF DUP3 GT OR ISZERO PUSH2 0xB2D JUMPI PUSH2 0xB2C PUSH2 0xC8B JUMP JUMPDEST JUMPDEST DUP1 PUSH1 0x40 MSTORE POP SWAP2 SWAP1 POP JUMP JUMPDEST PUSH1 0x0 PUSH8 0xFFFFFFFFFFFFFFFF DUP3 GT ISZERO PUSH2 0xB52 JUMPI PUSH2 0xB51 PUSH2 0xC8B JUMP JUMPDEST JUMPDEST PUSH1 0x1F NOT PUSH1 0x1F DUP4 ADD AND SWAP1 POP PUSH1 0x20 DUP2 ADD SWAP1 POP SWAP2 SWAP1 POP JUMP JUMPDEST PUSH1 0x0 PUSH8 0xFFFFFFFFFFFFFFFF DUP3 GT ISZERO PUSH2 0xB82 JUMPI PUSH2 0xB81 PUSH2 0xC8B JUMP JUMPDEST JUMPDEST PUSH1 0x1F NOT PUSH1 0x1F DUP4 ADD AND SWAP1 POP PUSH1 0x20 DUP2 ADD SWAP1 POP SWAP2 SWAP1 POP JUMP JUMPDEST PUSH1 0x0 DUP2 MLOAD SWAP1 POP SWAP2 SWAP1 POP JUMP JUMPDEST PUSH1 0x0 DUP3 DUP3 MSTORE PUSH1 0x20 DUP3 ADD SWAP1 POP SWAP3 SWAP2 POP POP JUMP JUMPDEST PUSH1 0x0 DUP2 SWAP1 POP SWAP3 SWAP2 POP POP JUMP JUMPDEST PUSH1 0x0 PUSH2 0xBC9 DUP3 PUSH2 0xBDA JUMP JUMPDEST SWAP1 POP SWAP2 SWAP1 POP JUMP JUMPDEST PUSH1 0x0 DUP2 SWAP1 POP SWAP2 SWAP1 POP JUMP JUMPDEST PUSH1 0x0 PUSH20 0xFFFFFFFFFFFFFFFFFFFFFFFFFFFFFFFFFFFFFFFF DUP3 AND SWAP1 POP SWAP2 SWAP1 POP JUMP JUMPDEST PUSH1 0x0 DUP2 SWAP1 POP SWAP2 SWAP1 POP JUMP JUMPDEST PUSH1 0x0 PUSH1 0xFF DUP3 AND SWAP1 POP SWAP2 SWAP1 POP JUMP JUMPDEST DUP3 DUP2 DUP4 CALLDATACOPY PUSH1 0x0 DUP4 DUP4 ADD MSTORE POP POP POP JUMP JUMPDEST PUSH1 0x0 JUMPDEST DUP4 DUP2 LT ISZERO PUSH2 0xC3E JUMPI DUP1 DUP3 ADD MLOAD DUP2 DUP5 ADD MSTORE PUSH1 0x20 DUP2 ADD SWAP1 POP PUSH2 0xC23 JUMP JUMPDEST DUP4 DUP2 GT ISZERO PUSH2 0xC4D JUMPI PUSH1 0x0 DUP5 DUP5 ADD MSTORE JUMPDEST POP POP POP POP JUMP JUMPDEST PUSH1 0x0 PUSH2 0xC5E DUP3 PUSH2 0xC6F JUMP JUMPDEST SWAP1 POP SWAP2 SWAP1 POP JUMP JUMPDEST PUSH1 0x0 DUP2 SWAP1 POP SWAP2 SWAP1 POP JUMP JUMPDEST PUSH1 0x0 PUSH2 0xC7A DUP3 PUSH2 0xCCB JUMP JUMPDEST SWAP1 POP SWAP2 SWAP1 POP JUMP JUMPDEST PUSH1 0x0 DUP2 SWAP1 POP SWAP2 SWAP1 POP JUMP JUMPDEST PUSH32 0x4E487B7100000000000000000000000000000000000000000000000000000000 PUSH1 0x0 MSTORE PUSH1 0x41 PUSH1 0x4 MSTORE PUSH1 0x24 PUSH1 0x0 REVERT JUMPDEST PUSH1 0x0 PUSH1 0x1F NOT PUSH1 0x1F DUP4 ADD AND SWAP1 POP SWAP2 SWAP1 POP JUMP JUMPDEST PUSH1 0x0 DUP2 PUSH1 0x60 SHL SWAP1 POP SWAP2 SWAP1 POP JUMP JUMPDEST PUSH2 0xCE1 DUP2 PUSH2 0xBBE JUMP JUMPDEST DUP2 EQ PUSH2 0xCEC JUMPI PUSH1 0x0 DUP1 REVERT JUMPDEST POP JUMP JUMPDEST PUSH2 0xCF8 DUP2 PUSH2 0xBD0 JUMP JUMPDEST DUP2 EQ PUSH2 0xD03 JUMPI PUSH1 0x0 DUP1 REVERT JUMPDEST POP JUMP JUMPDEST PUSH2 0xD0F DUP2 PUSH2 0xBFA JUMP JUMPDEST DUP2 EQ PUSH2 0xD1A JUMPI PUSH1 0x0 DUP1 REVERT JUMPDEST POP JUMP INVALID LOG2 PUSH5 0x6970667358 0x22 SLT KECCAK256 NOT CALLDATASIZE SWAP14 SWAP2 PUSH18 0x92B7E05150EF359A7B0E50355D50AA7273D7 SHR MULMOD JUMPI 0xBD PUSH1 0xC2 CALLDATASIZE DELEGATECALL 0x2F PUSH5 0x736F6C6343 STOP ADDMOD STOP STOP CALLER "},"methodIdentifiers":{"getEthSignedMessageHash(bytes32)":"fa540801","getMessageHash(uint256,address,uint256,uint256,string)":"3b6877e7","recoverSigner(bytes32,bytes)":"97aba7f9","splitSignature(bytes)":"a7bb5803"}}}}}