{"contracts/EnhancedOrderBook.sol":{"EnhancedOrderBook":{"abi":[{"anonymous":false,"inputs":[{"indexed":true,"internalType":"uint256","name":"id","type":"uint256"},{"indexed":true,"internalType":"address","name":"buyer","type":"address"},{"indexed":false,"internalType":"uint256","name":"amount","type":"uint256"},{"indexed":false,"internalType":"uint256","name":"price","type":"uint256"},{"indexed":false,"internalType":"string","name":"ipfsHash","type":"string"}],"name":"OrderPlaced","type":"event"},{"anonymous":false,"inputs":[{"indexed":true,"internalType":"uint256","name":"id","type":"uint256"},{"indexed":false,"internalType":"bool","name":"verified","type":"bool"}],"name":"OrderVerified","type":"event"},{"inputs":[{"internalType":"uint256","name":"","type":"uint256"}],"name":"enhancedOrders","outputs":[{"internalType":"uint256","name":"id","type":"uint256"},{"internalType":"address","name":"buyer","type":"address"},{"internalType":"uint256","name":"amount","type":"uint256"},{"internalType":"uint256","name":"price","type":"uint256"},{"internalType":"string","name":"ipfsHash","type":"string"},{"internalType":"bool","name":"exists","type":"bool"},{"internalType":"uint256","name":"expiry","type":"uint256"},{"internalType":"bool","name":"canceled","type":"bool"}],"stateMutability":"view","type":"function"},{"inputs":[{"internalType":"bytes32","name":"_messageHash","type":"bytes32"}],"name":"getEthSignedMessageHash","outputs":[{"internalType":"bytes32","name":"","type":"bytes32"}],"stateMutability":"pure","type":"function"},{"inputs":[{"internalType":"uint256","name":"_id","type":"uint256"},{"internalType":"address","name":"_buyer","type":"address"},{"internalType":"uint256","name":"_amount","type":"uint256"},{"internalType":"uint256","name":"_price","type":"uint256"},{"internalType":"string","name":"_ipfsHash","type":"string"}],"name":"getMessageHash","outputs":[{"internalType":"bytes32","name":"","type":"bytes32"}],"stateMutability":"pure","type":"function"},{"inputs":[{"internalType":"uint256","name":"_id","type":"uint256"}],"name":"isOrderActive","outputs":[{"internalType":"bool","name":"","type":"bool"}],"stateMutability":"view","type":"function"},{"inputs":[{"internalType":"uint256","name":"_id","type":"uint256"}],"name":"isOrderExpired","outputs":[{"internalType":"bool","name":"","type":"bool"}],"stateMutability":"view","type":"function"},{"inputs":[{"internalType":"uint256","name":"","type":"uint256"}],"name":"orders","outputs":[{"internalType":"uint256","name":"id","type":"uint256"},{"internalType":"address","name":"buyer","type":"address"},{"internalType":"uint256","name":"amount","type":"uint256"},{"internalType":"uint256","name":"price","type":"uint256"},{"internalType":"string","name":"ipfsHash","type":"string"},{"internalType":"bool","name":"exists","type":"bool"}],"stateMutability":"view","type":"function"},{"inputs":[{"internalType":"uint256","name":"_id","type":"uint256"},{"internalType":"address","name":"_buyer","type":"address"},{"internalType":"uint256","name":"_amount","type":"uint256"},{"internalType":"uint256","name":"_price","type":"uint256"},{"internalType":"string","name":"_ipfsHash","type":"string"},{"internalType":"bytes","name":"_signature","type":"bytes"}],"name":"placeOrder","outputs":[],"stateMutability":"nonpayable","type":"function"},{"inputs":[{"internalType":"uint256","name":"_id","type":"uint256"},{"internalType":"address","name":"_buyer","type":"address"},{"internalType":"uint256","name":"_amount","type":"uint256"},{"internalType":"uint256","name":"_price","type":"uint256"},{"internalType":"string","name":"_ipfsHash","type":"string"},{"internalType":"bytes","name":"_signature","type":"bytes"},{"internalType":"uint256","name":"_expiry","type":"uint256"}],"name":"placeOrderWithExpiry","outputs":[],"stateMutability":"nonpayable","type":"function"},{"inputs":[{"internalType":"bytes32","name":"_messageHash","type":"bytes32"},{"internalType":"bytes","name":"_signature","type":"bytes"}],"name":"recoverSigner","outputs":[{"internalType":"address","name":"","type":"address"}],"stateMutability":"pure","type":"function"},{"inputs":[{"internalType":"bytes","name":"sig","type":"bytes"}],"name":"splitSignature","outputs":[{"internalType":"bytes32","name":"r","type":"bytes32"},{"internalType":"bytes32","name":"s","type":"bytes32"},{"internalType":"uint8","name":"v","type":"uint8"}],"stateMutability":"pure","type":"function"}],"evm":{"bytecode":{"linkReferences":{},"object":"608060405234801561001057600080fd5b506125f5806100206000396000f3fe608060405234801561001057600080fd5b506004361061009e5760003560e01c8063a85c38ef11610066578063a85c38ef1461019c578063d6e43585146101d1578063ed1e9ac514610201578063f821622f1461021d578063fa540801146102395761009e565b80633b6877e7146100a357806359c69313146100d357806393fb25451461010357806397aba7f91461013a578063a7bb58031461016a575b600080fd5b6100bd60048036038101906100b89190611c90565b610269565b6040516100ca9190612117565b60405180910390f35b6100ed60048036038101906100e89190611c67565b6102e1565b6040516100fa91906120fc565b60405180910390f35b61011d60048036038101906101189190611c67565b61040e565b604051610131989796959493929190612278565b60405180910390f35b610154600480360381019061014f9190611bd2565b610518565b60405161016191906120e1565b60405180910390f35b610184600480360381019061017f9190611c26565b610816565b60405161019393929190612132565b60405180910390f35b6101b660048036038101906101b19190611c67565b610957565b6040516101c896959493929190612210565b60405180910390f35b6101eb60048036038101906101e69190611c67565b610a48565b6040516101f891906120fc565b60405180910390f35b61021b60048036038101906102169190611d1f565b610b0c565b005b61023760048036038101906102329190611dd8565b6111c3565b005b610253600480360381019061024e9190611ba9565b611982565b6040516102609190612117565b60405180910390f35b600061027f67bc0e72d5aa67a1d760c01b6119ee565b610293676aadd7eaf4faa0e660c01b6119ee565b6102a76774d246f9cf16eafb60c01b6119ee565b85858585856040516020016102c0959493929190612086565b60405160208183030381529060405280519060200120905095945050505050565b60006102f767f1adc1b3e1371da560c01b6119f1565b61030b67a6371c04e72e93ea60c01b6119f1565b61031f67ee14e1f48761bbd360c01b6119f1565b600060016000848152602001908152602001600020905061034a67caa442929505689460c01b6119f1565b61035e679420d89f1b76979760c01b6119f1565b61037267f67a26b86e03f1ce60c01b6119f1565b8060050160009054906101000a900460ff166103c3576040517f08c379a00000000000000000000000000000000000000000000000000000000081526004016103ba906121f0565b60405180910390fd5b6103d767bc1b561856e1bb2060c01b6119f1565b6103eb67c95012cb0872997e60c01b6119f1565b6103ff67f74460fce0da2c1460c01b6119f1565b80600601544211915050919050565b60016020528060005260406000206000915090508060000154908060010160009054906101000a900473ffffffffffffffffffffffffffffffffffffffff169080600201549080600301549080600401805461046990612494565b80601f016020809104026020016040519081016040528092919081815260200182805461049590612494565b80156104e25780601f106104b7576101008083540402835291602001916104e2565b820191906000526020600020905b8154815290600101906020018083116104c557829003601f168201915b5050505050908060050160009054906101000a900460ff16908060060154908060070160009054906101000a900460ff16905088565b600061052e6777e81af5f2ed505b60c01b6119ee565b610542673d5616b4f20a127360c01b6119ee565b61055667b08e784a68b3996560c01b6119ee565b61056a67088ce5644b36b26460c01b6119ee565b60418251146040518060400160405280601881526020017f496e76616c6964207369676e6174757265206c656e6774680000000000000000815250906105e6576040517f08c379a00000000000000000000000000000000000000000000000000000000081526004016105dd91906121ae565b60405180910390fd5b506105fb679edcdb404c4ff42060c01b6119ee565b61060f67c31574ade32c2fb560c01b6119ee565b610623679e20085bd3e35c0f60c01b6119ee565b600061062e84611982565b905061064467ef2a1d01b9c7565060c01b6119ee565b61065867d07f7f3231c67ebf60c01b6119ee565b600080600061066686610816565b9250925092506106806712d9869cc597c15460c01b6119ee565b610694674f3f18bd4524b2b760c01b6119ee565b6000600185838686604051600081526020016040526040516106b99493929190612169565b6020604051602081039080840390855afa1580156106db573d6000803e3d6000fd5b5050506020604051035190506106fb67a89e09f5781ae31d60c01b6119ee565b61070f67ca0185a932095c2260c01b6119ee565b610723677926f4500a8164a760c01b6119ee565b600073ffffffffffffffffffffffffffffffffffffffff168173ffffffffffffffffffffffffffffffffffffffff1614156040518060400160405280601181526020017f496e76616c6964207369676e6174757265000000000000000000000000000000815250906107cb576040517f08c379a00000000000000000000000000000000000000000000000000000000081526004016107c291906121ae565b60405180910390fd5b506107e067590c7f966950afd160c01b6119ee565b6107f467c1adf0c5fab0240560c01b6119ee565b61080867445c5f67233d177160c01b6119ee565b809550505050505092915050565b600080600061082f674a9adbd96c529fd460c01b6119ee565b61084367ddf065094d30bf6e60c01b6119ee565b61085767c1b178296cd0713b60c01b6119ee565b61086b67d978e2c4796452c060c01b6119ee565b60418451146040518060400160405280601881526020017f496e76616c6964207369676e6174757265206c656e6774680000000000000000815250906108e7576040517f08c379a00000000000000000000000000000000000000000000000000000000081526004016108de91906121ae565b60405180910390fd5b506108fc67f7a32724d255ad2a60c01b6119ee565b6109106705c4d3c643c5b1c360c01b6119ee565b6020840151925060408401519150606084015160001a905061093c676a0a3195ef42940360c01b6119ee565b610950674041d37d8f33033560c01b6119ee565b9193909250565b60006020528060005260406000206000915090508060000154908060010160009054906101000a900473ffffffffffffffffffffffffffffffffffffffff16908060020154908060030154908060040180546109b290612494565b80601f01602080910402602001604051908101604052809291908181526020018280546109de90612494565b8015610a2b5780601f10610a0057610100808354040283529160200191610a2b565b820191906000526020600020905b815481529060010190602001808311610a0e57829003601f168201915b5050505050908060050160009054906101000a900460ff16905086565b6000610a5e6796df81748aa5776760c01b6119f1565b610a7267f9f67424a7df50bc60c01b6119f1565b610a8667f13b57fc6665732c60c01b6119f1565b6000600160008481526020019081526020016000209050610ab167e497ed2a71b5ea1d60c01b6119f1565b610ac567ddcfefee9ea83e9060c01b6119f1565b8060050160009054906101000a900460ff168015610af257508060070160009054906101000a900460ff16155b8015610b045750610b02836102e1565b155b915050919050565b610b2067f1e32a8efa92d7cf60c01b6119f4565b610b34672e44ad0c0a003f7360c01b6119f4565b610b4867ad04fc3a8cb5594860c01b6119f4565b610b5c67cdd507f08a2a2bee60c01b6119f4565b60008087815260200190815260200160002060050160009054906101000a900460ff16156040518060400160405280601781526020017f4f7264657220494420616c72656164792065786973747300000000000000000081525090610bf7576040517f08c379a0000000000000000000000000000000000000000000000000000000008152600401610bee91906121ae565b60405180910390fd5b50610c0c67fd6c7f545415ebc060c01b6119f4565b610c20677a464904c896452860c01b6119f4565b610c3467f20dd3a51066381f60c01b6119f4565b610c48677d9c77482fc3d51e60c01b6119f4565b600084116040518060400160405280602081526020017f416d6f756e74206d7573742062652067726561746572207468616e207a65726f81525090610cc3576040517f08c379a0000000000000000000000000000000000000000000000000000000008152600401610cba91906121ae565b60405180910390fd5b50610cd867eca81a09ebf8d42160c01b6119f4565b610cec672c0833d4c76c24f760c01b6119f4565b610d006768682f1dad78925260c01b6119f4565b610d1467dbc81c595b1780f660c01b6119f4565b600083116040518060400160405280601f81526020017f5072696365206d7573742062652067726561746572207468616e207a65726f0081525090610d8f576040517f08c379a0000000000000000000000000000000000000000000000000000000008152600401610d8691906121ae565b60405180910390fd5b50610da46712ae7fb4e118303460c01b6119f4565b610db867f2121135761f606060c01b6119f4565b610dcc67d9155468f2745ce260c01b6119f4565b6000829050610de567afbec24596df2a8260c01b6119f4565b610df96772f884d1ddbf029660c01b6119f4565b610e0d67c715ea265b7e3add60c01b6119f4565b602e8151146040518060400160405280601881526020017f496e76616c696420495046532068617368206c656e677468000000000000000081525090610e89576040517f08c379a0000000000000000000000000000000000000000000000000000000008152600401610e8091906121ae565b60405180910390fd5b50610e9e675a4ca1f2767ffc1a60c01b6119f4565b610eb26722669b47ad5e3e2c60c01b6119f4565b610ec667d0d3698b49e4cce460c01b6119f4565b6000610ed58888888888610269565b9050610eeb67babfd5bc696bd7fb60c01b6119f4565b610eff67e2ef5794623c746160c01b6119f4565b6000610f0b8285610518565b9050610f2167fc6772bc657b8c4c60c01b6119f4565b610f3567880aaa336ee0fa9d60c01b6119f4565b610f496746661592ebb273b260c01b6119f4565b8773ffffffffffffffffffffffffffffffffffffffff168173ffffffffffffffffffffffffffffffffffffffff1614610fb7576040517f08c379a0000000000000000000000000000000000000000000000000000000008152600401610fae906121d0565b60405180910390fd5b610fcb6731949fa012b7a90460c01b6119f4565b610fdf6782baf8fe0804ab2060c01b6119f4565b6040518060c001604052808a81526020018973ffffffffffffffffffffffffffffffffffffffff168152602001888152602001878152602001868152602001600115158152506000808b81526020019081526020016000206000820151816000015560208201518160010160006101000a81548173ffffffffffffffffffffffffffffffffffffffff021916908373ffffffffffffffffffffffffffffffffffffffff160217905550604082015181600201556060820151816003015560808201518160040190805190602001906110b89291906119f7565b5060a08201518160050160006101000a81548160ff0219169083151502179055509050506110f067f8bd3216bd351c8460c01b6119f4565b61110467bbc3cad465118ce260c01b6119f4565b8773ffffffffffffffffffffffffffffffffffffffff16897f684f2057bb3a8509f1f7339a074b4a45b6ec52d18ff42336bb628d15d256f30889898960405161114f939291906122fd565b60405180910390a361116b67139a5bb1bf81342f60c01b6119f4565b61117f67fb573c4fa30038fc60c01b6119f4565b887ff1af884d94e28fcbc40f458caa0f4480ed2be0ea44cd8f4a33439947b455b06360016040516111b091906120fc565b60405180910390a2505050505050505050565b6111d7677f97a2a083c452dc60c01b6119f1565b6111eb679ec0fa014536392d60c01b6119f1565b6111ff674b75eb51be1ca1ac60c01b6119f1565b61121367ece93b9c2b395a6e60c01b6119f1565b6001600088815260200190815260200160002060050160009054906101000a900460ff16156040518060400160405280601781526020017f4f7264657220494420616c726561647920657869737473000000000000000000815250906112af576040517f08c379a00000000000000000000000000000000000000000000000000000000081526004016112a691906121ae565b60405180910390fd5b506112c467a055bf072449816c60c01b6119f1565b6112d867890d2c4a4c016a4860c01b6119f1565b6112ec6709d733c1c044394360c01b6119f1565b6113006754366f3bb02217ef60c01b6119f1565b600085116040518060400160405280602081526020017f416d6f756e74206d7573742062652067726561746572207468616e207a65726f8152509061137b576040517f08c379a000000000000000000000000000000000000000000000000000000000815260040161137291906121ae565b60405180910390fd5b506113906797f87f73d011331d60c01b6119f1565b6113a467d2a4246cbf4af39c60c01b6119f1565b6113b867383f5b370983e67760c01b6119f1565b6113cc6779d9b1e1cd4ab1b260c01b6119f1565b600084116040518060400160405280601f81526020017f5072696365206d7573742062652067726561746572207468616e207a65726f0081525090611447576040517f08c379a000000000000000000000000000000000000000000000000000000000815260040161143e91906121ae565b60405180910390fd5b5061145c678f8ed41aa1a9dd1a60c01b6119f1565b61147067d97bfc946887453d60c01b6119f1565b61148467499f51e36feb015d60c01b6119f1565b600083905061149d674fce59aa73149fdc60c01b6119f1565b6114b1675db9767db8acc0e960c01b6119f1565b6114c567e0729c584f591cad60c01b6119f1565b602e8151146040518060400160405280601881526020017f496e76616c696420495046532068617368206c656e677468000000000000000081525090611541576040517f08c379a000000000000000000000000000000000000000000000000000000000815260040161153891906121ae565b60405180910390fd5b5061155667ddda81eaac37cdd560c01b6119f1565b61156a674e65583fc8fbc83660c01b6119f1565b61157e671cebf569cffeed2b60c01b6119f1565b611592672f59beca572c6f3960c01b6119f1565b4282116040518060400160405280601181526020017f4f726465722068617320657870697265640000000000000000000000000000008152509061160c576040517f08c379a000000000000000000000000000000000000000000000000000000000815260040161160391906121ae565b60405180910390fd5b50611621676e55940b8fcd99d160c01b6119f1565b6116356706d80068640181fb60c01b6119f1565b61164967259f5a0835a3382760c01b6119f1565b60006116588989898989610269565b905061166e6789fd1221c1e2adf760c01b6119f1565b611682674e65cf278e2d691d60c01b6119f1565b600061168e8286610518565b90506116a467b2f30363e05b450560c01b6119f1565b6116b867d4366be7a03e672b60c01b6119f1565b6116cc6719408638d7b6ef8e60c01b6119f1565b8873ffffffffffffffffffffffffffffffffffffffff168173ffffffffffffffffffffffffffffffffffffffff161461173a576040517f08c379a0000000000000000000000000000000000000000000000000000000008152600401611731906121d0565b60405180910390fd5b61174e670706d4ef6a2f5e3860c01b6119f1565b61176267d2e5ca1fa8c77cb060c01b6119f1565b6040518061010001604052808b81526020018a73ffffffffffffffffffffffffffffffffffffffff16815260200189815260200188815260200187815260200160011515815260200185815260200160001515815250600160008c81526020019081526020016000206000820151816000015560208201518160010160006101000a81548173ffffffffffffffffffffffffffffffffffffffff021916908373ffffffffffffffffffffffffffffffffffffffff1602179055506040820151816002015560608201518160030155608082015181600401908051906020019061184c9291906119f7565b5060a08201518160050160006101000a81548160ff02191690831515021790555060c0820151816006015560e08201518160070160006101000a81548160ff0219169083151502179055509050506118ae670bad95602079ca0260c01b6119f1565b6118c2678e3494ef6fb1be8360c01b6119f1565b8873ffffffffffffffffffffffffffffffffffffffff168a7f684f2057bb3a8509f1f7339a074b4a45b6ec52d18ff42336bb628d15d256f3088a8a8a60405161190d939291906122fd565b60405180910390a3611929675734bcdd7200bb6260c01b6119f1565b61193d679b82aac3fd2c68a060c01b6119f1565b897ff1af884d94e28fcbc40f458caa0f4480ed2be0ea44cd8f4a33439947b455b063600160405161196e91906120fc565b60405180910390a250505050505050505050565b6000611998670cc508dc319380d060c01b6119ee565b6119ac67cc0dd83dd45bbc0160c01b6119ee565b6119c067aa508dc83adf1ffd60c01b6119ee565b816040516020016119d19190612060565b604051602081830303815290604052805190602001209050919050565b50565b50565b50565b828054611a0390612494565b90600052602060002090601f016020900481019282611a255760008555611a6c565b82601f10611a3e57805160ff1916838001178555611a6c565b82800160010185558215611a6c579182015b82811115611a6b578251825591602001919060010190611a50565b5b509050611a799190611a7d565b5090565b5b80821115611a96576000816000905550600101611a7e565b5090565b6000611aad611aa88461236c565b61233b565b905082815260208101848484011115611ac557600080fd5b611ad0848285612452565b509392505050565b6000611aeb611ae68461239c565b61233b565b905082815260208101848484011115611b0357600080fd5b611b0e848285612452565b509392505050565b600081359050611b258161257a565b92915050565b600081359050611b3a81612591565b92915050565b600082601f830112611b5157600080fd5b8135611b61848260208601611a9a565b91505092915050565b600082601f830112611b7b57600080fd5b8135611b8b848260208601611ad8565b91505092915050565b600081359050611ba3816125a8565b92915050565b600060208284031215611bbb57600080fd5b6000611bc984828501611b2b565b91505092915050565b60008060408385031215611be557600080fd5b6000611bf385828601611b2b565b925050602083013567ffffffffffffffff811115611c1057600080fd5b611c1c85828601611b40565b9150509250929050565b600060208284031215611c3857600080fd5b600082013567ffffffffffffffff811115611c5257600080fd5b611c5e84828501611b40565b91505092915050565b600060208284031215611c7957600080fd5b6000611c8784828501611b94565b91505092915050565b600080600080600060a08688031215611ca857600080fd5b6000611cb688828901611b94565b9550506020611cc788828901611b16565b9450506040611cd888828901611b94565b9350506060611ce988828901611b94565b925050608086013567ffffffffffffffff811115611d0657600080fd5b611d1288828901611b6a565b9150509295509295909350565b60008060008060008060c08789031215611d3857600080fd5b6000611d4689828a01611b94565b9650506020611d5789828a01611b16565b9550506040611d6889828a01611b94565b9450506060611d7989828a01611b94565b935050608087013567ffffffffffffffff811115611d9657600080fd5b611da289828a01611b6a565b92505060a087013567ffffffffffffffff811115611dbf57600080fd5b611dcb89828a01611b40565b9150509295509295509295565b600080600080600080600060e0888a031215611df357600080fd5b6000611e018a828b01611b94565b9750506020611e128a828b01611b16565b9650506040611e238a828b01611b94565b9550506060611e348a828b01611b94565b945050608088013567ffffffffffffffff811115611e5157600080fd5b611e5d8a828b01611b6a565b93505060a088013567ffffffffffffffff811115611e7a57600080fd5b611e868a828b01611b40565b92505060c0611e978a828b01611b94565b91505092959891949750929550565b611eaf816123f3565b82525050565b611ec6611ec1826123f3565b6124c6565b82525050565b611ed581612405565b82525050565b611ee481612411565b82525050565b611efb611ef682612411565b6124d8565b82525050565b6000611f0c826123cc565b611f1681856123d7565b9350611f26818560208601612461565b611f2f8161255c565b840191505092915050565b6000611f45826123cc565b611f4f81856123e8565b9350611f5f818560208601612461565b80840191505092915050565b6000611f78601c836123e8565b91507f19457468657265756d205369676e6564204d6573736167653a0a3332000000006000830152601c82019050919050565b6000611fb86011836123d7565b91507f496e76616c6964207369676e61747572650000000000000000000000000000006000830152602082019050919050565b6000611ff86014836123d7565b91507f4f7264657220646f6573206e6f742065786973740000000000000000000000006000830152602082019050919050565b6120348161243b565b82525050565b61204b6120468261243b565b6124f4565b82525050565b61205a81612445565b82525050565b600061206b82611f6b565b91506120778284611eea565b60208201915081905092915050565b6000612092828861203a565b6020820191506120a28287611eb5565b6014820191506120b2828661203a565b6020820191506120c2828561203a565b6020820191506120d28284611f3a565b91508190509695505050505050565b60006020820190506120f66000830184611ea6565b92915050565b60006020820190506121116000830184611ecc565b92915050565b600060208201905061212c6000830184611edb565b92915050565b60006060820190506121476000830186611edb565b6121546020830185611edb565b6121616040830184612051565b949350505050565b600060808201905061217e6000830187611edb565b61218b6020830186612051565b6121986040830185611edb565b6121a56060830184611edb565b95945050505050565b600060208201905081810360008301526121c88184611f01565b905092915050565b600060208201905081810360008301526121e981611fab565b9050919050565b6000602082019050818103600083015261220981611feb565b9050919050565b600060c082019050612225600083018961202b565b6122326020830188611ea6565b61223f604083018761202b565b61224c606083018661202b565b818103608083015261225e8185611f01565b905061226d60a0830184611ecc565b979650505050505050565b60006101008201905061228e600083018b61202b565b61229b602083018a611ea6565b6122a8604083018961202b565b6122b5606083018861202b565b81810360808301526122c78187611f01565b90506122d660a0830186611ecc565b6122e360c083018561202b565b6122f060e0830184611ecc565b9998505050505050505050565b6000606082019050612312600083018661202b565b61231f602083018561202b565b81810360408301526123318184611f01565b9050949350505050565b6000604051905081810181811067ffffffffffffffff821117156123625761236161252d565b5b8060405250919050565b600067ffffffffffffffff8211156123875761238661252d565b5b601f19601f8301169050602081019050919050565b600067ffffffffffffffff8211156123b7576123b661252d565b5b601f19601f8301169050602081019050919050565b600081519050919050565b600082825260208201905092915050565b600081905092915050565b60006123fe8261241b565b9050919050565b60008115159050919050565b6000819050919050565b600073ffffffffffffffffffffffffffffffffffffffff82169050919050565b6000819050919050565b600060ff82169050919050565b82818337600083830152505050565b60005b8381101561247f578082015181840152602081019050612464565b8381111561248e576000848401525b50505050565b600060028204905060018216806124ac57607f821691505b602082108114156124c0576124bf6124fe565b5b50919050565b60006124d1826124e2565b9050919050565b6000819050919050565b60006124ed8261256d565b9050919050565b6000819050919050565b7f4e487b7100000000000000000000000000000000000000000000000000000000600052602260045260246000fd5b7f4e487b7100000000000000000000000000000000000000000000000000000000600052604160045260246000fd5b6000601f19601f8301169050919050565b60008160601b9050919050565b612583816123f3565b811461258e57600080fd5b50565b61259a81612411565b81146125a557600080fd5b50565b6125b18161243b565b81146125bc57600080fd5b5056fea26469706673582212200bb566a125833300c95a32bb367c9d531288cfe93ace8a927eea92e75f6e225464736f6c63430008000033","opcodes":"PUSH1 0x80 PUSH1 0x40 MSTORE CALLVALUE DUP1 ISZERO PUSH2 0x10 JUMPI PUSH1 0x0 DUP1 REVERT JUMPDEST POP PUSH2 0x25F5 DUP1 PUSH2 0x20 PUSH1 0x0 CODECOPY PUSH1 0x0 RETURN INVALID PUSH1 0x80 PUSH1 0x40 MSTORE CALLVALUE DUP1 ISZERO PUSH2 0x10 JUMPI PUSH1 0x0 DUP1 REVERT JUMPDEST POP PUSH1 0x4 CALLDATASIZE LT PUSH2 0x9E JUMPI PUSH1 0x0 CALLDATALOAD PUSH1 0xE0 SHR DUP1 PUSH4 0xA85C38EF GT PUSH2 0x66 JUMPI DUP1 PUSH4 0xA85C38EF EQ PUSH2 0x19C JUMPI DUP1 PUSH4 0xD6E43585 EQ PUSH2 0x1D1 JUMPI DUP1 PUSH4 0xED1E9AC5 EQ PUSH2 0x201 JUMPI DUP1 PUSH4 0xF821622F EQ PUSH2 0x21D JUMPI DUP1 PUSH4 0xFA540801 EQ PUSH2 0x239 JUMPI PUSH2 0x9E JUMP JUMPDEST DUP1 PUSH4 0x3B6877E7 EQ PUSH2 0xA3 JUMPI DUP1 PUSH4 0x59C69313 EQ PUSH2 0xD3 JUMPI DUP1 PUSH4 0x93FB2545 EQ PUSH2 0x103 JUMPI DUP1 PUSH4 0x97ABA7F9 EQ PUSH2 0x13A JUMPI DUP1 PUSH4 0xA7BB5803 EQ PUSH2 0x16A JUMPI JUMPDEST PUSH1 0x0 DUP1 REVERT JUMPDEST PUSH2 0xBD PUSH1 0x4 DUP1 CALLDATASIZE SUB DUP2 ADD SWAP1 PUSH2 0xB8 SWAP2 SWAP1 PUSH2 0x1C90 JUMP JUMPDEST PUSH2 0x269 JUMP JUMPDEST PUSH1 0x40 MLOAD PUSH2 0xCA SWAP2 SWAP1 PUSH2 0x2117 JUMP JUMPDEST PUSH1 0x40 MLOAD DUP1 SWAP2 SUB SWAP1 RETURN JUMPDEST PUSH2 0xED PUSH1 0x4 DUP1 CALLDATASIZE SUB DUP2 ADD SWAP1 PUSH2 0xE8 SWAP2 SWAP1 PUSH2 0x1C67 JUMP JUMPDEST PUSH2 0x2E1 JUMP JUMPDEST PUSH1 0x40 MLOAD PUSH2 0xFA SWAP2 SWAP1 PUSH2 0x20FC JUMP JUMPDEST PUSH1 0x40 MLOAD DUP1 SWAP2 SUB SWAP1 RETURN JUMPDEST PUSH2 0x11D PUSH1 0x4 DUP1 CALLDATASIZE SUB DUP2 ADD SWAP1 PUSH2 0x118 SWAP2 SWAP1 PUSH2 0x1C67 JUMP JUMPDEST PUSH2 0x40E JUMP JUMPDEST PUSH1 0x40 MLOAD PUSH2 0x131 SWAP9 SWAP8 SWAP7 SWAP6 SWAP5 SWAP4 SWAP3 SWAP2 SWAP1 PUSH2 0x2278 JUMP JUMPDEST PUSH1 0x40 MLOAD DUP1 SWAP2 SUB SWAP1 RETURN JUMPDEST PUSH2 0x154 PUSH1 0x4 DUP1 CALLDATASIZE SUB DUP2 ADD SWAP1 PUSH2 0x14F SWAP2 SWAP1 PUSH2 0x1BD2 JUMP JUMPDEST PUSH2 0x518 JUMP JUMPDEST PUSH1 0x40 MLOAD PUSH2 0x161 SWAP2 SWAP1 PUSH2 0x20E1 JUMP JUMPDEST PUSH1 0x40 MLOAD DUP1 SWAP2 SUB SWAP1 RETURN JUMPDEST PUSH2 0x184 PUSH1 0x4 DUP1 CALLDATASIZE SUB DUP2 ADD SWAP1 PUSH2 0x17F SWAP2 SWAP1 PUSH2 0x1C26 JUMP JUMPDEST PUSH2 0x816 JUMP JUMPDEST PUSH1 0x40 MLOAD PUSH2 0x193 SWAP4 SWAP3 SWAP2 SWAP1 PUSH2 0x2132 JUMP JUMPDEST PUSH1 0x40 MLOAD DUP1 SWAP2 SUB SWAP1 RETURN JUMPDEST PUSH2 0x1B6 PUSH1 0x4 DUP1 CALLDATASIZE SUB DUP2 ADD SWAP1 PUSH2 0x1B1 SWAP2 SWAP1 PUSH2 0x1C67 JUMP JUMPDEST PUSH2 0x957 JUMP JUMPDEST PUSH1 0x40 MLOAD PUSH2 0x1C8 SWAP7 SWAP6 SWAP5 SWAP4 SWAP3 SWAP2 SWAP1 PUSH2 0x2210 JUMP JUMPDEST PUSH1 0x40 MLOAD DUP1 SWAP2 SUB SWAP1 RETURN JUMPDEST PUSH2 0x1EB PUSH1 0x4 DUP1 CALLDATASIZE SUB DUP2 ADD SWAP1 PUSH2 0x1E6 SWAP2 SWAP1 PUSH2 0x1C67 JUMP JUMPDEST PUSH2 0xA48 JUMP JUMPDEST PUSH1 0x40 MLOAD PUSH2 0x1F8 SWAP2 SWAP1 PUSH2 0x20FC JUMP JUMPDEST PUSH1 0x40 MLOAD DUP1 SWAP2 SUB SWAP1 RETURN JUMPDEST PUSH2 0x21B PUSH1 0x4 DUP1 CALLDATASIZE SUB DUP2 ADD SWAP1 PUSH2 0x216 SWAP2 SWAP1 PUSH2 0x1D1F JUMP JUMPDEST PUSH2 0xB0C JUMP JUMPDEST STOP JUMPDEST PUSH2 0x237 PUSH1 0x4 DUP1 CALLDATASIZE SUB DUP2 ADD SWAP1 PUSH2 0x232 SWAP2 SWAP1 PUSH2 0x1DD8 JUMP JUMPDEST PUSH2 0x11C3 JUMP JUMPDEST STOP JUMPDEST PUSH2 0x253 PUSH1 0x4 DUP1 CALLDATASIZE SUB DUP2 ADD SWAP1 PUSH2 0x24E SWAP2 SWAP1 PUSH2 0x1BA9 JUMP JUMPDEST PUSH2 0x1982 JUMP JUMPDEST PUSH1 0x40 MLOAD PUSH2 0x260 SWAP2 SWAP1 PUSH2 0x2117 JUMP JUMPDEST PUSH1 0x40 MLOAD DUP1 SWAP2 SUB SWAP1 RETURN JUMPDEST PUSH1 0x0 PUSH2 0x27F PUSH8 0xBC0E72D5AA67A1D7 PUSH1 0xC0 SHL PUSH2 0x19EE JUMP JUMPDEST PUSH2 0x293 PUSH8 0x6AADD7EAF4FAA0E6 PUSH1 0xC0 SHL PUSH2 0x19EE JUMP JUMPDEST PUSH2 0x2A7 PUSH8 0x74D246F9CF16EAFB PUSH1 0xC0 SHL PUSH2 0x19EE JUMP JUMPDEST DUP6 DUP6 DUP6 DUP6 DUP6 PUSH1 0x40 MLOAD PUSH1 0x20 ADD PUSH2 0x2C0 SWAP6 SWAP5 SWAP4 SWAP3 SWAP2 SWAP1 PUSH2 0x2086 JUMP JUMPDEST PUSH1 0x40 MLOAD PUSH1 0x20 DUP2 DUP4 SUB SUB DUP2 MSTORE SWAP1 PUSH1 0x40 MSTORE DUP1 MLOAD SWAP1 PUSH1 0x20 ADD KECCAK256 SWAP1 POP SWAP6 SWAP5 POP POP POP POP POP JUMP JUMPDEST PUSH1 0x0 PUSH2 0x2F7 PUSH8 0xF1ADC1B3E1371DA5 PUSH1 0xC0 SHL PUSH2 0x19F1 JUMP JUMPDEST PUSH2 0x30B PUSH8 0xA6371C04E72E93EA PUSH1 0xC0 SHL PUSH2 0x19F1 JUMP JUMPDEST PUSH2 0x31F PUSH8 0xEE14E1F48761BBD3 PUSH1 0xC0 SHL PUSH2 0x19F1 JUMP JUMPDEST PUSH1 0x0 PUSH1 0x1 PUSH1 0x0 DUP5 DUP2 MSTORE PUSH1 0x20 ADD SWAP1 DUP2 MSTORE PUSH1 0x20 ADD PUSH1 0x0 KECCAK256 SWAP1 POP PUSH2 0x34A PUSH8 0xCAA4429295056894 PUSH1 0xC0 SHL PUSH2 0x19F1 JUMP JUMPDEST PUSH2 0x35E PUSH8 0x9420D89F1B769797 PUSH1 0xC0 SHL PUSH2 0x19F1 JUMP JUMPDEST PUSH2 0x372 PUSH8 0xF67A26B86E03F1CE PUSH1 0xC0 SHL PUSH2 0x19F1 JUMP JUMPDEST DUP1 PUSH1 0x5 ADD PUSH1 0x0 SWAP1 SLOAD SWAP1 PUSH2 0x100 EXP SWAP1 DIV PUSH1 0xFF AND PUSH2 0x3C3 JUMPI PUSH1 0x40 MLOAD PUSH32 0x8C379A000000000000000000000000000000000000000000000000000000000 DUP2 MSTORE PUSH1 0x4 ADD PUSH2 0x3BA SWAP1 PUSH2 0x21F0 JUMP JUMPDEST PUSH1 0x40 MLOAD DUP1 SWAP2 SUB SWAP1 REVERT JUMPDEST PUSH2 0x3D7 PUSH8 0xBC1B561856E1BB20 PUSH1 0xC0 SHL PUSH2 0x19F1 JUMP JUMPDEST PUSH2 0x3EB PUSH8 0xC95012CB0872997E PUSH1 0xC0 SHL PUSH2 0x19F1 JUMP JUMPDEST PUSH2 0x3FF PUSH8 0xF74460FCE0DA2C14 PUSH1 0xC0 SHL PUSH2 0x19F1 JUMP JUMPDEST DUP1 PUSH1 0x6 ADD SLOAD TIMESTAMP GT SWAP2 POP POP SWAP2 SWAP1 POP JUMP JUMPDEST PUSH1 0x1 PUSH1 0x20 MSTORE DUP1 PUSH1 0x0 MSTORE PUSH1 0x40 PUSH1 0x0 KECCAK256 PUSH1 0x0 SWAP2 POP SWAP1 POP DUP1 PUSH1 0x0 ADD SLOAD SWAP1 DUP1 PUSH1 0x1 ADD PUSH1 0x0 SWAP1 SLOAD SWAP1 PUSH2 0x100 EXP SWAP1 DIV PUSH20 0xFFFFFFFFFFFFFFFFFFFFFFFFFFFFFFFFFFFFFFFF AND SWAP1 DUP1 PUSH1 0x2 ADD SLOAD SWAP1 DUP1 PUSH1 0x3 ADD SLOAD SWAP1 DUP1 PUSH1 0x4 ADD DUP1 SLOAD PUSH2 0x469 SWAP1 PUSH2 0x2494 JUMP JUMPDEST DUP1 PUSH1 0x1F ADD PUSH1 0x20 DUP1 SWAP2 DIV MUL PUSH1 0x20 ADD PUSH1 0x40 MLOAD SWAP1 DUP2 ADD PUSH1 0x40 MSTORE DUP1 SWAP3 SWAP2 SWAP1 DUP2 DUP2 MSTORE PUSH1 0x20 ADD DUP3 DUP1 SLOAD PUSH2 0x495 SWAP1 PUSH2 0x2494 JUMP JUMPDEST DUP1 ISZERO PUSH2 0x4E2 JUMPI DUP1 PUSH1 0x1F LT PUSH2 0x4B7 JUMPI PUSH2 0x100 DUP1 DUP4 SLOAD DIV MUL DUP4 MSTORE SWAP2 PUSH1 0x20 ADD SWAP2 PUSH2 0x4E2 JUMP JUMPDEST DUP3 ADD SWAP2 SWAP1 PUSH1 0x0 MSTORE PUSH1 0x20 PUSH1 0x0 KECCAK256 SWAP1 JUMPDEST DUP2 SLOAD DUP2 MSTORE SWAP1 PUSH1 0x1 ADD SWAP1 PUSH1 0x20 ADD DUP1 DUP4 GT PUSH2 0x4C5 JUMPI DUP3 SWAP1 SUB PUSH1 0x1F AND DUP3 ADD SWAP2 JUMPDEST POP POP POP POP POP SWAP1 DUP1 PUSH1 0x5 ADD PUSH1 0x0 SWAP1 SLOAD SWAP1 PUSH2 0x100 EXP SWAP1 DIV PUSH1 0xFF AND SWAP1 DUP1 PUSH1 0x6 ADD SLOAD SWAP1 DUP1 PUSH1 0x7 ADD PUSH1 0x0 SWAP1 SLOAD SWAP1 PUSH2 0x100 EXP SWAP1 DIV PUSH1 0xFF AND SWAP1 POP DUP9 JUMP JUMPDEST PUSH1 0x0 PUSH2 0x52E PUSH8 0x77E81AF5F2ED505B PUSH1 0xC0 SHL PUSH2 0x19EE JUMP JUMPDEST PUSH2 0x542 PUSH8 0x3D5616B4F20A1273 PUSH1 0xC0 SHL PUSH2 0x19EE JUMP JUMPDEST PUSH2 0x556 PUSH8 0xB08E784A68B39965 PUSH1 0xC0 SHL PUSH2 0x19EE JUMP JUMPDEST PUSH2 0x56A PUSH8 0x88CE5644B36B264 PUSH1 0xC0 SHL PUSH2 0x19EE JUMP JUMPDEST PUSH1 0x41 DUP3 MLOAD EQ PUSH1 0x40 MLOAD DUP1 PUSH1 0x40 ADD PUSH1 0x40 MSTORE DUP1 PUSH1 0x18 DUP2 MSTORE PUSH1 0x20 ADD PUSH32 0x496E76616C6964207369676E6174757265206C656E6774680000000000000000 DUP2 MSTORE POP SWAP1 PUSH2 0x5E6 JUMPI PUSH1 0x40 MLOAD PUSH32 0x8C379A000000000000000000000000000000000000000000000000000000000 DUP2 MSTORE PUSH1 0x4 ADD PUSH2 0x5DD SWAP2 SWAP1 PUSH2 0x21AE JUMP JUMPDEST PUSH1 0x40 MLOAD DUP1 SWAP2 SUB SWAP1 REVERT JUMPDEST POP PUSH2 0x5FB PUSH8 0x9EDCDB404C4FF420 PUSH1 0xC0 SHL PUSH2 0x19EE JUMP JUMPDEST PUSH2 0x60F PUSH8 0xC31574ADE32C2FB5 PUSH1 0xC0 SHL PUSH2 0x19EE JUMP JUMPDEST PUSH2 0x623 PUSH8 0x9E20085BD3E35C0F PUSH1 0xC0 SHL PUSH2 0x19EE JUMP JUMPDEST PUSH1 0x0 PUSH2 0x62E DUP5 PUSH2 0x1982 JUMP JUMPDEST SWAP1 POP PUSH2 0x644 PUSH8 0xEF2A1D01B9C75650 PUSH1 0xC0 SHL PUSH2 0x19EE JUMP JUMPDEST PUSH2 0x658 PUSH8 0xD07F7F3231C67EBF PUSH1 0xC0 SHL PUSH2 0x19EE JUMP JUMPDEST PUSH1 0x0 DUP1 PUSH1 0x0 PUSH2 0x666 DUP7 PUSH2 0x816 JUMP JUMPDEST SWAP3 POP SWAP3 POP SWAP3 POP PUSH2 0x680 PUSH8 0x12D9869CC597C154 PUSH1 0xC0 SHL PUSH2 0x19EE JUMP JUMPDEST PUSH2 0x694 PUSH8 0x4F3F18BD4524B2B7 PUSH1 0xC0 SHL PUSH2 0x19EE JUMP JUMPDEST PUSH1 0x0 PUSH1 0x1 DUP6 DUP4 DUP7 DUP7 PUSH1 0x40 MLOAD PUSH1 0x0 DUP2 MSTORE PUSH1 0x20 ADD PUSH1 0x40 MSTORE PUSH1 0x40 MLOAD PUSH2 0x6B9 SWAP5 SWAP4 SWAP3 SWAP2 SWAP1 PUSH2 0x2169 JUMP JUMPDEST PUSH1 0x20 PUSH1 0x40 MLOAD PUSH1 0x20 DUP2 SUB SWAP1 DUP1 DUP5 SUB SWAP1 DUP6 GAS STATICCALL ISZERO DUP1 ISZERO PUSH2 0x6DB JUMPI RETURNDATASIZE PUSH1 0x0 DUP1 RETURNDATACOPY RETURNDATASIZE PUSH1 0x0 REVERT JUMPDEST POP POP POP PUSH1 0x20 PUSH1 0x40 MLOAD SUB MLOAD SWAP1 POP PUSH2 0x6FB PUSH8 0xA89E09F5781AE31D PUSH1 0xC0 SHL PUSH2 0x19EE JUMP JUMPDEST PUSH2 0x70F PUSH8 0xCA0185A932095C22 PUSH1 0xC0 SHL PUSH2 0x19EE JUMP JUMPDEST PUSH2 0x723 PUSH8 0x7926F4500A8164A7 PUSH1 0xC0 SHL PUSH2 0x19EE JUMP JUMPDEST PUSH1 0x0 PUSH20 0xFFFFFFFFFFFFFFFFFFFFFFFFFFFFFFFFFFFFFFFF AND DUP2 PUSH20 0xFFFFFFFFFFFFFFFFFFFFFFFFFFFFFFFFFFFFFFFF AND EQ ISZERO PUSH1 0x40 MLOAD DUP1 PUSH1 0x40 ADD PUSH1 0x40 MSTORE DUP1 PUSH1 0x11 DUP2 MSTORE PUSH1 0x20 ADD PUSH32 0x496E76616C6964207369676E6174757265000000000000000000000000000000 DUP2 MSTORE POP SWAP1 PUSH2 0x7CB JUMPI PUSH1 0x40 MLOAD PUSH32 0x8C379A000000000000000000000000000000000000000000000000000000000 DUP2 MSTORE PUSH1 0x4 ADD PUSH2 0x7C2 SWAP2 SWAP1 PUSH2 0x21AE JUMP JUMPDEST PUSH1 0x40 MLOAD DUP1 SWAP2 SUB SWAP1 REVERT JUMPDEST POP PUSH2 0x7E0 PUSH8 0x590C7F966950AFD1 PUSH1 0xC0 SHL PUSH2 0x19EE JUMP JUMPDEST PUSH2 0x7F4 PUSH8 0xC1ADF0C5FAB02405 PUSH1 0xC0 SHL PUSH2 0x19EE JUMP JUMPDEST PUSH2 0x808 PUSH8 0x445C5F67233D1771 PUSH1 0xC0 SHL PUSH2 0x19EE JUMP JUMPDEST DUP1 SWAP6 POP POP POP POP POP POP SWAP3 SWAP2 POP POP JUMP JUMPDEST PUSH1 0x0 DUP1 PUSH1 0x0 PUSH2 0x82F PUSH8 0x4A9ADBD96C529FD4 PUSH1 0xC0 SHL PUSH2 0x19EE JUMP JUMPDEST PUSH2 0x843 PUSH8 0xDDF065094D30BF6E PUSH1 0xC0 SHL PUSH2 0x19EE JUMP JUMPDEST PUSH2 0x857 PUSH8 0xC1B178296CD0713B PUSH1 0xC0 SHL PUSH2 0x19EE JUMP JUMPDEST PUSH2 0x86B PUSH8 0xD978E2C4796452C0 PUSH1 0xC0 SHL PUSH2 0x19EE JUMP JUMPDEST PUSH1 0x41 DUP5 MLOAD EQ PUSH1 0x40 MLOAD DUP1 PUSH1 0x40 ADD PUSH1 0x40 MSTORE DUP1 PUSH1 0x18 DUP2 MSTORE PUSH1 0x20 ADD PUSH32 0x496E76616C6964207369676E6174757265206C656E6774680000000000000000 DUP2 MSTORE POP SWAP1 PUSH2 0x8E7 JUMPI PUSH1 0x40 MLOAD PUSH32 0x8C379A000000000000000000000000000000000000000000000000000000000 DUP2 MSTORE PUSH1 0x4 ADD PUSH2 0x8DE SWAP2 SWAP1 PUSH2 0x21AE JUMP JUMPDEST PUSH1 0x40 MLOAD DUP1 SWAP2 SUB SWAP1 REVERT JUMPDEST POP PUSH2 0x8FC PUSH8 0xF7A32724D255AD2A PUSH1 0xC0 SHL PUSH2 0x19EE JUMP JUMPDEST PUSH2 0x910 PUSH8 0x5C4D3C643C5B1C3 PUSH1 0xC0 SHL PUSH2 0x19EE JUMP JUMPDEST PUSH1 0x20 DUP5 ADD MLOAD SWAP3 POP PUSH1 0x40 DUP5 ADD MLOAD SWAP2 POP PUSH1 0x60 DUP5 ADD MLOAD PUSH1 0x0 BYTE SWAP1 POP PUSH2 0x93C PUSH8 0x6A0A3195EF429403 PUSH1 0xC0 SHL PUSH2 0x19EE JUMP JUMPDEST PUSH2 0x950 PUSH8 0x4041D37D8F330335 PUSH1 0xC0 SHL PUSH2 0x19EE JUMP JUMPDEST SWAP2 SWAP4 SWAP1 SWAP3 POP JUMP JUMPDEST PUSH1 0x0 PUSH1 0x20 MSTORE DUP1 PUSH1 0x0 MSTORE PUSH1 0x40 PUSH1 0x0 KECCAK256 PUSH1 0x0 SWAP2 POP SWAP1 POP DUP1 PUSH1 0x0 ADD SLOAD SWAP1 DUP1 PUSH1 0x1 ADD PUSH1 0x0 SWAP1 SLOAD SWAP1 PUSH2 0x100 EXP SWAP1 DIV PUSH20 0xFFFFFFFFFFFFFFFFFFFFFFFFFFFFFFFFFFFFFFFF AND SWAP1 DUP1 PUSH1 0x2 ADD SLOAD SWAP1 DUP1 PUSH1 0x3 ADD SLOAD SWAP1 DUP1 PUSH1 0x4 ADD DUP1 SLOAD PUSH2 0x9B2 SWAP1 PUSH2 0x2494 JUMP JUMPDEST DUP1 PUSH1 0x1F ADD PUSH1 0x20 DUP1 SWAP2 DIV MUL PUSH1 0x20 ADD PUSH1 0x40 MLOAD SWAP1 DUP2 ADD PUSH1 0x40 MSTORE DUP1 SWAP3 SWAP2 SWAP1 DUP2 DUP2 MSTORE PUSH1 0x20 ADD DUP3 DUP1 SLOAD PUSH2 0x9DE SWAP1 PUSH2 0x2494 JUMP JUMPDEST DUP1 ISZERO PUSH2 0xA2B JUMPI DUP1 PUSH1 0x1F LT PUSH2 0xA00 JUMPI PUSH2 0x100 DUP1 DUP4 SLOAD DIV MUL DUP4 MSTORE SWAP2 PUSH1 0x20 ADD SWAP2 PUSH2 0xA2B JUMP JUMPDEST DUP3 ADD SWAP2 SWAP1 PUSH1 0x0 MSTORE PUSH1 0x20 PUSH1 0x0 KECCAK256 SWAP1 JUMPDEST DUP2 SLOAD DUP2 MSTORE SWAP1 PUSH1 0x1 ADD SWAP1 PUSH1 0x20 ADD DUP1 DUP4 GT PUSH2 0xA0E JUMPI DUP3 SWAP1 SUB PUSH1 0x1F AND DUP3 ADD SWAP2 JUMPDEST POP POP POP POP POP SWAP1 DUP1 PUSH1 0x5 ADD PUSH1 0x0 SWAP1 SLOAD SWAP1 PUSH2 0x100 EXP SWAP1 DIV PUSH1 0xFF AND SWAP1 POP DUP7 JUMP JUMPDEST PUSH1 0x0 PUSH2 0xA5E PUSH8 0x96DF81748AA57767 PUSH1 0xC0 SHL PUSH2 0x19F1 JUMP JUMPDEST PUSH2 0xA72 PUSH8 0xF9F67424A7DF50BC PUSH1 0xC0 SHL PUSH2 0x19F1 JUMP JUMPDEST PUSH2 0xA86 PUSH8 0xF13B57FC6665732C PUSH1 0xC0 SHL PUSH2 0x19F1 JUMP JUMPDEST PUSH1 0x0 PUSH1 0x1 PUSH1 0x0 DUP5 DUP2 MSTORE PUSH1 0x20 ADD SWAP1 DUP2 MSTORE PUSH1 0x20 ADD PUSH1 0x0 KECCAK256 SWAP1 POP PUSH2 0xAB1 PUSH8 0xE497ED2A71B5EA1D PUSH1 0xC0 SHL PUSH2 0x19F1 JUMP JUMPDEST PUSH2 0xAC5 PUSH8 0xDDCFEFEE9EA83E90 PUSH1 0xC0 SHL PUSH2 0x19F1 JUMP JUMPDEST DUP1 PUSH1 0x5 ADD PUSH1 0x0 SWAP1 SLOAD SWAP1 PUSH2 0x100 EXP SWAP1 DIV PUSH1 0xFF AND DUP1 ISZERO PUSH2 0xAF2 JUMPI POP DUP1 PUSH1 0x7 ADD PUSH1 0x0 SWAP1 SLOAD SWAP1 PUSH2 0x100 EXP SWAP1 DIV PUSH1 0xFF AND ISZERO JUMPDEST DUP1 ISZERO PUSH2 0xB04 JUMPI POP PUSH2 0xB02 DUP4 PUSH2 0x2E1 JUMP JUMPDEST ISZERO JUMPDEST SWAP2 POP POP SWAP2 SWAP1 POP JUMP JUMPDEST PUSH2 0xB20 PUSH8 0xF1E32A8EFA92D7CF PUSH1 0xC0 SHL PUSH2 0x19F4 JUMP JUMPDEST PUSH2 0xB34 PUSH8 0x2E44AD0C0A003F73 PUSH1 0xC0 SHL PUSH2 0x19F4 JUMP JUMPDEST PUSH2 0xB48 PUSH8 0xAD04FC3A8CB55948 PUSH1 0xC0 SHL PUSH2 0x19F4 JUMP JUMPDEST PUSH2 0xB5C PUSH8 0xCDD507F08A2A2BEE PUSH1 0xC0 SHL PUSH2 0x19F4 JUMP JUMPDEST PUSH1 0x0 DUP1 DUP8 DUP2 MSTORE PUSH1 0x20 ADD SWAP1 DUP2 MSTORE PUSH1 0x20 ADD PUSH1 0x0 KECCAK256 PUSH1 0x5 ADD PUSH1 0x0 SWAP1 SLOAD SWAP1 PUSH2 0x100 EXP SWAP1 DIV PUSH1 0xFF AND ISZERO PUSH1 0x40 MLOAD DUP1 PUSH1 0x40 ADD PUSH1 0x40 MSTORE DUP1 PUSH1 0x17 DUP2 MSTORE PUSH1 0x20 ADD PUSH32 0x4F7264657220494420616C726561647920657869737473000000000000000000 DUP2 MSTORE POP SWAP1 PUSH2 0xBF7 JUMPI PUSH1 0x40 MLOAD PUSH32 0x8C379A000000000000000000000000000000000000000000000000000000000 DUP2 MSTORE PUSH1 0x4 ADD PUSH2 0xBEE SWAP2 SWAP1 PUSH2 0x21AE JUMP JUMPDEST PUSH1 0x40 MLOAD DUP1 SWAP2 SUB SWAP1 REVERT JUMPDEST POP PUSH2 0xC0C PUSH8 0xFD6C7F545415EBC0 PUSH1 0xC0 SHL PUSH2 0x19F4 JUMP JUMPDEST PUSH2 0xC20 PUSH8 0x7A464904C8964528 PUSH1 0xC0 SHL PUSH2 0x19F4 JUMP JUMPDEST PUSH2 0xC34 PUSH8 0xF20DD3A51066381F PUSH1 0xC0 SHL PUSH2 0x19F4 JUMP JUMPDEST PUSH2 0xC48 PUSH8 0x7D9C77482FC3D51E PUSH1 0xC0 SHL PUSH2 0x19F4 JUMP JUMPDEST PUSH1 0x0 DUP5 GT PUSH1 0x40 MLOAD DUP1 PUSH1 0x40 ADD PUSH1 0x40 MSTORE DUP1 PUSH1 0x20 DUP2 MSTORE PUSH1 0x20 ADD PUSH32 0x416D6F756E74206D7573742062652067726561746572207468616E207A65726F DUP2 MSTORE POP SWAP1 PUSH2 0xCC3 JUMPI PUSH1 0x40 MLOAD PUSH32 0x8C379A000000000000000000000000000000000000000000000000000000000 DUP2 MSTORE PUSH1 0x4 ADD PUSH2 0xCBA SWAP2 SWAP1 PUSH2 0x21AE JUMP JUMPDEST PUSH1 0x40 MLOAD DUP1 SWAP2 SUB SWAP1 REVERT JUMPDEST POP PUSH2 0xCD8 PUSH8 0xECA81A09EBF8D421 PUSH1 0xC0 SHL PUSH2 0x19F4 JUMP JUMPDEST PUSH2 0xCEC PUSH8 0x2C0833D4C76C24F7 PUSH1 0xC0 SHL PUSH2 0x19F4 JUMP JUMPDEST PUSH2 0xD00 PUSH8 0x68682F1DAD789252 PUSH1 0xC0 SHL PUSH2 0x19F4 JUMP JUMPDEST PUSH2 0xD14 PUSH8 0xDBC81C595B1780F6 PUSH1 0xC0 SHL PUSH2 0x19F4 JUMP JUMPDEST PUSH1 0x0 DUP4 GT PUSH1 0x40 MLOAD DUP1 PUSH1 0x40 ADD PUSH1 0x40 MSTORE DUP1 PUSH1 0x1F DUP2 MSTORE PUSH1 0x20 ADD PUSH32 0x5072696365206D7573742062652067726561746572207468616E207A65726F00 DUP2 MSTORE POP SWAP1 PUSH2 0xD8F JUMPI PUSH1 0x40 MLOAD PUSH32 0x8C379A000000000000000000000000000000000000000000000000000000000 DUP2 MSTORE PUSH1 0x4 ADD PUSH2 0xD86 SWAP2 SWAP1 PUSH2 0x21AE JUMP JUMPDEST PUSH1 0x40 MLOAD DUP1 SWAP2 SUB SWAP1 REVERT JUMPDEST POP PUSH2 0xDA4 PUSH8 0x12AE7FB4E1183034 PUSH1 0xC0 SHL PUSH2 0x19F4 JUMP JUMPDEST PUSH2 0xDB8 PUSH8 0xF2121135761F6060 PUSH1 0xC0 SHL PUSH2 0x19F4 JUMP JUMPDEST PUSH2 0xDCC PUSH8 0xD9155468F2745CE2 PUSH1 0xC0 SHL PUSH2 0x19F4 JUMP JUMPDEST PUSH1 0x0 DUP3 SWAP1 POP PUSH2 0xDE5 PUSH8 0xAFBEC24596DF2A82 PUSH1 0xC0 SHL PUSH2 0x19F4 JUMP JUMPDEST PUSH2 0xDF9 PUSH8 0x72F884D1DDBF0296 PUSH1 0xC0 SHL PUSH2 0x19F4 JUMP JUMPDEST PUSH2 0xE0D PUSH8 0xC715EA265B7E3ADD PUSH1 0xC0 SHL PUSH2 0x19F4 JUMP JUMPDEST PUSH1 0x2E DUP2 MLOAD EQ PUSH1 0x40 MLOAD DUP1 PUSH1 0x40 ADD PUSH1 0x40 MSTORE DUP1 PUSH1 0x18 DUP2 MSTORE PUSH1 0x20 ADD PUSH32 0x496E76616C696420495046532068617368206C656E6774680000000000000000 DUP2 MSTORE POP SWAP1 PUSH2 0xE89 JUMPI PUSH1 0x40 MLOAD PUSH32 0x8C379A000000000000000000000000000000000000000000000000000000000 DUP2 MSTORE PUSH1 0x4 ADD PUSH2 0xE80 SWAP2 SWAP1 PUSH2 0x21AE JUMP JUMPDEST PUSH1 0x40 MLOAD DUP1 SWAP2 SUB SWAP1 REVERT JUMPDEST POP PUSH2 0xE9E PUSH8 0x5A4CA1F2767FFC1A PUSH1 0xC0 SHL PUSH2 0x19F4 JUMP JUMPDEST PUSH2 0xEB2 PUSH8 0x22669B47AD5E3E2C PUSH1 0xC0 SHL PUSH2 0x19F4 JUMP JUMPDEST PUSH2 0xEC6 PUSH8 0xD0D3698B49E4CCE4 PUSH1 0xC0 SHL PUSH2 0x19F4 JUMP JUMPDEST PUSH1 0x0 PUSH2 0xED5 DUP9 DUP9 DUP9 DUP9 DUP9 PUSH2 0x269 JUMP JUMPDEST SWAP1 POP PUSH2 0xEEB PUSH8 0xBABFD5BC696BD7FB PUSH1 0xC0 SHL PUSH2 0x19F4 JUMP JUMPDEST PUSH2 0xEFF PUSH8 0xE2EF5794623C7461 PUSH1 0xC0 SHL PUSH2 0x19F4 JUMP JUMPDEST PUSH1 0x0 PUSH2 0xF0B DUP3 DUP6 PUSH2 0x518 JUMP JUMPDEST SWAP1 POP PUSH2 0xF21 PUSH8 0xFC6772BC657B8C4C PUSH1 0xC0 SHL PUSH2 0x19F4 JUMP JUMPDEST PUSH2 0xF35 PUSH8 0x880AAA336EE0FA9D PUSH1 0xC0 SHL PUSH2 0x19F4 JUMP JUMPDEST PUSH2 0xF49 PUSH8 0x46661592EBB273B2 PUSH1 0xC0 SHL PUSH2 0x19F4 JUMP JUMPDEST DUP8 PUSH20 0xFFFFFFFFFFFFFFFFFFFFFFFFFFFFFFFFFFFFFFFF AND DUP2 PUSH20 0xFFFFFFFFFFFFFFFFFFFFFFFFFFFFFFFFFFFFFFFF AND EQ PUSH2 0xFB7 JUMPI PUSH1 0x40 MLOAD PUSH32 0x8C379A000000000000000000000000000000000000000000000000000000000 DUP2 MSTORE PUSH1 0x4 ADD PUSH2 0xFAE SWAP1 PUSH2 0x21D0 JUMP JUMPDEST PUSH1 0x40 MLOAD DUP1 SWAP2 SUB SWAP1 REVERT JUMPDEST PUSH2 0xFCB PUSH8 0x31949FA012B7A904 PUSH1 0xC0 SHL PUSH2 0x19F4 JUMP JUMPDEST PUSH2 0xFDF PUSH8 0x82BAF8FE0804AB20 PUSH1 0xC0 SHL PUSH2 0x19F4 JUMP JUMPDEST PUSH1 0x40 MLOAD DUP1 PUSH1 0xC0 ADD PUSH1 0x40 MSTORE DUP1 DUP11 DUP2 MSTORE PUSH1 0x20 ADD DUP10 PUSH20 0xFFFFFFFFFFFFFFFFFFFFFFFFFFFFFFFFFFFFFFFF AND DUP2 MSTORE PUSH1 0x20 ADD DUP9 DUP2 MSTORE PUSH1 0x20 ADD DUP8 DUP2 MSTORE PUSH1 0x20 ADD DUP7 DUP2 MSTORE PUSH1 0x20 ADD PUSH1 0x1 ISZERO ISZERO DUP2 MSTORE POP PUSH1 0x0 DUP1 DUP12 DUP2 MSTORE PUSH1 0x20 ADD SWAP1 DUP2 MSTORE PUSH1 0x20 ADD PUSH1 0x0 KECCAK256 PUSH1 0x0 DUP3 ADD MLOAD DUP2 PUSH1 0x0 ADD SSTORE PUSH1 0x20 DUP3 ADD MLOAD DUP2 PUSH1 0x1 ADD PUSH1 0x0 PUSH2 0x100 EXP DUP2 SLOAD DUP2 PUSH20 0xFFFFFFFFFFFFFFFFFFFFFFFFFFFFFFFFFFFFFFFF MUL NOT AND SWAP1 DUP4 PUSH20 0xFFFFFFFFFFFFFFFFFFFFFFFFFFFFFFFFFFFFFFFF AND MUL OR SWAP1 SSTORE POP PUSH1 0x40 DUP3 ADD MLOAD DUP2 PUSH1 0x2 ADD SSTORE PUSH1 0x60 DUP3 ADD MLOAD DUP2 PUSH1 0x3 ADD SSTORE PUSH1 0x80 DUP3 ADD MLOAD DUP2 PUSH1 0x4 ADD SWAP1 DUP1 MLOAD SWAP1 PUSH1 0x20 ADD SWAP1 PUSH2 0x10B8 SWAP3 SWAP2 SWAP1 PUSH2 0x19F7 JUMP JUMPDEST POP PUSH1 0xA0 DUP3 ADD MLOAD DUP2 PUSH1 0x5 ADD PUSH1 0x0 PUSH2 0x100 EXP DUP2 SLOAD DUP2 PUSH1 0xFF MUL NOT AND SWAP1 DUP4 ISZERO ISZERO MUL OR SWAP1 SSTORE POP SWAP1 POP POP PUSH2 0x10F0 PUSH8 0xF8BD3216BD351C84 PUSH1 0xC0 SHL PUSH2 0x19F4 JUMP JUMPDEST PUSH2 0x1104 PUSH8 0xBBC3CAD465118CE2 PUSH1 0xC0 SHL PUSH2 0x19F4 JUMP JUMPDEST DUP8 PUSH20 0xFFFFFFFFFFFFFFFFFFFFFFFFFFFFFFFFFFFFFFFF AND DUP10 PUSH32 0x684F2057BB3A8509F1F7339A074B4A45B6EC52D18FF42336BB628D15D256F308 DUP10 DUP10 DUP10 PUSH1 0x40 MLOAD PUSH2 0x114F SWAP4 SWAP3 SWAP2 SWAP1 PUSH2 0x22FD JUMP JUMPDEST PUSH1 0x40 MLOAD DUP1 SWAP2 SUB SWAP1 LOG3 PUSH2 0x116B PUSH8 0x139A5BB1BF81342F PUSH1 0xC0 SHL PUSH2 0x19F4 JUMP JUMPDEST PUSH2 0x117F PUSH8 0xFB573C4FA30038FC PUSH1 0xC0 SHL PUSH2 0x19F4 JUMP JUMPDEST DUP9 PUSH32 0xF1AF884D94E28FCBC40F458CAA0F4480ED2BE0EA44CD8F4A33439947B455B063 PUSH1 0x1 PUSH1 0x40 MLOAD PUSH2 0x11B0 SWAP2 SWAP1 PUSH2 0x20FC JUMP JUMPDEST PUSH1 0x40 MLOAD DUP1 SWAP2 SUB SWAP1 LOG2 POP POP POP POP POP POP POP POP POP JUMP JUMPDEST PUSH2 0x11D7 PUSH8 0x7F97A2A083C452DC PUSH1 0xC0 SHL PUSH2 0x19F1 JUMP JUMPDEST PUSH2 0x11EB PUSH8 0x9EC0FA014536392D PUSH1 0xC0 SHL PUSH2 0x19F1 JUMP JUMPDEST PUSH2 0x11FF PUSH8 0x4B75EB51BE1CA1AC PUSH1 0xC0 SHL PUSH2 0x19F1 JUMP JUMPDEST PUSH2 0x1213 PUSH8 0xECE93B9C2B395A6E PUSH1 0xC0 SHL PUSH2 0x19F1 JUMP JUMPDEST PUSH1 0x1 PUSH1 0x0 DUP9 DUP2 MSTORE PUSH1 0x20 ADD SWAP1 DUP2 MSTORE PUSH1 0x20 ADD PUSH1 0x0 KECCAK256 PUSH1 0x5 ADD PUSH1 0x0 SWAP1 SLOAD SWAP1 PUSH2 0x100 EXP SWAP1 DIV PUSH1 0xFF AND ISZERO PUSH1 0x40 MLOAD DUP1 PUSH1 0x40 ADD PUSH1 0x40 MSTORE DUP1 PUSH1 0x17 DUP2 MSTORE PUSH1 0x20 ADD PUSH32 0x4F7264657220494420616C726561647920657869737473000000000000000000 DUP2 MSTORE POP SWAP1 PUSH2 0x12AF JUMPI PUSH1 0x40 MLOAD PUSH32 0x8C379A000000000000000000000000000000000000000000000000000000000 DUP2 MSTORE PUSH1 0x4 ADD PUSH2 0x12A6 SWAP2 SWAP1 PUSH2 0x21AE JUMP JUMPDEST PUSH1 0x40 MLOAD DUP1 SWAP2 SUB SWAP1 REVERT JUMPDEST POP PUSH2 0x12C4 PUSH8 0xA055BF072449816C PUSH1 0xC0 SHL PUSH2 0x19F1 JUMP JUMPDEST PUSH2 0x12D8 PUSH8 0x890D2C4A4C016A48 PUSH1 0xC0 SHL PUSH2 0x19F1 JUMP JUMPDEST PUSH2 0x12EC PUSH8 0x9D733C1C0443943 PUSH1 0xC0 SHL PUSH2 0x19F1 JUMP JUMPDEST PUSH2 0x1300 PUSH8 0x54366F3BB02217EF PUSH1 0xC0 SHL PUSH2 0x19F1 JUMP JUMPDEST PUSH1 0x0 DUP6 GT PUSH1 0x40 MLOAD DUP1 PUSH1 0x40 ADD PUSH1 0x40 MSTORE DUP1 PUSH1 0x20 DUP2 MSTORE PUSH1 0x20 ADD PUSH32 0x416D6F756E74206D7573742062652067726561746572207468616E207A65726F DUP2 MSTORE POP SWAP1 PUSH2 0x137B JUMPI PUSH1 0x40 MLOAD PUSH32 0x8C379A000000000000000000000000000000000000000000000000000000000 DUP2 MSTORE PUSH1 0x4 ADD PUSH2 0x1372 SWAP2 SWAP1 PUSH2 0x21AE JUMP JUMPDEST PUSH1 0x40 MLOAD DUP1 SWAP2 SUB SWAP1 REVERT JUMPDEST POP PUSH2 0x1390 PUSH8 0x97F87F73D011331D PUSH1 0xC0 SHL PUSH2 0x19F1 JUMP JUMPDEST PUSH2 0x13A4 PUSH8 0xD2A4246CBF4AF39C PUSH1 0xC0 SHL PUSH2 0x19F1 JUMP JUMPDEST PUSH2 0x13B8 PUSH8 0x383F5B370983E677 PUSH1 0xC0 SHL PUSH2 0x19F1 JUMP JUMPDEST PUSH2 0x13CC PUSH8 0x79D9B1E1CD4AB1B2 PUSH1 0xC0 SHL PUSH2 0x19F1 JUMP JUMPDEST PUSH1 0x0 DUP5 GT PUSH1 0x40 MLOAD DUP1 PUSH1 0x40 ADD PUSH1 0x40 MSTORE DUP1 PUSH1 0x1F DUP2 MSTORE PUSH1 0x20 ADD PUSH32 0x5072696365206D7573742062652067726561746572207468616E207A65726F00 DUP2 MSTORE POP SWAP1 PUSH2 0x1447 JUMPI PUSH1 0x40 MLOAD PUSH32 0x8C379A000000000000000000000000000000000000000000000000000000000 DUP2 MSTORE PUSH1 0x4 ADD PUSH2 0x143E SWAP2 SWAP1 PUSH2 0x21AE JUMP JUMPDEST PUSH1 0x40 MLOAD DUP1 SWAP2 SUB SWAP1 REVERT JUMPDEST POP PUSH2 0x145C PUSH8 0x8F8ED41AA1A9DD1A PUSH1 0xC0 SHL PUSH2 0x19F1 JUMP JUMPDEST PUSH2 0x1470 PUSH8 0xD97BFC946887453D PUSH1 0xC0 SHL PUSH2 0x19F1 JUMP JUMPDEST PUSH2 0x1484 PUSH8 0x499F51E36FEB015D PUSH1 0xC0 SHL PUSH2 0x19F1 JUMP JUMPDEST PUSH1 0x0 DUP4 SWAP1 POP PUSH2 0x149D PUSH8 0x4FCE59AA73149FDC PUSH1 0xC0 SHL PUSH2 0x19F1 JUMP JUMPDEST PUSH2 0x14B1 PUSH8 0x5DB9767DB8ACC0E9 PUSH1 0xC0 SHL PUSH2 0x19F1 JUMP JUMPDEST PUSH2 0x14C5 PUSH8 0xE0729C584F591CAD PUSH1 0xC0 SHL PUSH2 0x19F1 JUMP JUMPDEST PUSH1 0x2E DUP2 MLOAD EQ PUSH1 0x40 MLOAD DUP1 PUSH1 0x40 ADD PUSH1 0x40 MSTORE DUP1 PUSH1 0x18 DUP2 MSTORE PUSH1 0x20 ADD PUSH32 0x496E76616C696420495046532068617368206C656E6774680000000000000000 DUP2 MSTORE POP SWAP1 PUSH2 0x1541 JUMPI PUSH1 0x40 MLOAD PUSH32 0x8C379A000000000000000000000000000000000000000000000000000000000 DUP2 MSTORE PUSH1 0x4 ADD PUSH2 0x1538 SWAP2 SWAP1 PUSH2 0x21AE JUMP JUMPDEST PUSH1 0x40 MLOAD DUP1 SWAP2 SUB SWAP1 REVERT JUMPDEST POP PUSH2 0x1556 PUSH8 0xDDDA81EAAC37CDD5 PUSH1 0xC0 SHL PUSH2 0x19F1 JUMP JUMPDEST PUSH2 0x156A PUSH8 0x4E65583FC8FBC836 PUSH1 0xC0 SHL PUSH2 0x19F1 JUMP JUMPDEST PUSH2 0x157E PUSH8 0x1CEBF569CFFEED2B PUSH1 0xC0 SHL PUSH2 0x19F1 JUMP JUMPDEST PUSH2 0x1592 PUSH8 0x2F59BECA572C6F39 PUSH1 0xC0 SHL PUSH2 0x19F1 JUMP JUMPDEST TIMESTAMP DUP3 GT PUSH1 0x40 MLOAD DUP1 PUSH1 0x40 ADD PUSH1 0x40 MSTORE DUP1 PUSH1 0x11 DUP2 MSTORE PUSH1 0x20 ADD PUSH32 0x4F72646572206861732065787069726564000000000000000000000000000000 DUP2 MSTORE POP SWAP1 PUSH2 0x160C JUMPI PUSH1 0x40 MLOAD PUSH32 0x8C379A000000000000000000000000000000000000000000000000000000000 DUP2 MSTORE PUSH1 0x4 ADD PUSH2 0x1603 SWAP2 SWAP1 PUSH2 0x21AE JUMP JUMPDEST PUSH1 0x40 MLOAD DUP1 SWAP2 SUB SWAP1 REVERT JUMPDEST POP PUSH2 0x1621 PUSH8 0x6E55940B8FCD99D1 PUSH1 0xC0 SHL PUSH2 0x19F1 JUMP JUMPDEST PUSH2 0x1635 PUSH8 0x6D80068640181FB PUSH1 0xC0 SHL PUSH2 0x19F1 JUMP JUMPDEST PUSH2 0x1649 PUSH8 0x259F5A0835A33827 PUSH1 0xC0 SHL PUSH2 0x19F1 JUMP JUMPDEST PUSH1 0x0 PUSH2 0x1658 DUP10 DUP10 DUP10 DUP10 DUP10 PUSH2 0x269 JUMP JUMPDEST SWAP1 POP PUSH2 0x166E PUSH8 0x89FD1221C1E2ADF7 PUSH1 0xC0 SHL PUSH2 0x19F1 JUMP JUMPDEST PUSH2 0x1682 PUSH8 0x4E65CF278E2D691D PUSH1 0xC0 SHL PUSH2 0x19F1 JUMP JUMPDEST PUSH1 0x0 PUSH2 0x168E DUP3 DUP7 PUSH2 0x518 JUMP JUMPDEST SWAP1 POP PUSH2 0x16A4 PUSH8 0xB2F30363E05B4505 PUSH1 0xC0 SHL PUSH2 0x19F1 JUMP JUMPDEST PUSH2 0x16B8 PUSH8 0xD4366BE7A03E672B PUSH1 0xC0 SHL PUSH2 0x19F1 JUMP JUMPDEST PUSH2 0x16CC PUSH8 0x19408638D7B6EF8E PUSH1 0xC0 SHL PUSH2 0x19F1 JUMP JUMPDEST DUP9 PUSH20 0xFFFFFFFFFFFFFFFFFFFFFFFFFFFFFFFFFFFFFFFF AND DUP2 PUSH20 0xFFFFFFFFFFFFFFFFFFFFFFFFFFFFFFFFFFFFFFFF AND EQ PUSH2 0x173A JUMPI PUSH1 0x40 MLOAD PUSH32 0x8C379A000000000000000000000000000000000000000000000000000000000 DUP2 MSTORE PUSH1 0x4 ADD PUSH2 0x1731 SWAP1 PUSH2 0x21D0 JUMP JUMPDEST PUSH1 0x40 MLOAD DUP1 SWAP2 SUB SWAP1 REVERT JUMPDEST PUSH2 0x174E PUSH8 0x706D4EF6A2F5E38 PUSH1 0xC0 SHL PUSH2 0x19F1 JUMP JUMPDEST PUSH2 0x1762 PUSH8 0xD2E5CA1FA8C77CB0 PUSH1 0xC0 SHL PUSH2 0x19F1 JUMP JUMPDEST PUSH1 0x40 MLOAD DUP1 PUSH2 0x100 ADD PUSH1 0x40 MSTORE DUP1 DUP12 DUP2 MSTORE PUSH1 0x20 ADD DUP11 PUSH20 0xFFFFFFFFFFFFFFFFFFFFFFFFFFFFFFFFFFFFFFFF AND DUP2 MSTORE PUSH1 0x20 ADD DUP10 DUP2 MSTORE PUSH1 0x20 ADD DUP9 DUP2 MSTORE PUSH1 0x20 ADD DUP8 DUP2 MSTORE PUSH1 0x20 ADD PUSH1 0x1 ISZERO ISZERO DUP2 MSTORE PUSH1 0x20 ADD DUP6 DUP2 MSTORE PUSH1 0x20 ADD PUSH1 0x0 ISZERO ISZERO DUP2 MSTORE POP PUSH1 0x1 PUSH1 0x0 DUP13 DUP2 MSTORE PUSH1 0x20 ADD SWAP1 DUP2 MSTORE PUSH1 0x20 ADD PUSH1 0x0 KECCAK256 PUSH1 0x0 DUP3 ADD MLOAD DUP2 PUSH1 0x0 ADD SSTORE PUSH1 0x20 DUP3 ADD MLOAD DUP2 PUSH1 0x1 ADD PUSH1 0x0 PUSH2 0x100 EXP DUP2 SLOAD DUP2 PUSH20 0xFFFFFFFFFFFFFFFFFFFFFFFFFFFFFFFFFFFFFFFF MUL NOT AND SWAP1 DUP4 PUSH20 0xFFFFFFFFFFFFFFFFFFFFFFFFFFFFFFFFFFFFFFFF AND MUL OR SWAP1 SSTORE POP PUSH1 0x40 DUP3 ADD MLOAD DUP2 PUSH1 0x2 ADD SSTORE PUSH1 0x60 DUP3 ADD MLOAD DUP2 PUSH1 0x3 ADD SSTORE PUSH1 0x80 DUP3 ADD MLOAD DUP2 PUSH1 0x4 ADD SWAP1 DUP1 MLOAD SWAP1 PUSH1 0x20 ADD SWAP1 PUSH2 0x184C SWAP3 SWAP2 SWAP1 PUSH2 0x19F7 JUMP JUMPDEST POP PUSH1 0xA0 DUP3 ADD MLOAD DUP2 PUSH1 0x5 ADD PUSH1 0x0 PUSH2 0x100 EXP DUP2 SLOAD DUP2 PUSH1 0xFF MUL NOT AND SWAP1 DUP4 ISZERO ISZERO MUL OR SWAP1 SSTORE POP PUSH1 0xC0 DUP3 ADD MLOAD DUP2 PUSH1 0x6 ADD SSTORE PUSH1 0xE0 DUP3 ADD MLOAD DUP2 PUSH1 0x7 ADD PUSH1 0x0 PUSH2 0x100 EXP DUP2 SLOAD DUP2 PUSH1 0xFF MUL NOT AND SWAP1 DUP4 ISZERO ISZERO MUL OR SWAP1 SSTORE POP SWAP1 POP POP PUSH2 0x18AE PUSH8 0xBAD95602079CA02 PUSH1 0xC0 SHL PUSH2 0x19F1 JUMP JUMPDEST PUSH2 0x18C2 PUSH8 0x8E3494EF6FB1BE83 PUSH1 0xC0 SHL PUSH2 0x19F1 JUMP JUMPDEST DUP9 PUSH20 0xFFFFFFFFFFFFFFFFFFFFFFFFFFFFFFFFFFFFFFFF AND DUP11 PUSH32 0x684F2057BB3A8509F1F7339A074B4A45B6EC52D18FF42336BB628D15D256F308 DUP11 DUP11 DUP11 PUSH1 0x40 MLOAD PUSH2 0x190D SWAP4 SWAP3 SWAP2 SWAP1 PUSH2 0x22FD JUMP JUMPDEST PUSH1 0x40 MLOAD DUP1 SWAP2 SUB SWAP1 LOG3 PUSH2 0x1929 PUSH8 0x5734BCDD7200BB62 PUSH1 0xC0 SHL PUSH2 0x19F1 JUMP JUMPDEST PUSH2 0x193D PUSH8 0x9B82AAC3FD2C68A0 PUSH1 0xC0 SHL PUSH2 0x19F1 JUMP JUMPDEST DUP10 PUSH32 0xF1AF884D94E28FCBC40F458CAA0F4480ED2BE0EA44CD8F4A33439947B455B063 PUSH1 0x1 PUSH1 0x40 MLOAD PUSH2 0x196E SWAP2 SWAP1 PUSH2 0x20FC JUMP JUMPDEST PUSH1 0x40 MLOAD DUP1 SWAP2 SUB SWAP1 LOG2 POP POP POP POP POP POP POP POP POP POP JUMP JUMPDEST PUSH1 0x0 PUSH2 0x1998 PUSH8 0xCC508DC319380D0 PUSH1 0xC0 SHL PUSH2 0x19EE JUMP JUMPDEST PUSH2 0x19AC PUSH8 0xCC0DD83DD45BBC01 PUSH1 0xC0 SHL PUSH2 0x19EE JUMP JUMPDEST PUSH2 0x19C0 PUSH8 0xAA508DC83ADF1FFD PUSH1 0xC0 SHL PUSH2 0x19EE JUMP JUMPDEST DUP2 PUSH1 0x40 MLOAD PUSH1 0x20 ADD PUSH2 0x19D1 SWAP2 SWAP1 PUSH2 0x2060 JUMP JUMPDEST PUSH1 0x40 MLOAD PUSH1 0x20 DUP2 DUP4 SUB SUB DUP2 MSTORE SWAP1 PUSH1 0x40 MSTORE DUP1 MLOAD SWAP1 PUSH1 0x20 ADD KECCAK256 SWAP1 POP SWAP2 SWAP1 POP JUMP JUMPDEST POP JUMP JUMPDEST POP JUMP JUMPDEST POP JUMP JUMPDEST DUP3 DUP1 SLOAD PUSH2 0x1A03 SWAP1 PUSH2 0x2494 JUMP JUMPDEST SWAP1 PUSH1 0x0 MSTORE PUSH1 0x20 PUSH1 0x0 KECCAK256 SWAP1 PUSH1 0x1F ADD PUSH1 0x20 SWAP1 DIV DUP2 ADD SWAP3 DUP3 PUSH2 0x1A25 JUMPI PUSH1 0x0 DUP6 SSTORE PUSH2 0x1A6C JUMP JUMPDEST DUP3 PUSH1 0x1F LT PUSH2 0x1A3E JUMPI DUP1 MLOAD PUSH1 0xFF NOT AND DUP4 DUP1 ADD OR DUP6 SSTORE PUSH2 0x1A6C JUMP JUMPDEST DUP3 DUP1 ADD PUSH1 0x1 ADD DUP6 SSTORE DUP3 ISZERO PUSH2 0x1A6C JUMPI SWAP2 DUP3 ADD JUMPDEST DUP3 DUP2 GT ISZERO PUSH2 0x1A6B JUMPI DUP3 MLOAD DUP3 SSTORE SWAP2 PUSH1 0x20 ADD SWAP2 SWAP1 PUSH1 0x1 ADD SWAP1 PUSH2 0x1A50 JUMP JUMPDEST JUMPDEST POP SWAP1 POP PUSH2 0x1A79 SWAP2 SWAP1 PUSH2 0x1A7D JUMP JUMPDEST POP SWAP1 JUMP JUMPDEST JUMPDEST DUP1 DUP3 GT ISZERO PUSH2 0x1A96 JUMPI PUSH1 0x0 DUP2 PUSH1 0x0 SWAP1 SSTORE POP PUSH1 0x1 ADD PUSH2 0x1A7E JUMP JUMPDEST POP SWAP1 JUMP JUMPDEST PUSH1 0x0 PUSH2 0x1AAD PUSH2 0x1AA8 DUP5 PUSH2 0x236C JUMP JUMPDEST PUSH2 0x233B JUMP JUMPDEST SWAP1 POP DUP3 DUP2 MSTORE PUSH1 0x20 DUP2 ADD DUP5 DUP5 DUP5 ADD GT ISZERO PUSH2 0x1AC5 JUMPI PUSH1 0x0 DUP1 REVERT JUMPDEST PUSH2 0x1AD0 DUP5 DUP3 DUP6 PUSH2 0x2452 JUMP JUMPDEST POP SWAP4 SWAP3 POP POP POP JUMP JUMPDEST PUSH1 0x0 PUSH2 0x1AEB PUSH2 0x1AE6 DUP5 PUSH2 0x239C JUMP JUMPDEST PUSH2 0x233B JUMP JUMPDEST SWAP1 POP DUP3 DUP2 MSTORE PUSH1 0x20 DUP2 ADD DUP5 DUP5 DUP5 ADD GT ISZERO PUSH2 0x1B03 JUMPI PUSH1 0x0 DUP1 REVERT JUMPDEST PUSH2 0x1B0E DUP5 DUP3 DUP6 PUSH2 0x2452 JUMP JUMPDEST POP SWAP4 SWAP3 POP POP POP JUMP JUMPDEST PUSH1 0x0 DUP2 CALLDATALOAD SWAP1 POP PUSH2 0x1B25 DUP2 PUSH2 0x257A JUMP JUMPDEST SWAP3 SWAP2 POP POP JUMP JUMPDEST PUSH1 0x0 DUP2 CALLDATALOAD SWAP1 POP PUSH2 0x1B3A DUP2 PUSH2 0x2591 JUMP JUMPDEST SWAP3 SWAP2 POP POP JUMP JUMPDEST PUSH1 0x0 DUP3 PUSH1 0x1F DUP4 ADD SLT PUSH2 0x1B51 JUMPI PUSH1 0x0 DUP1 REVERT JUMPDEST DUP2 CALLDATALOAD PUSH2 0x1B61 DUP5 DUP3 PUSH1 0x20 DUP7 ADD PUSH2 0x1A9A JUMP JUMPDEST SWAP2 POP POP SWAP3 SWAP2 POP POP JUMP JUMPDEST PUSH1 0x0 DUP3 PUSH1 0x1F DUP4 ADD SLT PUSH2 0x1B7B JUMPI PUSH1 0x0 DUP1 REVERT JUMPDEST DUP2 CALLDATALOAD PUSH2 0x1B8B DUP5 DUP3 PUSH1 0x20 DUP7 ADD PUSH2 0x1AD8 JUMP JUMPDEST SWAP2 POP POP SWAP3 SWAP2 POP POP JUMP JUMPDEST PUSH1 0x0 DUP2 CALLDATALOAD SWAP1 POP PUSH2 0x1BA3 DUP2 PUSH2 0x25A8 JUMP JUMPDEST SWAP3 SWAP2 POP POP JUMP JUMPDEST PUSH1 0x0 PUSH1 0x20 DUP3 DUP5 SUB SLT ISZERO PUSH2 0x1BBB JUMPI PUSH1 0x0 DUP1 REVERT JUMPDEST PUSH1 0x0 PUSH2 0x1BC9 DUP5 DUP3 DUP6 ADD PUSH2 0x1B2B JUMP JUMPDEST SWAP2 POP POP SWAP3 SWAP2 POP POP JUMP JUMPDEST PUSH1 0x0 DUP1 PUSH1 0x40 DUP4 DUP6 SUB SLT ISZERO PUSH2 0x1BE5 JUMPI PUSH1 0x0 DUP1 REVERT JUMPDEST PUSH1 0x0 PUSH2 0x1BF3 DUP6 DUP3 DUP7 ADD PUSH2 0x1B2B JUMP JUMPDEST SWAP3 POP POP PUSH1 0x20 DUP4 ADD CALLDATALOAD PUSH8 0xFFFFFFFFFFFFFFFF DUP2 GT ISZERO PUSH2 0x1C10 JUMPI PUSH1 0x0 DUP1 REVERT JUMPDEST PUSH2 0x1C1C DUP6 DUP3 DUP7 ADD PUSH2 0x1B40 JUMP JUMPDEST SWAP2 POP POP SWAP3 POP SWAP3 SWAP1 POP JUMP JUMPDEST PUSH1 0x0 PUSH1 0x20 DUP3 DUP5 SUB SLT ISZERO PUSH2 0x1C38 JUMPI PUSH1 0x0 DUP1 REVERT JUMPDEST PUSH1 0x0 DUP3 ADD CALLDATALOAD PUSH8 0xFFFFFFFFFFFFFFFF DUP2 GT ISZERO PUSH2 0x1C52 JUMPI PUSH1 0x0 DUP1 REVERT JUMPDEST PUSH2 0x1C5E DUP5 DUP3 DUP6 ADD PUSH2 0x1B40 JUMP JUMPDEST SWAP2 POP POP SWAP3 SWAP2 POP POP JUMP JUMPDEST PUSH1 0x0 PUSH1 0x20 DUP3 DUP5 SUB SLT ISZERO PUSH2 0x1C79 JUMPI PUSH1 0x0 DUP1 REVERT JUMPDEST PUSH1 0x0 PUSH2 0x1C87 DUP5 DUP3 DUP6 ADD PUSH2 0x1B94 JUMP JUMPDEST SWAP2 POP POP SWAP3 SWAP2 POP POP JUMP JUMPDEST PUSH1 0x0 DUP1 PUSH1 0x0 DUP1 PUSH1 0x0 PUSH1 0xA0 DUP7 DUP9 SUB SLT ISZERO PUSH2 0x1CA8 JUMPI PUSH1 0x0 DUP1 REVERT JUMPDEST PUSH1 0x0 PUSH2 0x1CB6 DUP9 DUP3 DUP10 ADD PUSH2 0x1B94 JUMP JUMPDEST SWAP6 POP POP PUSH1 0x20 PUSH2 0x1CC7 DUP9 DUP3 DUP10 ADD PUSH2 0x1B16 JUMP JUMPDEST SWAP5 POP POP PUSH1 0x40 PUSH2 0x1CD8 DUP9 DUP3 DUP10 ADD PUSH2 0x1B94 JUMP JUMPDEST SWAP4 POP POP PUSH1 0x60 PUSH2 0x1CE9 DUP9 DUP3 DUP10 ADD PUSH2 0x1B94 JUMP JUMPDEST SWAP3 POP POP PUSH1 0x80 DUP7 ADD CALLDATALOAD PUSH8 0xFFFFFFFFFFFFFFFF DUP2 GT ISZERO PUSH2 0x1D06 JUMPI PUSH1 0x0 DUP1 REVERT JUMPDEST PUSH2 0x1D12 DUP9 DUP3 DUP10 ADD PUSH2 0x1B6A JUMP JUMPDEST SWAP2 POP POP SWAP3 SWAP6 POP SWAP3 SWAP6 SWAP1 SWAP4 POP JUMP JUMPDEST PUSH1 0x0 DUP1 PUSH1 0x0 DUP1 PUSH1 0x0 DUP1 PUSH1 0xC0 DUP8 DUP10 SUB SLT ISZERO PUSH2 0x1D38 JUMPI PUSH1 0x0 DUP1 REVERT JUMPDEST PUSH1 0x0 PUSH2 0x1D46 DUP10 DUP3 DUP11 ADD PUSH2 0x1B94 JUMP JUMPDEST SWAP7 POP POP PUSH1 0x20 PUSH2 0x1D57 DUP10 DUP3 DUP11 ADD PUSH2 0x1B16 JUMP JUMPDEST SWAP6 POP POP PUSH1 0x40 PUSH2 0x1D68 DUP10 DUP3 DUP11 ADD PUSH2 0x1B94 JUMP JUMPDEST SWAP5 POP POP PUSH1 0x60 PUSH2 0x1D79 DUP10 DUP3 DUP11 ADD PUSH2 0x1B94 JUMP JUMPDEST SWAP4 POP POP PUSH1 0x80 DUP8 ADD CALLDATALOAD PUSH8 0xFFFFFFFFFFFFFFFF DUP2 GT ISZERO PUSH2 0x1D96 JUMPI PUSH1 0x0 DUP1 REVERT JUMPDEST PUSH2 0x1DA2 DUP10 DUP3 DUP11 ADD PUSH2 0x1B6A JUMP JUMPDEST SWAP3 POP POP PUSH1 0xA0 DUP8 ADD CALLDATALOAD PUSH8 0xFFFFFFFFFFFFFFFF DUP2 GT ISZERO PUSH2 0x1DBF JUMPI PUSH1 0x0 DUP1 REVERT JUMPDEST PUSH2 0x1DCB DUP10 DUP3 DUP11 ADD PUSH2 0x1B40 JUMP JUMPDEST SWAP2 POP POP SWAP3 SWAP6 POP SWAP3 SWAP6 POP SWAP3 SWAP6 JUMP JUMPDEST PUSH1 0x0 DUP1 PUSH1 0x0 DUP1 PUSH1 0x0 DUP1 PUSH1 0x0 PUSH1 0xE0 DUP9 DUP11 SUB SLT ISZERO PUSH2 0x1DF3 JUMPI PUSH1 0x0 DUP1 REVERT JUMPDEST PUSH1 0x0 PUSH2 0x1E01 DUP11 DUP3 DUP12 ADD PUSH2 0x1B94 JUMP JUMPDEST SWAP8 POP POP PUSH1 0x20 PUSH2 0x1E12 DUP11 DUP3 DUP12 ADD PUSH2 0x1B16 JUMP JUMPDEST SWAP7 POP POP PUSH1 0x40 PUSH2 0x1E23 DUP11 DUP3 DUP12 ADD PUSH2 0x1B94 JUMP JUMPDEST SWAP6 POP POP PUSH1 0x60 PUSH2 0x1E34 DUP11 DUP3 DUP12 ADD PUSH2 0x1B94 JUMP JUMPDEST SWAP5 POP POP PUSH1 0x80 DUP9 ADD CALLDATALOAD PUSH8 0xFFFFFFFFFFFFFFFF DUP2 GT ISZERO PUSH2 0x1E51 JUMPI PUSH1 0x0 DUP1 REVERT JUMPDEST PUSH2 0x1E5D DUP11 DUP3 DUP12 ADD PUSH2 0x1B6A JUMP JUMPDEST SWAP4 POP POP PUSH1 0xA0 DUP9 ADD CALLDATALOAD PUSH8 0xFFFFFFFFFFFFFFFF DUP2 GT ISZERO PUSH2 0x1E7A JUMPI PUSH1 0x0 DUP1 REVERT JUMPDEST PUSH2 0x1E86 DUP11 DUP3 DUP12 ADD PUSH2 0x1B40 JUMP JUMPDEST SWAP3 POP POP PUSH1 0xC0 PUSH2 0x1E97 DUP11 DUP3 DUP12 ADD PUSH2 0x1B94 JUMP JUMPDEST SWAP2 POP POP SWAP3 SWAP6 SWAP9 SWAP2 SWAP5 SWAP8 POP SWAP3 SWAP6 POP JUMP JUMPDEST PUSH2 0x1EAF DUP2 PUSH2 0x23F3 JUMP JUMPDEST DUP3 MSTORE POP POP JUMP JUMPDEST PUSH2 0x1EC6 PUSH2 0x1EC1 DUP3 PUSH2 0x23F3 JUMP JUMPDEST PUSH2 0x24C6 JUMP JUMPDEST DUP3 MSTORE POP POP JUMP JUMPDEST PUSH2 0x1ED5 DUP2 PUSH2 0x2405 JUMP JUMPDEST DUP3 MSTORE POP POP JUMP JUMPDEST PUSH2 0x1EE4 DUP2 PUSH2 0x2411 JUMP JUMPDEST DUP3 MSTORE POP POP JUMP JUMPDEST PUSH2 0x1EFB PUSH2 0x1EF6 DUP3 PUSH2 0x2411 JUMP JUMPDEST PUSH2 0x24D8 JUMP JUMPDEST DUP3 MSTORE POP POP JUMP JUMPDEST PUSH1 0x0 PUSH2 0x1F0C DUP3 PUSH2 0x23CC JUMP JUMPDEST PUSH2 0x1F16 DUP2 DUP6 PUSH2 0x23D7 JUMP JUMPDEST SWAP4 POP PUSH2 0x1F26 DUP2 DUP6 PUSH1 0x20 DUP7 ADD PUSH2 0x2461 JUMP JUMPDEST PUSH2 0x1F2F DUP2 PUSH2 0x255C JUMP JUMPDEST DUP5 ADD SWAP2 POP POP SWAP3 SWAP2 POP POP JUMP JUMPDEST PUSH1 0x0 PUSH2 0x1F45 DUP3 PUSH2 0x23CC JUMP JUMPDEST PUSH2 0x1F4F DUP2 DUP6 PUSH2 0x23E8 JUMP JUMPDEST SWAP4 POP PUSH2 0x1F5F DUP2 DUP6 PUSH1 0x20 DUP7 ADD PUSH2 0x2461 JUMP JUMPDEST DUP1 DUP5 ADD SWAP2 POP POP SWAP3 SWAP2 POP POP JUMP JUMPDEST PUSH1 0x0 PUSH2 0x1F78 PUSH1 0x1C DUP4 PUSH2 0x23E8 JUMP JUMPDEST SWAP2 POP PUSH32 0x19457468657265756D205369676E6564204D6573736167653A0A333200000000 PUSH1 0x0 DUP4 ADD MSTORE PUSH1 0x1C DUP3 ADD SWAP1 POP SWAP2 SWAP1 POP JUMP JUMPDEST PUSH1 0x0 PUSH2 0x1FB8 PUSH1 0x11 DUP4 PUSH2 0x23D7 JUMP JUMPDEST SWAP2 POP PUSH32 0x496E76616C6964207369676E6174757265000000000000000000000000000000 PUSH1 0x0 DUP4 ADD MSTORE PUSH1 0x20 DUP3 ADD SWAP1 POP SWAP2 SWAP1 POP JUMP JUMPDEST PUSH1 0x0 PUSH2 0x1FF8 PUSH1 0x14 DUP4 PUSH2 0x23D7 JUMP JUMPDEST SWAP2 POP PUSH32 0x4F7264657220646F6573206E6F74206578697374000000000000000000000000 PUSH1 0x0 DUP4 ADD MSTORE PUSH1 0x20 DUP3 ADD SWAP1 POP SWAP2 SWAP1 POP JUMP JUMPDEST PUSH2 0x2034 DUP2 PUSH2 0x243B JUMP JUMPDEST DUP3 MSTORE POP POP JUMP JUMPDEST PUSH2 0x204B PUSH2 0x2046 DUP3 PUSH2 0x243B JUMP JUMPDEST PUSH2 0x24F4 JUMP JUMPDEST DUP3 MSTORE POP POP JUMP JUMPDEST PUSH2 0x205A DUP2 PUSH2 0x2445 JUMP JUMPDEST DUP3 MSTORE POP POP JUMP JUMPDEST PUSH1 0x0 PUSH2 0x206B DUP3 PUSH2 0x1F6B JUMP JUMPDEST SWAP2 POP PUSH2 0x2077 DUP3 DUP5 PUSH2 0x1EEA JUMP JUMPDEST PUSH1 0x20 DUP3 ADD SWAP2 POP DUP2 SWAP1 POP SWAP3 SWAP2 POP POP JUMP JUMPDEST PUSH1 0x0 PUSH2 0x2092 DUP3 DUP9 PUSH2 0x203A JUMP JUMPDEST PUSH1 0x20 DUP3 ADD SWAP2 POP PUSH2 0x20A2 DUP3 DUP8 PUSH2 0x1EB5 JUMP JUMPDEST PUSH1 0x14 DUP3 ADD SWAP2 POP PUSH2 0x20B2 DUP3 DUP7 PUSH2 0x203A JUMP JUMPDEST PUSH1 0x20 DUP3 ADD SWAP2 POP PUSH2 0x20C2 DUP3 DUP6 PUSH2 0x203A JUMP JUMPDEST PUSH1 0x20 DUP3 ADD SWAP2 POP PUSH2 0x20D2 DUP3 DUP5 PUSH2 0x1F3A JUMP JUMPDEST SWAP2 POP DUP2 SWAP1 POP SWAP7 SWAP6 POP POP POP POP POP POP JUMP JUMPDEST PUSH1 0x0 PUSH1 0x20 DUP3 ADD SWAP1 POP PUSH2 0x20F6 PUSH1 0x0 DUP4 ADD DUP5 PUSH2 0x1EA6 JUMP JUMPDEST SWAP3 SWAP2 POP POP JUMP JUMPDEST PUSH1 0x0 PUSH1 0x20 DUP3 ADD SWAP1 POP PUSH2 0x2111 PUSH1 0x0 DUP4 ADD DUP5 PUSH2 0x1ECC JUMP JUMPDEST SWAP3 SWAP2 POP POP JUMP JUMPDEST PUSH1 0x0 PUSH1 0x20 DUP3 ADD SWAP1 POP PUSH2 0x212C PUSH1 0x0 DUP4 ADD DUP5 PUSH2 0x1EDB JUMP JUMPDEST SWAP3 SWAP2 POP POP JUMP JUMPDEST PUSH1 0x0 PUSH1 0x60 DUP3 ADD SWAP1 POP PUSH2 0x2147 PUSH1 0x0 DUP4 ADD DUP7 PUSH2 0x1EDB JUMP JUMPDEST PUSH2 0x2154 PUSH1 0x20 DUP4 ADD DUP6 PUSH2 0x1EDB JUMP JUMPDEST PUSH2 0x2161 PUSH1 0x40 DUP4 ADD DUP5 PUSH2 0x2051 JUMP JUMPDEST SWAP5 SWAP4 POP POP POP POP JUMP JUMPDEST PUSH1 0x0 PUSH1 0x80 DUP3 ADD SWAP1 POP PUSH2 0x217E PUSH1 0x0 DUP4 ADD DUP8 PUSH2 0x1EDB JUMP JUMPDEST PUSH2 0x218B PUSH1 0x20 DUP4 ADD DUP7 PUSH2 0x2051 JUMP JUMPDEST PUSH2 0x2198 PUSH1 0x40 DUP4 ADD DUP6 PUSH2 0x1EDB JUMP JUMPDEST PUSH2 0x21A5 PUSH1 0x60 DUP4 ADD DUP5 PUSH2 0x1EDB JUMP JUMPDEST SWAP6 SWAP5 POP POP POP POP POP JUMP JUMPDEST PUSH1 0x0 PUSH1 0x20 DUP3 ADD SWAP1 POP DUP2 DUP2 SUB PUSH1 0x0 DUP4 ADD MSTORE PUSH2 0x21C8 DUP2 DUP5 PUSH2 0x1F01 JUMP JUMPDEST SWAP1 POP SWAP3 SWAP2 POP POP JUMP JUMPDEST PUSH1 0x0 PUSH1 0x20 DUP3 ADD SWAP1 POP DUP2 DUP2 SUB PUSH1 0x0 DUP4 ADD MSTORE PUSH2 0x21E9 DUP2 PUSH2 0x1FAB JUMP JUMPDEST SWAP1 POP SWAP2 SWAP1 POP JUMP JUMPDEST PUSH1 0x0 PUSH1 0x20 DUP3 ADD SWAP1 POP DUP2 DUP2 SUB PUSH1 0x0 DUP4 ADD MSTORE PUSH2 0x2209 DUP2 PUSH2 0x1FEB JUMP JUMPDEST SWAP1 POP SWAP2 SWAP1 POP JUMP JUMPDEST PUSH1 0x0 PUSH1 0xC0 DUP3 ADD SWAP1 POP PUSH2 0x2225 PUSH1 0x0 DUP4 ADD DUP10 PUSH2 0x202B JUMP JUMPDEST PUSH2 0x2232 PUSH1 0x20 DUP4 ADD DUP9 PUSH2 0x1EA6 JUMP JUMPDEST PUSH2 0x223F PUSH1 0x40 DUP4 ADD DUP8 PUSH2 0x202B JUMP JUMPDEST PUSH2 0x224C PUSH1 0x60 DUP4 ADD DUP7 PUSH2 0x202B JUMP JUMPDEST DUP2 DUP2 SUB PUSH1 0x80 DUP4 ADD MSTORE PUSH2 0x225E DUP2 DUP6 PUSH2 0x1F01 JUMP JUMPDEST SWAP1 POP PUSH2 0x226D PUSH1 0xA0 DUP4 ADD DUP5 PUSH2 0x1ECC JUMP JUMPDEST SWAP8 SWAP7 POP POP POP POP POP POP POP JUMP JUMPDEST PUSH1 0x0 PUSH2 0x100 DUP3 ADD SWAP1 POP PUSH2 0x228E PUSH1 0x0 DUP4 ADD DUP12 PUSH2 0x202B JUMP JUMPDEST PUSH2 0x229B PUSH1 0x20 DUP4 ADD DUP11 PUSH2 0x1EA6 JUMP JUMPDEST PUSH2 0x22A8 PUSH1 0x40 DUP4 ADD DUP10 PUSH2 0x202B JUMP JUMPDEST PUSH2 0x22B5 PUSH1 0x60 DUP4 ADD DUP9 PUSH2 0x202B JUMP JUMPDEST DUP2 DUP2 SUB PUSH1 0x80 DUP4 ADD MSTORE PUSH2 0x22C7 DUP2 DUP8 PUSH2 0x1F01 JUMP JUMPDEST SWAP1 POP PUSH2 0x22D6 PUSH1 0xA0 DUP4 ADD DUP7 PUSH2 0x1ECC JUMP JUMPDEST PUSH2 0x22E3 PUSH1 0xC0 DUP4 ADD DUP6 PUSH2 0x202B JUMP JUMPDEST PUSH2 0x22F0 PUSH1 0xE0 DUP4 ADD DUP5 PUSH2 0x1ECC JUMP JUMPDEST SWAP10 SWAP9 POP POP POP POP POP POP POP POP POP JUMP JUMPDEST PUSH1 0x0 PUSH1 0x60 DUP3 ADD SWAP1 POP PUSH2 0x2312 PUSH1 0x0 DUP4 ADD DUP7 PUSH2 0x202B JUMP JUMPDEST PUSH2 0x231F PUSH1 0x20 DUP4 ADD DUP6 PUSH2 0x202B JUMP JUMPDEST DUP2 DUP2 SUB PUSH1 0x40 DUP4 ADD MSTORE PUSH2 0x2331 DUP2 DUP5 PUSH2 0x1F01 JUMP JUMPDEST SWAP1 POP SWAP5 SWAP4 POP POP POP POP JUMP JUMPDEST PUSH1 0x0 PUSH1 0x40 MLOAD SWAP1 POP DUP2 DUP2 ADD DUP2 DUP2 LT PUSH8 0xFFFFFFFFFFFFFFFF DUP3 GT OR ISZERO PUSH2 0x2362 JUMPI PUSH2 0x2361 PUSH2 0x252D JUMP JUMPDEST JUMPDEST DUP1 PUSH1 0x40 MSTORE POP SWAP2 SWAP1 POP JUMP JUMPDEST PUSH1 0x0 PUSH8 0xFFFFFFFFFFFFFFFF DUP3 GT ISZERO PUSH2 0x2387 JUMPI PUSH2 0x2386 PUSH2 0x252D JUMP JUMPDEST JUMPDEST PUSH1 0x1F NOT PUSH1 0x1F DUP4 ADD AND SWAP1 POP PUSH1 0x20 DUP2 ADD SWAP1 POP SWAP2 SWAP1 POP JUMP JUMPDEST PUSH1 0x0 PUSH8 0xFFFFFFFFFFFFFFFF DUP3 GT ISZERO PUSH2 0x23B7 JUMPI PUSH2 0x23B6 PUSH2 0x252D JUMP JUMPDEST JUMPDEST PUSH1 0x1F NOT PUSH1 0x1F DUP4 ADD AND SWAP1 POP PUSH1 0x20 DUP2 ADD SWAP1 POP SWAP2 SWAP1 POP JUMP JUMPDEST PUSH1 0x0 DUP2 MLOAD SWAP1 POP SWAP2 SWAP1 POP JUMP JUMPDEST PUSH1 0x0 DUP3 DUP3 MSTORE PUSH1 0x20 DUP3 ADD SWAP1 POP SWAP3 SWAP2 POP POP JUMP JUMPDEST PUSH1 0x0 DUP2 SWAP1 POP SWAP3 SWAP2 POP POP JUMP JUMPDEST PUSH1 0x0 PUSH2 0x23FE DUP3 PUSH2 0x241B JUMP JUMPDEST SWAP1 POP SWAP2 SWAP1 POP JUMP JUMPDEST PUSH1 0x0 DUP2 ISZERO ISZERO SWAP1 POP SWAP2 SWAP1 POP JUMP JUMPDEST PUSH1 0x0 DUP2 SWAP1 POP SWAP2 SWAP1 POP JUMP JUMPDEST PUSH1 0x0 PUSH20 0xFFFFFFFFFFFFFFFFFFFFFFFFFFFFFFFFFFFFFFFF DUP3 AND SWAP1 POP SWAP2 SWAP1 POP JUMP JUMPDEST PUSH1 0x0 DUP2 SWAP1 POP SWAP2 SWAP1 POP JUMP JUMPDEST PUSH1 0x0 PUSH1 0xFF DUP3 AND SWAP1 POP SWAP2 SWAP1 POP JUMP JUMPDEST DUP3 DUP2 DUP4 CALLDATACOPY PUSH1 0x0 DUP4 DUP4 ADD MSTORE POP POP POP JUMP JUMPDEST PUSH1 0x0 JUMPDEST DUP4 DUP2 LT ISZERO PUSH2 0x247F JUMPI DUP1 DUP3 ADD MLOAD DUP2 DUP5 ADD MSTORE PUSH1 0x20 DUP2 ADD SWAP1 POP PUSH2 0x2464 JUMP JUMPDEST DUP4 DUP2 GT ISZERO PUSH2 0x248E JUMPI PUSH1 0x0 DUP5 DUP5 ADD MSTORE JUMPDEST POP POP POP POP JUMP JUMPDEST PUSH1 0x0 PUSH1 0x2 DUP3 DIV SWAP1 POP PUSH1 0x1 DUP3 AND DUP1 PUSH2 0x24AC JUMPI PUSH1 0x7F DUP3 AND SWAP2 POP JUMPDEST PUSH1 0x20 DUP3 LT DUP2 EQ ISZERO PUSH2 0x24C0 JUMPI PUSH2 0x24BF PUSH2 0x24FE JUMP JUMPDEST JUMPDEST POP SWAP2 SWAP1 POP JUMP JUMPDEST PUSH1 0x0 PUSH2 0x24D1 DUP3 PUSH2 0x24E2 JUMP JUMPDEST SWAP1 POP SWAP2 SWAP1 POP JUMP JUMPDEST PUSH1 0x0 DUP2 SWAP1 POP SWAP2 SWAP1 POP JUMP JUMPDEST PUSH1 0x0 PUSH2 0x24ED DUP3 PUSH2 0x256D JUMP JUMPDEST SWAP1 POP SWAP2 SWAP1 POP JUMP JUMPDEST PUSH1 0x0 DUP2 SWAP1 POP SWAP2 SWAP1 POP JUMP JUMPDEST PUSH32 0x4E487B7100000000000000000000000000000000000000000000000000000000 PUSH1 0x0 MSTORE PUSH1 0x22 PUSH1 0x4 MSTORE PUSH1 0x24 PUSH1 0x0 REVERT JUMPDEST PUSH32 0x4E487B7100000000000000000000000000000000000000000000000000000000 PUSH1 0x0 MSTORE PUSH1 0x41 PUSH1 0x4 MSTORE PUSH1 0x24 PUSH1 0x0 REVERT JUMPDEST PUSH1 0x0 PUSH1 0x1F NOT PUSH1 0x1F DUP4 ADD AND SWAP1 POP SWAP2 SWAP1 POP JUMP JUMPDEST PUSH1 0x0 DUP2 PUSH1 0x60 SHL SWAP1 POP SWAP2 SWAP1 POP JUMP JUMPDEST PUSH2 0x2583 DUP2 PUSH2 0x23F3 JUMP JUMPDEST DUP2 EQ PUSH2 0x258E JUMPI PUSH1 0x0 DUP1 REVERT JUMPDEST POP JUMP JUMPDEST PUSH2 0x259A DUP2 PUSH2 0x2411 JUMP JUMPDEST DUP2 EQ PUSH2 0x25A5 JUMPI PUSH1 0x0 DUP1 REVERT JUMPDEST POP JUMP JUMPDEST PUSH2 0x25B1 DUP2 PUSH2 0x243B JUMP JUMPDEST DUP2 EQ PUSH2 0x25BC JUMPI PUSH1 0x0 DUP1 REVERT JUMPDEST POP JUMP INVALID LOG2 PUSH5 0x6970667358 0x22 SLT KECCAK256 SIGNEXTEND 0xB5 PUSH7 0xA125833300C95A ORIGIN 0xBB CALLDATASIZE PUSH29 0x9D531288CFE93ACE8A927EEA92E75F6E225464736F6C63430008000033 "},"methodIdentifiers":{"enhancedOrders(uint256)":"93fb2545","getEthSignedMessageHash(bytes32)":"fa540801","getMessageHash(uint256,address,uint256,uint256,string)":"3b6877e7","isOrderActive(uint256)":"d6e43585","isOrderExpired(uint256)":"59c69313","orders(uint256)":"a85c38ef","placeOrder(uint256,address,uint256,uint256,string,bytes)":"ed1e9ac5","placeOrderWithExpiry(uint256,address,uint256,uint256,string,bytes,uint256)":"f821622f","recoverSigner(bytes32,bytes)":"97aba7f9","splitSignature(bytes)":"a7bb5803"}}}}}