{"contracts/OrderBook.sol":{"OrderBook":{"abi":[{"anonymous":false,"inputs":[{"indexed":true,"internalType":"uint256","name":"id","type":"uint256"},{"indexed":true,"internalType":"address","name":"buyer","type":"address"},{"indexed":false,"internalType":"uint256","name":"amount","type":"uint256"},{"indexed":false,"internalType":"uint256","name":"price","type":"uint256"},{"indexed":false,"internalType":"string","name":"ipfsHash","type":"string"}],"name":"OrderPlaced","type":"event"},{"anonymous":false,"inputs":[{"indexed":true,"internalType":"uint256","name":"id","type":"uint256"},{"indexed":false,"internalType":"bool","name":"verified","type":"bool"}],"name":"OrderVerified","type":"event"},{"inputs":[{"internalType":"bytes32","name":"_messageHash","type":"bytes32"}],"name":"getEthSignedMessageHash","outputs":[{"internalType":"bytes32","name":"","type":"bytes32"}],"stateMutability":"pure","type":"function"},{"inputs":[{"internalType":"uint256","name":"_id","type":"uint256"},{"internalType":"address","name":"_buyer","type":"address"},{"internalType":"uint256","name":"_amount","type":"uint256"},{"internalType":"uint256","name":"_price","type":"uint256"},{"internalType":"string","name":"_ipfsHash","type":"string"}],"name":"getMessageHash","outputs":[{"internalType":"bytes32","name":"","type":"bytes32"}],"stateMutability":"pure","type":"function"},{"inputs":[{"internalType":"uint256","name":"","type":"uint256"}],"name":"orders","outputs":[{"internalType":"uint256","name":"id","type":"uint256"},{"internalType":"address","name":"buyer","type":"address"},{"internalType":"uint256","name":"amount","type":"uint256"},{"internalType":"uint256","name":"price","type":"uint256"},{"internalType":"string","name":"ipfsHash","type":"string"},{"internalType":"bool","name":"exists","type":"bool"}],"stateMutability":"view","type":"function"},{"inputs":[{"internalType":"uint256","name":"_id","type":"uint256"},{"internalType":"address","name":"_buyer","type":"address"},{"internalType":"uint256","name":"_amount","type":"uint256"},{"internalType":"uint256","name":"_price","type":"uint256"},{"internalType":"string","name":"_ipfsHash","type":"string"},{"internalType":"bytes","name":"_signature","type":"bytes"}],"name":"placeOrder","outputs":[],"stateMutability":"nonpayable","type":"function"},{"inputs":[{"internalType":"bytes32","name":"_messageHash","type":"bytes32"},{"internalType":"bytes","name":"_signature","type":"bytes"}],"name":"recoverSigner","outputs":[{"internalType":"address","name":"","type":"address"}],"stateMutability":"pure","type":"function"},{"inputs":[{"internalType":"bytes","name":"sig","type":"bytes"}],"name":"splitSignature","outputs":[{"internalType":"bytes32","name":"r","type":"bytes32"},{"internalType":"bytes32","name":"s","type":"bytes32"},{"internalType":"uint8","name":"v","type":"uint8"}],"stateMutability":"pure","type":"function"}],"evm":{"bytecode":{"linkReferences":{},"object":"608060405234801561001057600080fd5b50611896806100206000396000f3fe608060405234801561001057600080fd5b50600436106100625760003560e01c80633b6877e71461006757806397aba7f914610097578063a7bb5803146100c7578063a85c38ef146100f9578063ed1e9ac51461012e578063fa5408011461014a575b600080fd5b610081600480360381019061007c91906110e4565b61017a565b60405161008e919061145d565b60405180910390f35b6100b160048036038101906100ac9190611026565b6101f2565b6040516100be9190611427565b60405180910390f35b6100e160048036038101906100dc919061107a565b6104f0565b6040516100f093929190611478565b60405180910390f35b610113600480360381019061010e91906110bb565b610631565b60405161012596959493929190611536565b60405180910390f35b61014860048036038101906101439190611173565b610722565b005b610164600480360381019061015f9190610ffd565b610dd9565b604051610171919061145d565b60405180910390f35b600061019067bc0e72d5aa67a1d760c01b610e45565b6101a4676aadd7eaf4faa0e660c01b610e45565b6101b86774d246f9cf16eafb60c01b610e45565b85858585856040516020016101d19594939291906113cc565b60405160208183030381529060405280519060200120905095945050505050565b60006102086777e81af5f2ed505b60c01b610e45565b61021c673d5616b4f20a127360c01b610e45565b61023067b08e784a68b3996560c01b610e45565b61024467088ce5644b36b26460c01b610e45565b60418251146040518060400160405280601881526020017f496e76616c6964207369676e6174757265206c656e6774680000000000000000815250906102c0576040517f08c379a00000000000000000000000000000000000000000000000000000000081526004016102b791906114f4565b60405180910390fd5b506102d5679edcdb404c4ff42060c01b610e45565b6102e967c31574ade32c2fb560c01b610e45565b6102fd679e20085bd3e35c0f60c01b610e45565b600061030884610dd9565b905061031e67ef2a1d01b9c7565060c01b610e45565b61033267d07f7f3231c67ebf60c01b610e45565b6000806000610340866104f0565b92509250925061035a6712d9869cc597c15460c01b610e45565b61036e674f3f18bd4524b2b760c01b610e45565b60006001858386866040516000815260200160405260405161039394939291906114af565b6020604051602081039080840390855afa1580156103b5573d6000803e3d6000fd5b5050506020604051035190506103d567a89e09f5781ae31d60c01b610e45565b6103e967ca0185a932095c2260c01b610e45565b6103fd677926f4500a8164a760c01b610e45565b600073ffffffffffffffffffffffffffffffffffffffff168173ffffffffffffffffffffffffffffffffffffffff1614156040518060400160405280601181526020017f496e76616c6964207369676e6174757265000000000000000000000000000000815250906104a5576040517f08c379a000000000000000000000000000000000000000000000000000000000815260040161049c91906114f4565b60405180910390fd5b506104ba67590c7f966950afd160c01b610e45565b6104ce67c1adf0c5fab0240560c01b610e45565b6104e267445c5f67233d177160c01b610e45565b809550505050505092915050565b6000806000610509674a9adbd96c529fd460c01b610e45565b61051d67ddf065094d30bf6e60c01b610e45565b61053167c1b178296cd0713b60c01b610e45565b61054567d978e2c4796452c060c01b610e45565b60418451146040518060400160405280601881526020017f496e76616c6964207369676e6174757265206c656e6774680000000000000000815250906105c1576040517f08c379a00000000000000000000000000000000000000000000000000000000081526004016105b891906114f4565b60405180910390fd5b506105d667f7a32724d255ad2a60c01b610e45565b6105ea6705c4d3c643c5b1c360c01b610e45565b6020840151925060408401519150606084015160001a9050610616676a0a3195ef42940360c01b610e45565b61062a674041d37d8f33033560c01b610e45565b9193909250565b60006020528060005260406000206000915090508060000154908060010160009054906101000a900473ffffffffffffffffffffffffffffffffffffffff169080600201549080600301549080600401805461068c90611735565b80601f01602080910402602001604051908101604052809291908181526020018280546106b890611735565b80156107055780601f106106da57610100808354040283529160200191610705565b820191906000526020600020905b8154815290600101906020018083116106e857829003601f168201915b5050505050908060050160009054906101000a900460ff16905086565b61073667f1e32a8efa92d7cf60c01b610e48565b61074a672e44ad0c0a003f7360c01b610e48565b61075e67ad04fc3a8cb5594860c01b610e48565b61077267cdd507f08a2a2bee60c01b610e48565b60008087815260200190815260200160002060050160009054906101000a900460ff16156040518060400160405280601781526020017f4f7264657220494420616c7265616479206578697374730000000000000000008152509061080d576040517f08c379a000000000000000000000000000000000000000000000000000000000815260040161080491906114f4565b60405180910390fd5b5061082267fd6c7f545415ebc060c01b610e48565b610836677a464904c896452860c01b610e48565b61084a67f20dd3a51066381f60c01b610e48565b61085e677d9c77482fc3d51e60c01b610e48565b600084116040518060400160405280602081526020017f416d6f756e74206d7573742062652067726561746572207468616e207a65726f815250906108d9576040517f08c379a00000000000000000000000000000000000000000000000000000000081526004016108d091906114f4565b60405180910390fd5b506108ee67eca81a09ebf8d42160c01b610e48565b610902672c0833d4c76c24f760c01b610e48565b6109166768682f1dad78925260c01b610e48565b61092a67dbc81c595b1780f660c01b610e48565b600083116040518060400160405280601f81526020017f5072696365206d7573742062652067726561746572207468616e207a65726f00815250906109a5576040517f08c379a000000000000000000000000000000000000000000000000000000000815260040161099c91906114f4565b60405180910390fd5b506109ba6712ae7fb4e118303460c01b610e48565b6109ce67f2121135761f606060c01b610e48565b6109e267d9155468f2745ce260c01b610e48565b60008290506109fb67afbec24596df2a8260c01b610e48565b610a0f6772f884d1ddbf029660c01b610e48565b610a2367c715ea265b7e3add60c01b610e48565b602e8151146040518060400160405280601881526020017f496e76616c696420495046532068617368206c656e677468000000000000000081525090610a9f576040517f08c379a0000000000000000000000000000000000000000000000000000000008152600401610a9691906114f4565b60405180910390fd5b50610ab4675a4ca1f2767ffc1a60c01b610e48565b610ac86722669b47ad5e3e2c60c01b610e48565b610adc67d0d3698b49e4cce460c01b610e48565b6000610aeb888888888861017a565b9050610b0167babfd5bc696bd7fb60c01b610e48565b610b1567e2ef5794623c746160c01b610e48565b6000610b2182856101f2565b9050610b3767fc6772bc657b8c4c60c01b610e48565b610b4b67880aaa336ee0fa9d60c01b610e48565b610b5f6746661592ebb273b260c01b610e48565b8773ffffffffffffffffffffffffffffffffffffffff168173ffffffffffffffffffffffffffffffffffffffff1614610bcd576040517f08c379a0000000000000000000000000000000000000000000000000000000008152600401610bc490611516565b60405180910390fd5b610be16731949fa012b7a90460c01b610e48565b610bf56782baf8fe0804ab2060c01b610e48565b6040518060c001604052808a81526020018973ffffffffffffffffffffffffffffffffffffffff168152602001888152602001878152602001868152602001600115158152506000808b81526020019081526020016000206000820151816000015560208201518160010160006101000a81548173ffffffffffffffffffffffffffffffffffffffff021916908373ffffffffffffffffffffffffffffffffffffffff16021790555060408201518160020155606082015181600301556080820151816004019080519060200190610cce929190610e4b565b5060a08201518160050160006101000a81548160ff021916908315150217905550905050610d0667f8bd3216bd351c8460c01b610e48565b610d1a67bbc3cad465118ce260c01b610e48565b8773ffffffffffffffffffffffffffffffffffffffff16897f684f2057bb3a8509f1f7339a074b4a45b6ec52d18ff42336bb628d15d256f308898989604051610d659392919061159e565b60405180910390a3610d8167139a5bb1bf81342f60c01b610e48565b610d9567fb573c4fa30038fc60c01b610e48565b887ff1af884d94e28fcbc40f458caa0f4480ed2be0ea44cd8f4a33439947b455b0636001604051610dc69190611442565b60405180910390a2505050505050505050565b6000610def670cc508dc319380d060c01b610e45565b610e0367cc0dd83dd45bbc0160c01b610e45565b610e1767aa508dc83adf1ffd60c01b610e45565b81604051602001610e2891906113a6565b604051602081830303815290604052805190602001209050919050565b50565b50565b828054610e5790611735565b90600052602060002090601f016020900481019282610e795760008555610ec0565b82601f10610e9257805160ff1916838001178555610ec0565b82800160010185558215610ec0579182015b82811115610ebf578251825591602001919060010190610ea4565b5b509050610ecd9190610ed1565b5090565b5b80821115610eea576000816000905550600101610ed2565b5090565b6000610f01610efc8461160d565b6115dc565b905082815260208101848484011115610f1957600080fd5b610f248482856116f3565b509392505050565b6000610f3f610f3a8461163d565b6115dc565b905082815260208101848484011115610f5757600080fd5b610f628482856116f3565b509392505050565b600081359050610f798161181b565b92915050565b600081359050610f8e81611832565b92915050565b600082601f830112610fa557600080fd5b8135610fb5848260208601610eee565b91505092915050565b600082601f830112610fcf57600080fd5b8135610fdf848260208601610f2c565b91505092915050565b600081359050610ff781611849565b92915050565b60006020828403121561100f57600080fd5b600061101d84828501610f7f565b91505092915050565b6000806040838503121561103957600080fd5b600061104785828601610f7f565b925050602083013567ffffffffffffffff81111561106457600080fd5b61107085828601610f94565b9150509250929050565b60006020828403121561108c57600080fd5b600082013567ffffffffffffffff8111156110a657600080fd5b6110b284828501610f94565b91505092915050565b6000602082840312156110cd57600080fd5b60006110db84828501610fe8565b91505092915050565b600080600080600060a086880312156110fc57600080fd5b600061110a88828901610fe8565b955050602061111b88828901610f6a565b945050604061112c88828901610fe8565b935050606061113d88828901610fe8565b925050608086013567ffffffffffffffff81111561115a57600080fd5b61116688828901610fbe565b9150509295509295909350565b60008060008060008060c0878903121561118c57600080fd5b600061119a89828a01610fe8565b96505060206111ab89828a01610f6a565b95505060406111bc89828a01610fe8565b94505060606111cd89828a01610fe8565b935050608087013567ffffffffffffffff8111156111ea57600080fd5b6111f689828a01610fbe565b92505060a087013567ffffffffffffffff81111561121357600080fd5b61121f89828a01610f94565b9150509295509295509295565b61123581611694565b82525050565b61124c61124782611694565b611767565b82525050565b61125b816116a6565b82525050565b61126a816116b2565b82525050565b61128161127c826116b2565b611779565b82525050565b60006112928261166d565b61129c8185611678565b93506112ac818560208601611702565b6112b5816117fd565b840191505092915050565b60006112cb8261166d565b6112d58185611689565b93506112e5818560208601611702565b80840191505092915050565b60006112fe601c83611689565b91507f19457468657265756d205369676e6564204d6573736167653a0a3332000000006000830152601c82019050919050565b600061133e601183611678565b91507f496e76616c6964207369676e61747572650000000000000000000000000000006000830152602082019050919050565b61137a816116dc565b82525050565b61139161138c826116dc565b611795565b82525050565b6113a0816116e6565b82525050565b60006113b1826112f1565b91506113bd8284611270565b60208201915081905092915050565b60006113d88288611380565b6020820191506113e8828761123b565b6014820191506113f88286611380565b6020820191506114088285611380565b60208201915061141882846112c0565b91508190509695505050505050565b600060208201905061143c600083018461122c565b92915050565b60006020820190506114576000830184611252565b92915050565b60006020820190506114726000830184611261565b92915050565b600060608201905061148d6000830186611261565b61149a6020830185611261565b6114a76040830184611397565b949350505050565b60006080820190506114c46000830187611261565b6114d16020830186611397565b6114de6040830185611261565b6114eb6060830184611261565b95945050505050565b6000602082019050818103600083015261150e8184611287565b905092915050565b6000602082019050818103600083015261152f81611331565b9050919050565b600060c08201905061154b6000830189611371565b611558602083018861122c565b6115656040830187611371565b6115726060830186611371565b81810360808301526115848185611287565b905061159360a0830184611252565b979650505050505050565b60006060820190506115b36000830186611371565b6115c06020830185611371565b81810360408301526115d28184611287565b9050949350505050565b6000604051905081810181811067ffffffffffffffff82111715611603576116026117ce565b5b8060405250919050565b600067ffffffffffffffff821115611628576116276117ce565b5b601f19601f8301169050602081019050919050565b600067ffffffffffffffff821115611658576116576117ce565b5b601f19601f8301169050602081019050919050565b600081519050919050565b600082825260208201905092915050565b600081905092915050565b600061169f826116bc565b9050919050565b60008115159050919050565b6000819050919050565b600073ffffffffffffffffffffffffffffffffffffffff82169050919050565b6000819050919050565b600060ff82169050919050565b82818337600083830152505050565b60005b83811015611720578082015181840152602081019050611705565b8381111561172f576000848401525b50505050565b6000600282049050600182168061174d57607f821691505b602082108114156117615761176061179f565b5b50919050565b600061177282611783565b9050919050565b6000819050919050565b600061178e8261180e565b9050919050565b6000819050919050565b7f4e487b7100000000000000000000000000000000000000000000000000000000600052602260045260246000fd5b7f4e487b7100000000000000000000000000000000000000000000000000000000600052604160045260246000fd5b6000601f19601f8301169050919050565b60008160601b9050919050565b61182481611694565b811461182f57600080fd5b50565b61183b816116b2565b811461184657600080fd5b50565b611852816116dc565b811461185d57600080fd5b5056fea264697066735822122037951badffc364d05ab4be3d5343d7fc7981698d78f22bd017475bb1c5b7e9df64736f6c63430008000033","opcodes":"PUSH1 0x80 PUSH1 0x40 MSTORE CALLVALUE DUP1 ISZERO PUSH2 0x10 JUMPI PUSH1 0x0 DUP1 REVERT JUMPDEST POP PUSH2 0x1896 DUP1 PUSH2 0x20 PUSH1 0x0 CODECOPY PUSH1 0x0 RETURN INVALID PUSH1 0x80 PUSH1 0x40 MSTORE CALLVALUE DUP1 ISZERO PUSH2 0x10 JUMPI PUSH1 0x0 DUP1 REVERT JUMPDEST POP PUSH1 0x4 CALLDATASIZE LT PUSH2 0x62 JUMPI PUSH1 0x0 CALLDATALOAD PUSH1 0xE0 SHR DUP1 PUSH4 0x3B6877E7 EQ PUSH2 0x67 JUMPI DUP1 PUSH4 0x97ABA7F9 EQ PUSH2 0x97 JUMPI DUP1 PUSH4 0xA7BB5803 EQ PUSH2 0xC7 JUMPI DUP1 PUSH4 0xA85C38EF EQ PUSH2 0xF9 JUMPI DUP1 PUSH4 0xED1E9AC5 EQ PUSH2 0x12E JUMPI DUP1 PUSH4 0xFA540801 EQ PUSH2 0x14A JUMPI JUMPDEST PUSH1 0x0 DUP1 REVERT JUMPDEST PUSH2 0x81 PUSH1 0x4 DUP1 CALLDATASIZE SUB DUP2 ADD SWAP1 PUSH2 0x7C SWAP2 SWAP1 PUSH2 0x10E4 JUMP JUMPDEST PUSH2 0x17A JUMP JUMPDEST PUSH1 0x40 MLOAD PUSH2 0x8E SWAP2 SWAP1 PUSH2 0x145D JUMP JUMPDEST PUSH1 0x40 MLOAD DUP1 SWAP2 SUB SWAP1 RETURN JUMPDEST PUSH2 0xB1 PUSH1 0x4 DUP1 CALLDATASIZE SUB DUP2 ADD SWAP1 PUSH2 0xAC SWAP2 SWAP1 PUSH2 0x1026 JUMP JUMPDEST PUSH2 0x1F2 JUMP JUMPDEST PUSH1 0x40 MLOAD PUSH2 0xBE SWAP2 SWAP1 PUSH2 0x1427 JUMP JUMPDEST PUSH1 0x40 MLOAD DUP1 SWAP2 SUB SWAP1 RETURN JUMPDEST PUSH2 0xE1 PUSH1 0x4 DUP1 CALLDATASIZE SUB DUP2 ADD SWAP1 PUSH2 0xDC SWAP2 SWAP1 PUSH2 0x107A JUMP JUMPDEST PUSH2 0x4F0 JUMP JUMPDEST PUSH1 0x40 MLOAD PUSH2 0xF0 SWAP4 SWAP3 SWAP2 SWAP1 PUSH2 0x1478 JUMP JUMPDEST PUSH1 0x40 MLOAD DUP1 SWAP2 SUB SWAP1 RETURN JUMPDEST PUSH2 0x113 PUSH1 0x4 DUP1 CALLDATASIZE SUB DUP2 ADD SWAP1 PUSH2 0x10E SWAP2 SWAP1 PUSH2 0x10BB JUMP JUMPDEST PUSH2 0x631 JUMP JUMPDEST PUSH1 0x40 MLOAD PUSH2 0x125 SWAP7 SWAP6 SWAP5 SWAP4 SWAP3 SWAP2 SWAP1 PUSH2 0x1536 JUMP JUMPDEST PUSH1 0x40 MLOAD DUP1 SWAP2 SUB SWAP1 RETURN JUMPDEST PUSH2 0x148 PUSH1 0x4 DUP1 CALLDATASIZE SUB DUP2 ADD SWAP1 PUSH2 0x143 SWAP2 SWAP1 PUSH2 0x1173 JUMP JUMPDEST PUSH2 0x722 JUMP JUMPDEST STOP JUMPDEST PUSH2 0x164 PUSH1 0x4 DUP1 CALLDATASIZE SUB DUP2 ADD SWAP1 PUSH2 0x15F SWAP2 SWAP1 PUSH2 0xFFD JUMP JUMPDEST PUSH2 0xDD9 JUMP JUMPDEST PUSH1 0x40 MLOAD PUSH2 0x171 SWAP2 SWAP1 PUSH2 0x145D JUMP JUMPDEST PUSH1 0x40 MLOAD DUP1 SWAP2 SUB SWAP1 RETURN JUMPDEST PUSH1 0x0 PUSH2 0x190 PUSH8 0xBC0E72D5AA67A1D7 PUSH1 0xC0 SHL PUSH2 0xE45 JUMP JUMPDEST PUSH2 0x1A4 PUSH8 0x6AADD7EAF4FAA0E6 PUSH1 0xC0 SHL PUSH2 0xE45 JUMP JUMPDEST PUSH2 0x1B8 PUSH8 0x74D246F9CF16EAFB PUSH1 0xC0 SHL PUSH2 0xE45 JUMP JUMPDEST DUP6 DUP6 DUP6 DUP6 DUP6 PUSH1 0x40 MLOAD PUSH1 0x20 ADD PUSH2 0x1D1 SWAP6 SWAP5 SWAP4 SWAP3 SWAP2 SWAP1 PUSH2 0x13CC JUMP JUMPDEST PUSH1 0x40 MLOAD PUSH1 0x20 DUP2 DUP4 SUB SUB DUP2 MSTORE SWAP1 PUSH1 0x40 MSTORE DUP1 MLOAD SWAP1 PUSH1 0x20 ADD KECCAK256 SWAP1 POP SWAP6 SWAP5 POP POP POP POP POP JUMP JUMPDEST PUSH1 0x0 PUSH2 0x208 PUSH8 0x77E81AF5F2ED505B PUSH1 0xC0 SHL PUSH2 0xE45 JUMP JUMPDEST PUSH2 0x21C PUSH8 0x3D5616B4F20A1273 PUSH1 0xC0 SHL PUSH2 0xE45 JUMP JUMPDEST PUSH2 0x230 PUSH8 0xB08E784A68B39965 PUSH1 0xC0 SHL PUSH2 0xE45 JUMP JUMPDEST PUSH2 0x244 PUSH8 0x88CE5644B36B264 PUSH1 0xC0 SHL PUSH2 0xE45 JUMP JUMPDEST PUSH1 0x41 DUP3 MLOAD EQ PUSH1 0x40 MLOAD DUP1 PUSH1 0x40 ADD PUSH1 0x40 MSTORE DUP1 PUSH1 0x18 DUP2 MSTORE PUSH1 0x20 ADD PUSH32 0x496E76616C6964207369676E6174757265206C656E6774680000000000000000 DUP2 MSTORE POP SWAP1 PUSH2 0x2C0 JUMPI PUSH1 0x40 MLOAD PUSH32 0x8C379A000000000000000000000000000000000000000000000000000000000 DUP2 MSTORE PUSH1 0x4 ADD PUSH2 0x2B7 SWAP2 SWAP1 PUSH2 0x14F4 JUMP JUMPDEST PUSH1 0x40 MLOAD DUP1 SWAP2 SUB SWAP1 REVERT JUMPDEST POP PUSH2 0x2D5 PUSH8 0x9EDCDB404C4FF420 PUSH1 0xC0 SHL PUSH2 0xE45 JUMP JUMPDEST PUSH2 0x2E9 PUSH8 0xC31574ADE32C2FB5 PUSH1 0xC0 SHL PUSH2 0xE45 JUMP JUMPDEST PUSH2 0x2FD PUSH8 0x9E20085BD3E35C0F PUSH1 0xC0 SHL PUSH2 0xE45 JUMP JUMPDEST PUSH1 0x0 PUSH2 0x308 DUP5 PUSH2 0xDD9 JUMP JUMPDEST SWAP1 POP PUSH2 0x31E PUSH8 0xEF2A1D01B9C75650 PUSH1 0xC0 SHL PUSH2 0xE45 JUMP JUMPDEST PUSH2 0x332 PUSH8 0xD07F7F3231C67EBF PUSH1 0xC0 SHL PUSH2 0xE45 JUMP JUMPDEST PUSH1 0x0 DUP1 PUSH1 0x0 PUSH2 0x340 DUP7 PUSH2 0x4F0 JUMP JUMPDEST SWAP3 POP SWAP3 POP SWAP3 POP PUSH2 0x35A PUSH8 0x12D9869CC597C154 PUSH1 0xC0 SHL PUSH2 0xE45 JUMP JUMPDEST PUSH2 0x36E PUSH8 0x4F3F18BD4524B2B7 PUSH1 0xC0 SHL PUSH2 0xE45 JUMP JUMPDEST PUSH1 0x0 PUSH1 0x1 DUP6 DUP4 DUP7 DUP7 PUSH1 0x40 MLOAD PUSH1 0x0 DUP2 MSTORE PUSH1 0x20 ADD PUSH1 0x40 MSTORE PUSH1 0x40 MLOAD PUSH2 0x393 SWAP5 SWAP4 SWAP3 SWAP2 SWAP1 PUSH2 0x14AF JUMP JUMPDEST PUSH1 0x20 PUSH1 0x40 MLOAD PUSH1 0x20 DUP2 SUB SWAP1 DUP1 DUP5 SUB SWAP1 DUP6 GAS STATICCALL ISZERO DUP1 ISZERO PUSH2 0x3B5 JUMPI RETURNDATASIZE PUSH1 0x0 DUP1 RETURNDATACOPY RETURNDATASIZE PUSH1 0x0 REVERT JUMPDEST POP POP POP PUSH1 0x20 PUSH1 0x40 MLOAD SUB MLOAD SWAP1 POP PUSH2 0x3D5 PUSH8 0xA89E09F5781AE31D PUSH1 0xC0 SHL PUSH2 0xE45 JUMP JUMPDEST PUSH2 0x3E9 PUSH8 0xCA0185A932095C22 PUSH1 0xC0 SHL PUSH2 0xE45 JUMP JUMPDEST PUSH2 0x3FD PUSH8 0x7926F4500A8164A7 PUSH1 0xC0 SHL PUSH2 0xE45 JUMP JUMPDEST PUSH1 0x0 PUSH20 0xFFFFFFFFFFFFFFFFFFFFFFFFFFFFFFFFFFFFFFFF AND DUP2 PUSH20 0xFFFFFFFFFFFFFFFFFFFFFFFFFFFFFFFFFFFFFFFF AND EQ ISZERO PUSH1 0x40 MLOAD DUP1 PUSH1 0x40 ADD PUSH1 0x40 MSTORE DUP1 PUSH1 0x11 DUP2 MSTORE PUSH1 0x20 ADD PUSH32 0x496E76616C6964207369676E6174757265000000000000000000000000000000 DUP2 MSTORE POP SWAP1 PUSH2 0x4A5 JUMPI PUSH1 0x40 MLOAD PUSH32 0x8C379A000000000000000000000000000000000000000000000000000000000 DUP2 MSTORE PUSH1 0x4 ADD PUSH2 0x49C SWAP2 SWAP1 PUSH2 0x14F4 JUMP JUMPDEST PUSH1 0x40 MLOAD DUP1 SWAP2 SUB SWAP1 REVERT JUMPDEST POP PUSH2 0x4BA PUSH8 0x590C7F966950AFD1 PUSH1 0xC0 SHL PUSH2 0xE45 JUMP JUMPDEST PUSH2 0x4CE PUSH8 0xC1ADF0C5FAB02405 PUSH1 0xC0 SHL PUSH2 0xE45 JUMP JUMPDEST PUSH2 0x4E2 PUSH8 0x445C5F67233D1771 PUSH1 0xC0 SHL PUSH2 0xE45 JUMP JUMPDEST DUP1 SWAP6 POP POP POP POP POP POP SWAP3 SWAP2 POP POP JUMP JUMPDEST PUSH1 0x0 DUP1 PUSH1 0x0 PUSH2 0x509 PUSH8 0x4A9ADBD96C529FD4 PUSH1 0xC0 SHL PUSH2 0xE45 JUMP JUMPDEST PUSH2 0x51D PUSH8 0xDDF065094D30BF6E PUSH1 0xC0 SHL PUSH2 0xE45 JUMP JUMPDEST PUSH2 0x531 PUSH8 0xC1B178296CD0713B PUSH1 0xC0 SHL PUSH2 0xE45 JUMP JUMPDEST PUSH2 0x545 PUSH8 0xD978E2C4796452C0 PUSH1 0xC0 SHL PUSH2 0xE45 JUMP JUMPDEST PUSH1 0x41 DUP5 MLOAD EQ PUSH1 0x40 MLOAD DUP1 PUSH1 0x40 ADD PUSH1 0x40 MSTORE DUP1 PUSH1 0x18 DUP2 MSTORE PUSH1 0x20 ADD PUSH32 0x496E76616C6964207369676E6174757265206C656E6774680000000000000000 DUP2 MSTORE POP SWAP1 PUSH2 0x5C1 JUMPI PUSH1 0x40 MLOAD PUSH32 0x8C379A000000000000000000000000000000000000000000000000000000000 DUP2 MSTORE PUSH1 0x4 ADD PUSH2 0x5B8 SWAP2 SWAP1 PUSH2 0x14F4 JUMP JUMPDEST PUSH1 0x40 MLOAD DUP1 SWAP2 SUB SWAP1 REVERT JUMPDEST POP PUSH2 0x5D6 PUSH8 0xF7A32724D255AD2A PUSH1 0xC0 SHL PUSH2 0xE45 JUMP JUMPDEST PUSH2 0x5EA PUSH8 0x5C4D3C643C5B1C3 PUSH1 0xC0 SHL PUSH2 0xE45 JUMP JUMPDEST PUSH1 0x20 DUP5 ADD MLOAD SWAP3 POP PUSH1 0x40 DUP5 ADD MLOAD SWAP2 POP PUSH1 0x60 DUP5 ADD MLOAD PUSH1 0x0 BYTE SWAP1 POP PUSH2 0x616 PUSH8 0x6A0A3195EF429403 PUSH1 0xC0 SHL PUSH2 0xE45 JUMP JUMPDEST PUSH2 0x62A PUSH8 0x4041D37D8F330335 PUSH1 0xC0 SHL PUSH2 0xE45 JUMP JUMPDEST SWAP2 SWAP4 SWAP1 SWAP3 POP JUMP JUMPDEST PUSH1 0x0 PUSH1 0x20 MSTORE DUP1 PUSH1 0x0 MSTORE PUSH1 0x40 PUSH1 0x0 KECCAK256 PUSH1 0x0 SWAP2 POP SWAP1 POP DUP1 PUSH1 0x0 ADD SLOAD SWAP1 DUP1 PUSH1 0x1 ADD PUSH1 0x0 SWAP1 SLOAD SWAP1 PUSH2 0x100 EXP SWAP1 DIV PUSH20 0xFFFFFFFFFFFFFFFFFFFFFFFFFFFFFFFFFFFFFFFF AND SWAP1 DUP1 PUSH1 0x2 ADD SLOAD SWAP1 DUP1 PUSH1 0x3 ADD SLOAD SWAP1 DUP1 PUSH1 0x4 ADD DUP1 SLOAD PUSH2 0x68C SWAP1 PUSH2 0x1735 JUMP JUMPDEST DUP1 PUSH1 0x1F ADD PUSH1 0x20 DUP1 SWAP2 DIV MUL PUSH1 0x20 ADD PUSH1 0x40 MLOAD SWAP1 DUP2 ADD PUSH1 0x40 MSTORE DUP1 SWAP3 SWAP2 SWAP1 DUP2 DUP2 MSTORE PUSH1 0x20 ADD DUP3 DUP1 SLOAD PUSH2 0x6B8 SWAP1 PUSH2 0x1735 JUMP JUMPDEST DUP1 ISZERO PUSH2 0x705 JUMPI DUP1 PUSH1 0x1F LT PUSH2 0x6DA JUMPI PUSH2 0x100 DUP1 DUP4 SLOAD DIV MUL DUP4 MSTORE SWAP2 PUSH1 0x20 ADD SWAP2 PUSH2 0x705 JUMP JUMPDEST DUP3 ADD SWAP2 SWAP1 PUSH1 0x0 MSTORE PUSH1 0x20 PUSH1 0x0 KECCAK256 SWAP1 JUMPDEST DUP2 SLOAD DUP2 MSTORE SWAP1 PUSH1 0x1 ADD SWAP1 PUSH1 0x20 ADD DUP1 DUP4 GT PUSH2 0x6E8 JUMPI DUP3 SWAP1 SUB PUSH1 0x1F AND DUP3 ADD SWAP2 JUMPDEST POP POP POP POP POP SWAP1 DUP1 PUSH1 0x5 ADD PUSH1 0x0 SWAP1 SLOAD SWAP1 PUSH2 0x100 EXP SWAP1 DIV PUSH1 0xFF AND SWAP1 POP DUP7 JUMP JUMPDEST PUSH2 0x736 PUSH8 0xF1E32A8EFA92D7CF PUSH1 0xC0 SHL PUSH2 0xE48 JUMP JUMPDEST PUSH2 0x74A PUSH8 0x2E44AD0C0A003F73 PUSH1 0xC0 SHL PUSH2 0xE48 JUMP JUMPDEST PUSH2 0x75E PUSH8 0xAD04FC3A8CB55948 PUSH1 0xC0 SHL PUSH2 0xE48 JUMP JUMPDEST PUSH2 0x772 PUSH8 0xCDD507F08A2A2BEE PUSH1 0xC0 SHL PUSH2 0xE48 JUMP JUMPDEST PUSH1 0x0 DUP1 DUP8 DUP2 MSTORE PUSH1 0x20 ADD SWAP1 DUP2 MSTORE PUSH1 0x20 ADD PUSH1 0x0 KECCAK256 PUSH1 0x5 ADD PUSH1 0x0 SWAP1 SLOAD SWAP1 PUSH2 0x100 EXP SWAP1 DIV PUSH1 0xFF AND ISZERO PUSH1 0x40 MLOAD DUP1 PUSH1 0x40 ADD PUSH1 0x40 MSTORE DUP1 PUSH1 0x17 DUP2 MSTORE PUSH1 0x20 ADD PUSH32 0x4F7264657220494420616C726561647920657869737473000000000000000000 DUP2 MSTORE POP SWAP1 PUSH2 0x80D JUMPI PUSH1 0x40 MLOAD PUSH32 0x8C379A000000000000000000000000000000000000000000000000000000000 DUP2 MSTORE PUSH1 0x4 ADD PUSH2 0x804 SWAP2 SWAP1 PUSH2 0x14F4 JUMP JUMPDEST PUSH1 0x40 MLOAD DUP1 SWAP2 SUB SWAP1 REVERT JUMPDEST POP PUSH2 0x822 PUSH8 0xFD6C7F545415EBC0 PUSH1 0xC0 SHL PUSH2 0xE48 JUMP JUMPDEST PUSH2 0x836 PUSH8 0x7A464904C8964528 PUSH1 0xC0 SHL PUSH2 0xE48 JUMP JUMPDEST PUSH2 0x84A PUSH8 0xF20DD3A51066381F PUSH1 0xC0 SHL PUSH2 0xE48 JUMP JUMPDEST PUSH2 0x85E PUSH8 0x7D9C77482FC3D51E PUSH1 0xC0 SHL PUSH2 0xE48 JUMP JUMPDEST PUSH1 0x0 DUP5 GT PUSH1 0x40 MLOAD DUP1 PUSH1 0x40 ADD PUSH1 0x40 MSTORE DUP1 PUSH1 0x20 DUP2 MSTORE PUSH1 0x20 ADD PUSH32 0x416D6F756E74206D7573742062652067726561746572207468616E207A65726F DUP2 MSTORE POP SWAP1 PUSH2 0x8D9 JUMPI PUSH1 0x40 MLOAD PUSH32 0x8C379A000000000000000000000000000000000000000000000000000000000 DUP2 MSTORE PUSH1 0x4 ADD PUSH2 0x8D0 SWAP2 SWAP1 PUSH2 0x14F4 JUMP JUMPDEST PUSH1 0x40 MLOAD DUP1 SWAP2 SUB SWAP1 REVERT JUMPDEST POP PUSH2 0x8EE PUSH8 0xECA81A09EBF8D421 PUSH1 0xC0 SHL PUSH2 0xE48 JUMP JUMPDEST PUSH2 0x902 PUSH8 0x2C0833D4C76C24F7 PUSH1 0xC0 SHL PUSH2 0xE48 JUMP JUMPDEST PUSH2 0x916 PUSH8 0x68682F1DAD789252 PUSH1 0xC0 SHL PUSH2 0xE48 JUMP JUMPDEST PUSH2 0x92A PUSH8 0xDBC81C595B1780F6 PUSH1 0xC0 SHL PUSH2 0xE48 JUMP JUMPDEST PUSH1 0x0 DUP4 GT PUSH1 0x40 MLOAD DUP1 PUSH1 0x40 ADD PUSH1 0x40 MSTORE DUP1 PUSH1 0x1F DUP2 MSTORE PUSH1 0x20 ADD PUSH32 0x5072696365206D7573742062652067726561746572207468616E207A65726F00 DUP2 MSTORE POP SWAP1 PUSH2 0x9A5 JUMPI PUSH1 0x40 MLOAD PUSH32 0x8C379A000000000000000000000000000000000000000000000000000000000 DUP2 MSTORE PUSH1 0x4 ADD PUSH2 0x99C SWAP2 SWAP1 PUSH2 0x14F4 JUMP JUMPDEST PUSH1 0x40 MLOAD DUP1 SWAP2 SUB SWAP1 REVERT JUMPDEST POP PUSH2 0x9BA PUSH8 0x12AE7FB4E1183034 PUSH1 0xC0 SHL PUSH2 0xE48 JUMP JUMPDEST PUSH2 0x9CE PUSH8 0xF2121135761F6060 PUSH1 0xC0 SHL PUSH2 0xE48 JUMP JUMPDEST PUSH2 0x9E2 PUSH8 0xD9155468F2745CE2 PUSH1 0xC0 SHL PUSH2 0xE48 JUMP JUMPDEST PUSH1 0x0 DUP3 SWAP1 POP PUSH2 0x9FB PUSH8 0xAFBEC24596DF2A82 PUSH1 0xC0 SHL PUSH2 0xE48 JUMP JUMPDEST PUSH2 0xA0F PUSH8 0x72F884D1DDBF0296 PUSH1 0xC0 SHL PUSH2 0xE48 JUMP JUMPDEST PUSH2 0xA23 PUSH8 0xC715EA265B7E3ADD PUSH1 0xC0 SHL PUSH2 0xE48 JUMP JUMPDEST PUSH1 0x2E DUP2 MLOAD EQ PUSH1 0x40 MLOAD DUP1 PUSH1 0x40 ADD PUSH1 0x40 MSTORE DUP1 PUSH1 0x18 DUP2 MSTORE PUSH1 0x20 ADD PUSH32 0x496E76616C696420495046532068617368206C656E6774680000000000000000 DUP2 MSTORE POP SWAP1 PUSH2 0xA9F JUMPI PUSH1 0x40 MLOAD PUSH32 0x8C379A000000000000000000000000000000000000000000000000000000000 DUP2 MSTORE PUSH1 0x4 ADD PUSH2 0xA96 SWAP2 SWAP1 PUSH2 0x14F4 JUMP JUMPDEST PUSH1 0x40 MLOAD DUP1 SWAP2 SUB SWAP1 REVERT JUMPDEST POP PUSH2 0xAB4 PUSH8 0x5A4CA1F2767FFC1A PUSH1 0xC0 SHL PUSH2 0xE48 JUMP JUMPDEST PUSH2 0xAC8 PUSH8 0x22669B47AD5E3E2C PUSH1 0xC0 SHL PUSH2 0xE48 JUMP JUMPDEST PUSH2 0xADC PUSH8 0xD0D3698B49E4CCE4 PUSH1 0xC0 SHL PUSH2 0xE48 JUMP JUMPDEST PUSH1 0x0 PUSH2 0xAEB DUP9 DUP9 DUP9 DUP9 DUP9 PUSH2 0x17A JUMP JUMPDEST SWAP1 POP PUSH2 0xB01 PUSH8 0xBABFD5BC696BD7FB PUSH1 0xC0 SHL PUSH2 0xE48 JUMP JUMPDEST PUSH2 0xB15 PUSH8 0xE2EF5794623C7461 PUSH1 0xC0 SHL PUSH2 0xE48 JUMP JUMPDEST PUSH1 0x0 PUSH2 0xB21 DUP3 DUP6 PUSH2 0x1F2 JUMP JUMPDEST SWAP1 POP PUSH2 0xB37 PUSH8 0xFC6772BC657B8C4C PUSH1 0xC0 SHL PUSH2 0xE48 JUMP JUMPDEST PUSH2 0xB4B PUSH8 0x880AAA336EE0FA9D PUSH1 0xC0 SHL PUSH2 0xE48 JUMP JUMPDEST PUSH2 0xB5F PUSH8 0x46661592EBB273B2 PUSH1 0xC0 SHL PUSH2 0xE48 JUMP JUMPDEST DUP8 PUSH20 0xFFFFFFFFFFFFFFFFFFFFFFFFFFFFFFFFFFFFFFFF AND DUP2 PUSH20 0xFFFFFFFFFFFFFFFFFFFFFFFFFFFFFFFFFFFFFFFF AND EQ PUSH2 0xBCD JUMPI PUSH1 0x40 MLOAD PUSH32 0x8C379A000000000000000000000000000000000000000000000000000000000 DUP2 MSTORE PUSH1 0x4 ADD PUSH2 0xBC4 SWAP1 PUSH2 0x1516 JUMP JUMPDEST PUSH1 0x40 MLOAD DUP1 SWAP2 SUB SWAP1 REVERT JUMPDEST PUSH2 0xBE1 PUSH8 0x31949FA012B7A904 PUSH1 0xC0 SHL PUSH2 0xE48 JUMP JUMPDEST PUSH2 0xBF5 PUSH8 0x82BAF8FE0804AB20 PUSH1 0xC0 SHL PUSH2 0xE48 JUMP JUMPDEST PUSH1 0x40 MLOAD DUP1 PUSH1 0xC0 ADD PUSH1 0x40 MSTORE DUP1 DUP11 DUP2 MSTORE PUSH1 0x20 ADD DUP10 PUSH20 0xFFFFFFFFFFFFFFFFFFFFFFFFFFFFFFFFFFFFFFFF AND DUP2 MSTORE PUSH1 0x20 ADD DUP9 DUP2 MSTORE PUSH1 0x20 ADD DUP8 DUP2 MSTORE PUSH1 0x20 ADD DUP7 DUP2 MSTORE PUSH1 0x20 ADD PUSH1 0x1 ISZERO ISZERO DUP2 MSTORE POP PUSH1 0x0 DUP1 DUP12 DUP2 MSTORE PUSH1 0x20 ADD SWAP1 DUP2 MSTORE PUSH1 0x20 ADD PUSH1 0x0 KECCAK256 PUSH1 0x0 DUP3 ADD MLOAD DUP2 PUSH1 0x0 ADD SSTORE PUSH1 0x20 DUP3 ADD MLOAD DUP2 PUSH1 0x1 ADD PUSH1 0x0 PUSH2 0x100 EXP DUP2 SLOAD DUP2 PUSH20 0xFFFFFFFFFFFFFFFFFFFFFFFFFFFFFFFFFFFFFFFF MUL NOT AND SWAP1 DUP4 PUSH20 0xFFFFFFFFFFFFFFFFFFFFFFFFFFFFFFFFFFFFFFFF AND MUL OR SWAP1 SSTORE POP PUSH1 0x40 DUP3 ADD MLOAD DUP2 PUSH1 0x2 ADD SSTORE PUSH1 0x60 DUP3 ADD MLOAD DUP2 PUSH1 0x3 ADD SSTORE PUSH1 0x80 DUP3 ADD MLOAD DUP2 PUSH1 0x4 ADD SWAP1 DUP1 MLOAD SWAP1 PUSH1 0x20 ADD SWAP1 PUSH2 0xCCE SWAP3 SWAP2 SWAP1 PUSH2 0xE4B JUMP JUMPDEST POP PUSH1 0xA0 DUP3 ADD MLOAD DUP2 PUSH1 0x5 ADD PUSH1 0x0 PUSH2 0x100 EXP DUP2 SLOAD DUP2 PUSH1 0xFF MUL NOT AND SWAP1 DUP4 ISZERO ISZERO MUL OR SWAP1 SSTORE POP SWAP1 POP POP PUSH2 0xD06 PUSH8 0xF8BD3216BD351C84 PUSH1 0xC0 SHL PUSH2 0xE48 JUMP JUMPDEST PUSH2 0xD1A PUSH8 0xBBC3CAD465118CE2 PUSH1 0xC0 SHL PUSH2 0xE48 JUMP JUMPDEST DUP8 PUSH20 0xFFFFFFFFFFFFFFFFFFFFFFFFFFFFFFFFFFFFFFFF AND DUP10 PUSH32 0x684F2057BB3A8509F1F7339A074B4A45B6EC52D18FF42336BB628D15D256F308 DUP10 DUP10 DUP10 PUSH1 0x40 MLOAD PUSH2 0xD65 SWAP4 SWAP3 SWAP2 SWAP1 PUSH2 0x159E JUMP JUMPDEST PUSH1 0x40 MLOAD DUP1 SWAP2 SUB SWAP1 LOG3 PUSH2 0xD81 PUSH8 0x139A5BB1BF81342F PUSH1 0xC0 SHL PUSH2 0xE48 JUMP JUMPDEST PUSH2 0xD95 PUSH8 0xFB573C4FA30038FC PUSH1 0xC0 SHL PUSH2 0xE48 JUMP JUMPDEST DUP9 PUSH32 0xF1AF884D94E28FCBC40F458CAA0F4480ED2BE0EA44CD8F4A33439947B455B063 PUSH1 0x1 PUSH1 0x40 MLOAD PUSH2 0xDC6 SWAP2 SWAP1 PUSH2 0x1442 JUMP JUMPDEST PUSH1 0x40 MLOAD DUP1 SWAP2 SUB SWAP1 LOG2 POP POP POP POP POP POP POP POP POP JUMP JUMPDEST PUSH1 0x0 PUSH2 0xDEF PUSH8 0xCC508DC319380D0 PUSH1 0xC0 SHL PUSH2 0xE45 JUMP JUMPDEST PUSH2 0xE03 PUSH8 0xCC0DD83DD45BBC01 PUSH1 0xC0 SHL PUSH2 0xE45 JUMP JUMPDEST PUSH2 0xE17 PUSH8 0xAA508DC83ADF1FFD PUSH1 0xC0 SHL PUSH2 0xE45 JUMP JUMPDEST DUP2 PUSH1 0x40 MLOAD PUSH1 0x20 ADD PUSH2 0xE28 SWAP2 SWAP1 PUSH2 0x13A6 JUMP JUMPDEST PUSH1 0x40 MLOAD PUSH1 0x20 DUP2 DUP4 SUB SUB DUP2 MSTORE SWAP1 PUSH1 0x40 MSTORE DUP1 MLOAD SWAP1 PUSH1 0x20 ADD KECCAK256 SWAP1 POP SWAP2 SWAP1 POP JUMP JUMPDEST POP JUMP JUMPDEST POP JUMP JUMPDEST DUP3 DUP1 SLOAD PUSH2 0xE57 SWAP1 PUSH2 0x1735 JUMP JUMPDEST SWAP1 PUSH1 0x0 MSTORE PUSH1 0x20 PUSH1 0x0 KECCAK256 SWAP1 PUSH1 0x1F ADD PUSH1 0x20 SWAP1 DIV DUP2 ADD SWAP3 DUP3 PUSH2 0xE79 JUMPI PUSH1 0x0 DUP6 SSTORE PUSH2 0xEC0 JUMP JUMPDEST DUP3 PUSH1 0x1F LT PUSH2 0xE92 JUMPI DUP1 MLOAD PUSH1 0xFF NOT AND DUP4 DUP1 ADD OR DUP6 SSTORE PUSH2 0xEC0 JUMP JUMPDEST DUP3 DUP1 ADD PUSH1 0x1 ADD DUP6 SSTORE DUP3 ISZERO PUSH2 0xEC0 JUMPI SWAP2 DUP3 ADD JUMPDEST DUP3 DUP2 GT ISZERO PUSH2 0xEBF JUMPI DUP3 MLOAD DUP3 SSTORE SWAP2 PUSH1 0x20 ADD SWAP2 SWAP1 PUSH1 0x1 ADD SWAP1 PUSH2 0xEA4 JUMP JUMPDEST JUMPDEST POP SWAP1 POP PUSH2 0xECD SWAP2 SWAP1 PUSH2 0xED1 JUMP JUMPDEST POP SWAP1 JUMP JUMPDEST JUMPDEST DUP1 DUP3 GT ISZERO PUSH2 0xEEA JUMPI PUSH1 0x0 DUP2 PUSH1 0x0 SWAP1 SSTORE POP PUSH1 0x1 ADD PUSH2 0xED2 JUMP JUMPDEST POP SWAP1 JUMP JUMPDEST PUSH1 0x0 PUSH2 0xF01 PUSH2 0xEFC DUP5 PUSH2 0x160D JUMP JUMPDEST PUSH2 0x15DC JUMP JUMPDEST SWAP1 POP DUP3 DUP2 MSTORE PUSH1 0x20 DUP2 ADD DUP5 DUP5 DUP5 ADD GT ISZERO PUSH2 0xF19 JUMPI PUSH1 0x0 DUP1 REVERT JUMPDEST PUSH2 0xF24 DUP5 DUP3 DUP6 PUSH2 0x16F3 JUMP JUMPDEST POP SWAP4 SWAP3 POP POP POP JUMP JUMPDEST PUSH1 0x0 PUSH2 0xF3F PUSH2 0xF3A DUP5 PUSH2 0x163D JUMP JUMPDEST PUSH2 0x15DC JUMP JUMPDEST SWAP1 POP DUP3 DUP2 MSTORE PUSH1 0x20 DUP2 ADD DUP5 DUP5 DUP5 ADD GT ISZERO PUSH2 0xF57 JUMPI PUSH1 0x0 DUP1 REVERT JUMPDEST PUSH2 0xF62 DUP5 DUP3 DUP6 PUSH2 0x16F3 JUMP JUMPDEST POP SWAP4 SWAP3 POP POP POP JUMP JUMPDEST PUSH1 0x0 DUP2 CALLDATALOAD SWAP1 POP PUSH2 0xF79 DUP2 PUSH2 0x181B JUMP JUMPDEST SWAP3 SWAP2 POP POP JUMP JUMPDEST PUSH1 0x0 DUP2 CALLDATALOAD SWAP1 POP PUSH2 0xF8E DUP2 PUSH2 0x1832 JUMP JUMPDEST SWAP3 SWAP2 POP POP JUMP JUMPDEST PUSH1 0x0 DUP3 PUSH1 0x1F DUP4 ADD SLT PUSH2 0xFA5 JUMPI PUSH1 0x0 DUP1 REVERT JUMPDEST DUP2 CALLDATALOAD PUSH2 0xFB5 DUP5 DUP3 PUSH1 0x20 DUP7 ADD PUSH2 0xEEE JUMP JUMPDEST SWAP2 POP POP SWAP3 SWAP2 POP POP JUMP JUMPDEST PUSH1 0x0 DUP3 PUSH1 0x1F DUP4 ADD SLT PUSH2 0xFCF JUMPI PUSH1 0x0 DUP1 REVERT JUMPDEST DUP2 CALLDATALOAD PUSH2 0xFDF DUP5 DUP3 PUSH1 0x20 DUP7 ADD PUSH2 0xF2C JUMP JUMPDEST SWAP2 POP POP SWAP3 SWAP2 POP POP JUMP JUMPDEST PUSH1 0x0 DUP2 CALLDATALOAD SWAP1 POP PUSH2 0xFF7 DUP2 PUSH2 0x1849 JUMP JUMPDEST SWAP3 SWAP2 POP POP JUMP JUMPDEST PUSH1 0x0 PUSH1 0x20 DUP3 DUP5 SUB SLT ISZERO PUSH2 0x100F JUMPI PUSH1 0x0 DUP1 REVERT JUMPDEST PUSH1 0x0 PUSH2 0x101D DUP5 DUP3 DUP6 ADD PUSH2 0xF7F JUMP JUMPDEST SWAP2 POP POP SWAP3 SWAP2 POP POP JUMP JUMPDEST PUSH1 0x0 DUP1 PUSH1 0x40 DUP4 DUP6 SUB SLT ISZERO PUSH2 0x1039 JUMPI PUSH1 0x0 DUP1 REVERT JUMPDEST PUSH1 0x0 PUSH2 0x1047 DUP6 DUP3 DUP7 ADD PUSH2 0xF7F JUMP JUMPDEST SWAP3 POP POP PUSH1 0x20 DUP4 ADD CALLDATALOAD PUSH8 0xFFFFFFFFFFFFFFFF DUP2 GT ISZERO PUSH2 0x1064 JUMPI PUSH1 0x0 DUP1 REVERT JUMPDEST PUSH2 0x1070 DUP6 DUP3 DUP7 ADD PUSH2 0xF94 JUMP JUMPDEST SWAP2 POP POP SWAP3 POP SWAP3 SWAP1 POP JUMP JUMPDEST PUSH1 0x0 PUSH1 0x20 DUP3 DUP5 SUB SLT ISZERO PUSH2 0x108C JUMPI PUSH1 0x0 DUP1 REVERT JUMPDEST PUSH1 0x0 DUP3 ADD CALLDATALOAD PUSH8 0xFFFFFFFFFFFFFFFF DUP2 GT ISZERO PUSH2 0x10A6 JUMPI PUSH1 0x0 DUP1 REVERT JUMPDEST PUSH2 0x10B2 DUP5 DUP3 DUP6 ADD PUSH2 0xF94 JUMP JUMPDEST SWAP2 POP POP SWAP3 SWAP2 POP POP JUMP JUMPDEST PUSH1 0x0 PUSH1 0x20 DUP3 DUP5 SUB SLT ISZERO PUSH2 0x10CD JUMPI PUSH1 0x0 DUP1 REVERT JUMPDEST PUSH1 0x0 PUSH2 0x10DB DUP5 DUP3 DUP6 ADD PUSH2 0xFE8 JUMP JUMPDEST SWAP2 POP POP SWAP3 SWAP2 POP POP JUMP JUMPDEST PUSH1 0x0 DUP1 PUSH1 0x0 DUP1 PUSH1 0x0 PUSH1 0xA0 DUP7 DUP9 SUB SLT ISZERO PUSH2 0x10FC JUMPI PUSH1 0x0 DUP1 REVERT JUMPDEST PUSH1 0x0 PUSH2 0x110A DUP9 DUP3 DUP10 ADD PUSH2 0xFE8 JUMP JUMPDEST SWAP6 POP POP PUSH1 0x20 PUSH2 0x111B DUP9 DUP3 DUP10 ADD PUSH2 0xF6A JUMP JUMPDEST SWAP5 POP POP PUSH1 0x40 PUSH2 0x112C DUP9 DUP3 DUP10 ADD PUSH2 0xFE8 JUMP JUMPDEST SWAP4 POP POP PUSH1 0x60 PUSH2 0x113D DUP9 DUP3 DUP10 ADD PUSH2 0xFE8 JUMP JUMPDEST SWAP3 POP POP PUSH1 0x80 DUP7 ADD CALLDATALOAD PUSH8 0xFFFFFFFFFFFFFFFF DUP2 GT ISZERO PUSH2 0x115A JUMPI PUSH1 0x0 DUP1 REVERT JUMPDEST PUSH2 0x1166 DUP9 DUP3 DUP10 ADD PUSH2 0xFBE JUMP JUMPDEST SWAP2 POP POP SWAP3 SWAP6 POP SWAP3 SWAP6 SWAP1 SWAP4 POP JUMP JUMPDEST PUSH1 0x0 DUP1 PUSH1 0x0 DUP1 PUSH1 0x0 DUP1 PUSH1 0xC0 DUP8 DUP10 SUB SLT ISZERO PUSH2 0x118C JUMPI PUSH1 0x0 DUP1 REVERT JUMPDEST PUSH1 0x0 PUSH2 0x119A DUP10 DUP3 DUP11 ADD PUSH2 0xFE8 JUMP JUMPDEST SWAP7 POP POP PUSH1 0x20 PUSH2 0x11AB DUP10 DUP3 DUP11 ADD PUSH2 0xF6A JUMP JUMPDEST SWAP6 POP POP PUSH1 0x40 PUSH2 0x11BC DUP10 DUP3 DUP11 ADD PUSH2 0xFE8 JUMP JUMPDEST SWAP5 POP POP PUSH1 0x60 PUSH2 0x11CD DUP10 DUP3 DUP11 ADD PUSH2 0xFE8 JUMP JUMPDEST SWAP4 POP POP PUSH1 0x80 DUP8 ADD CALLDATALOAD PUSH8 0xFFFFFFFFFFFFFFFF DUP2 GT ISZERO PUSH2 0x11EA JUMPI PUSH1 0x0 DUP1 REVERT JUMPDEST PUSH2 0x11F6 DUP10 DUP3 DUP11 ADD PUSH2 0xFBE JUMP JUMPDEST SWAP3 POP POP PUSH1 0xA0 DUP8 ADD CALLDATALOAD PUSH8 0xFFFFFFFFFFFFFFFF DUP2 GT ISZERO PUSH2 0x1213 JUMPI PUSH1 0x0 DUP1 REVERT JUMPDEST PUSH2 0x121F DUP10 DUP3 DUP11 ADD PUSH2 0xF94 JUMP JUMPDEST SWAP2 POP POP SWAP3 SWAP6 POP SWAP3 SWAP6 POP SWAP3 SWAP6 JUMP JUMPDEST PUSH2 0x1235 DUP2 PUSH2 0x1694 JUMP JUMPDEST DUP3 MSTORE POP POP JUMP JUMPDEST PUSH2 0x124C PUSH2 0x1247 DUP3 PUSH2 0x1694 JUMP JUMPDEST PUSH2 0x1767 JUMP JUMPDEST DUP3 MSTORE POP POP JUMP JUMPDEST PUSH2 0x125B DUP2 PUSH2 0x16A6 JUMP JUMPDEST DUP3 MSTORE POP POP JUMP JUMPDEST PUSH2 0x126A DUP2 PUSH2 0x16B2 JUMP JUMPDEST DUP3 MSTORE POP POP JUMP JUMPDEST PUSH2 0x1281 PUSH2 0x127C DUP3 PUSH2 0x16B2 JUMP JUMPDEST PUSH2 0x1779 JUMP JUMPDEST DUP3 MSTORE POP POP JUMP JUMPDEST PUSH1 0x0 PUSH2 0x1292 DUP3 PUSH2 0x166D JUMP JUMPDEST PUSH2 0x129C DUP2 DUP6 PUSH2 0x1678 JUMP JUMPDEST SWAP4 POP PUSH2 0x12AC DUP2 DUP6 PUSH1 0x20 DUP7 ADD PUSH2 0x1702 JUMP JUMPDEST PUSH2 0x12B5 DUP2 PUSH2 0x17FD JUMP JUMPDEST DUP5 ADD SWAP2 POP POP SWAP3 SWAP2 POP POP JUMP JUMPDEST PUSH1 0x0 PUSH2 0x12CB DUP3 PUSH2 0x166D JUMP JUMPDEST PUSH2 0x12D5 DUP2 DUP6 PUSH2 0x1689 JUMP JUMPDEST SWAP4 POP PUSH2 0x12E5 DUP2 DUP6 PUSH1 0x20 DUP7 ADD PUSH2 0x1702 JUMP JUMPDEST DUP1 DUP5 ADD SWAP2 POP POP SWAP3 SWAP2 POP POP JUMP JUMPDEST PUSH1 0x0 PUSH2 0x12FE PUSH1 0x1C DUP4 PUSH2 0x1689 JUMP JUMPDEST SWAP2 POP PUSH32 0x19457468657265756D205369676E6564204D6573736167653A0A333200000000 PUSH1 0x0 DUP4 ADD MSTORE PUSH1 0x1C DUP3 ADD SWAP1 POP SWAP2 SWAP1 POP JUMP JUMPDEST PUSH1 0x0 PUSH2 0x133E PUSH1 0x11 DUP4 PUSH2 0x1678 JUMP JUMPDEST SWAP2 POP PUSH32 0x496E76616C6964207369676E6174757265000000000000000000000000000000 PUSH1 0x0 DUP4 ADD MSTORE PUSH1 0x20 DUP3 ADD SWAP1 POP SWAP2 SWAP1 POP JUMP JUMPDEST PUSH2 0x137A DUP2 PUSH2 0x16DC JUMP JUMPDEST DUP3 MSTORE POP POP JUMP JUMPDEST PUSH2 0x1391 PUSH2 0x138C DUP3 PUSH2 0x16DC JUMP JUMPDEST PUSH2 0x1795 JUMP JUMPDEST DUP3 MSTORE POP POP JUMP JUMPDEST PUSH2 0x13A0 DUP2 PUSH2 0x16E6 JUMP JUMPDEST DUP3 MSTORE POP POP JUMP JUMPDEST PUSH1 0x0 PUSH2 0x13B1 DUP3 PUSH2 0x12F1 JUMP JUMPDEST SWAP2 POP PUSH2 0x13BD DUP3 DUP5 PUSH2 0x1270 JUMP JUMPDEST PUSH1 0x20 DUP3 ADD SWAP2 POP DUP2 SWAP1 POP SWAP3 SWAP2 POP POP JUMP JUMPDEST PUSH1 0x0 PUSH2 0x13D8 DUP3 DUP9 PUSH2 0x1380 JUMP JUMPDEST PUSH1 0x20 DUP3 ADD SWAP2 POP PUSH2 0x13E8 DUP3 DUP8 PUSH2 0x123B JUMP JUMPDEST PUSH1 0x14 DUP3 ADD SWAP2 POP PUSH2 0x13F8 DUP3 DUP7 PUSH2 0x1380 JUMP JUMPDEST PUSH1 0x20 DUP3 ADD SWAP2 POP PUSH2 0x1408 DUP3 DUP6 PUSH2 0x1380 JUMP JUMPDEST PUSH1 0x20 DUP3 ADD SWAP2 POP PUSH2 0x1418 DUP3 DUP5 PUSH2 0x12C0 JUMP JUMPDEST SWAP2 POP DUP2 SWAP1 POP SWAP7 SWAP6 POP POP POP POP POP POP JUMP JUMPDEST PUSH1 0x0 PUSH1 0x20 DUP3 ADD SWAP1 POP PUSH2 0x143C PUSH1 0x0 DUP4 ADD DUP5 PUSH2 0x122C JUMP JUMPDEST SWAP3 SWAP2 POP POP JUMP JUMPDEST PUSH1 0x0 PUSH1 0x20 DUP3 ADD SWAP1 POP PUSH2 0x1457 PUSH1 0x0 DUP4 ADD DUP5 PUSH2 0x1252 JUMP JUMPDEST SWAP3 SWAP2 POP POP JUMP JUMPDEST PUSH1 0x0 PUSH1 0x20 DUP3 ADD SWAP1 POP PUSH2 0x1472 PUSH1 0x0 DUP4 ADD DUP5 PUSH2 0x1261 JUMP JUMPDEST SWAP3 SWAP2 POP POP JUMP JUMPDEST PUSH1 0x0 PUSH1 0x60 DUP3 ADD SWAP1 POP PUSH2 0x148D PUSH1 0x0 DUP4 ADD DUP7 PUSH2 0x1261 JUMP JUMPDEST PUSH2 0x149A PUSH1 0x20 DUP4 ADD DUP6 PUSH2 0x1261 JUMP JUMPDEST PUSH2 0x14A7 PUSH1 0x40 DUP4 ADD DUP5 PUSH2 0x1397 JUMP JUMPDEST SWAP5 SWAP4 POP POP POP POP JUMP JUMPDEST PUSH1 0x0 PUSH1 0x80 DUP3 ADD SWAP1 POP PUSH2 0x14C4 PUSH1 0x0 DUP4 ADD DUP8 PUSH2 0x1261 JUMP JUMPDEST PUSH2 0x14D1 PUSH1 0x20 DUP4 ADD DUP7 PUSH2 0x1397 JUMP JUMPDEST PUSH2 0x14DE PUSH1 0x40 DUP4 ADD DUP6 PUSH2 0x1261 JUMP JUMPDEST PUSH2 0x14EB PUSH1 0x60 DUP4 ADD DUP5 PUSH2 0x1261 JUMP JUMPDEST SWAP6 SWAP5 POP POP POP POP POP JUMP JUMPDEST PUSH1 0x0 PUSH1 0x20 DUP3 ADD SWAP1 POP DUP2 DUP2 SUB PUSH1 0x0 DUP4 ADD MSTORE PUSH2 0x150E DUP2 DUP5 PUSH2 0x1287 JUMP JUMPDEST SWAP1 POP SWAP3 SWAP2 POP POP JUMP JUMPDEST PUSH1 0x0 PUSH1 0x20 DUP3 ADD SWAP1 POP DUP2 DUP2 SUB PUSH1 0x0 DUP4 ADD MSTORE PUSH2 0x152F DUP2 PUSH2 0x1331 JUMP JUMPDEST SWAP1 POP SWAP2 SWAP1 POP JUMP JUMPDEST PUSH1 0x0 PUSH1 0xC0 DUP3 ADD SWAP1 POP PUSH2 0x154B PUSH1 0x0 DUP4 ADD DUP10 PUSH2 0x1371 JUMP JUMPDEST PUSH2 0x1558 PUSH1 0x20 DUP4 ADD DUP9 PUSH2 0x122C JUMP JUMPDEST PUSH2 0x1565 PUSH1 0x40 DUP4 ADD DUP8 PUSH2 0x1371 JUMP JUMPDEST PUSH2 0x1572 PUSH1 0x60 DUP4 ADD DUP7 PUSH2 0x1371 JUMP JUMPDEST DUP2 DUP2 SUB PUSH1 0x80 DUP4 ADD MSTORE PUSH2 0x1584 DUP2 DUP6 PUSH2 0x1287 JUMP JUMPDEST SWAP1 POP PUSH2 0x1593 PUSH1 0xA0 DUP4 ADD DUP5 PUSH2 0x1252 JUMP JUMPDEST SWAP8 SWAP7 POP POP POP POP POP POP POP JUMP JUMPDEST PUSH1 0x0 PUSH1 0x60 DUP3 ADD SWAP1 POP PUSH2 0x15B3 PUSH1 0x0 DUP4 ADD DUP7 PUSH2 0x1371 JUMP JUMPDEST PUSH2 0x15C0 PUSH1 0x20 DUP4 ADD DUP6 PUSH2 0x1371 JUMP JUMPDEST DUP2 DUP2 SUB PUSH1 0x40 DUP4 ADD MSTORE PUSH2 0x15D2 DUP2 DUP5 PUSH2 0x1287 JUMP JUMPDEST SWAP1 POP SWAP5 SWAP4 POP POP POP POP JUMP JUMPDEST PUSH1 0x0 PUSH1 0x40 MLOAD SWAP1 POP DUP2 DUP2 ADD DUP2 DUP2 LT PUSH8 0xFFFFFFFFFFFFFFFF DUP3 GT OR ISZERO PUSH2 0x1603 JUMPI PUSH2 0x1602 PUSH2 0x17CE JUMP JUMPDEST JUMPDEST DUP1 PUSH1 0x40 MSTORE POP SWAP2 SWAP1 POP JUMP JUMPDEST PUSH1 0x0 PUSH8 0xFFFFFFFFFFFFFFFF DUP3 GT ISZERO PUSH2 0x1628 JUMPI PUSH2 0x1627 PUSH2 0x17CE JUMP JUMPDEST JUMPDEST PUSH1 0x1F NOT PUSH1 0x1F DUP4 ADD AND SWAP1 POP PUSH1 0x20 DUP2 ADD SWAP1 POP SWAP2 SWAP1 POP JUMP JUMPDEST PUSH1 0x0 PUSH8 0xFFFFFFFFFFFFFFFF DUP3 GT ISZERO PUSH2 0x1658 JUMPI PUSH2 0x1657 PUSH2 0x17CE JUMP JUMPDEST JUMPDEST PUSH1 0x1F NOT PUSH1 0x1F DUP4 ADD AND SWAP1 POP PUSH1 0x20 DUP2 ADD SWAP1 POP SWAP2 SWAP1 POP JUMP JUMPDEST PUSH1 0x0 DUP2 MLOAD SWAP1 POP SWAP2 SWAP1 POP JUMP JUMPDEST PUSH1 0x0 DUP3 DUP3 MSTORE PUSH1 0x20 DUP3 ADD SWAP1 POP SWAP3 SWAP2 POP POP JUMP JUMPDEST PUSH1 0x0 DUP2 SWAP1 POP SWAP3 SWAP2 POP POP JUMP JUMPDEST PUSH1 0x0 PUSH2 0x169F DUP3 PUSH2 0x16BC JUMP JUMPDEST SWAP1 POP SWAP2 SWAP1 POP JUMP JUMPDEST PUSH1 0x0 DUP2 ISZERO ISZERO SWAP1 POP SWAP2 SWAP1 POP JUMP JUMPDEST PUSH1 0x0 DUP2 SWAP1 POP SWAP2 SWAP1 POP JUMP JUMPDEST PUSH1 0x0 PUSH20 0xFFFFFFFFFFFFFFFFFFFFFFFFFFFFFFFFFFFFFFFF DUP3 AND SWAP1 POP SWAP2 SWAP1 POP JUMP JUMPDEST PUSH1 0x0 DUP2 SWAP1 POP SWAP2 SWAP1 POP JUMP JUMPDEST PUSH1 0x0 PUSH1 0xFF DUP3 AND SWAP1 POP SWAP2 SWAP1 POP JUMP JUMPDEST DUP3 DUP2 DUP4 CALLDATACOPY PUSH1 0x0 DUP4 DUP4 ADD MSTORE POP POP POP JUMP JUMPDEST PUSH1 0x0 JUMPDEST DUP4 DUP2 LT ISZERO PUSH2 0x1720 JUMPI DUP1 DUP3 ADD MLOAD DUP2 DUP5 ADD MSTORE PUSH1 0x20 DUP2 ADD SWAP1 POP PUSH2 0x1705 JUMP JUMPDEST DUP4 DUP2 GT ISZERO PUSH2 0x172F JUMPI PUSH1 0x0 DUP5 DUP5 ADD MSTORE JUMPDEST POP POP POP POP JUMP JUMPDEST PUSH1 0x0 PUSH1 0x2 DUP3 DIV SWAP1 POP PUSH1 0x1 DUP3 AND DUP1 PUSH2 0x174D JUMPI PUSH1 0x7F DUP3 AND SWAP2 POP JUMPDEST PUSH1 0x20 DUP3 LT DUP2 EQ ISZERO PUSH2 0x1761 JUMPI PUSH2 0x1760 PUSH2 0x179F JUMP JUMPDEST JUMPDEST POP SWAP2 SWAP1 POP JUMP JUMPDEST PUSH1 0x0 PUSH2 0x1772 DUP3 PUSH2 0x1783 JUMP JUMPDEST SWAP1 POP SWAP2 SWAP1 POP JUMP JUMPDEST PUSH1 0x0 DUP2 SWAP1 POP SWAP2 SWAP1 POP JUMP JUMPDEST PUSH1 0x0 PUSH2 0x178E DUP3 PUSH2 0x180E JUMP JUMPDEST SWAP1 POP SWAP2 SWAP1 POP JUMP JUMPDEST PUSH1 0x0 DUP2 SWAP1 POP SWAP2 SWAP1 POP JUMP JUMPDEST PUSH32 0x4E487B7100000000000000000000000000000000000000000000000000000000 PUSH1 0x0 MSTORE PUSH1 0x22 PUSH1 0x4 MSTORE PUSH1 0x24 PUSH1 0x0 REVERT JUMPDEST PUSH32 0x4E487B7100000000000000000000000000000000000000000000000000000000 PUSH1 0x0 MSTORE PUSH1 0x41 PUSH1 0x4 MSTORE PUSH1 0x24 PUSH1 0x0 REVERT JUMPDEST PUSH1 0x0 PUSH1 0x1F NOT PUSH1 0x1F DUP4 ADD AND SWAP1 POP SWAP2 SWAP1 POP JUMP JUMPDEST PUSH1 0x0 DUP2 PUSH1 0x60 SHL SWAP1 POP SWAP2 SWAP1 POP JUMP JUMPDEST PUSH2 0x1824 DUP2 PUSH2 0x1694 JUMP JUMPDEST DUP2 EQ PUSH2 0x182F JUMPI PUSH1 0x0 DUP1 REVERT JUMPDEST POP JUMP JUMPDEST PUSH2 0x183B DUP2 PUSH2 0x16B2 JUMP JUMPDEST DUP2 EQ PUSH2 0x1846 JUMPI PUSH1 0x0 DUP1 REVERT JUMPDEST POP JUMP JUMPDEST PUSH2 0x1852 DUP2 PUSH2 0x16DC JUMP JUMPDEST DUP2 EQ PUSH2 0x185D JUMPI PUSH1 0x0 DUP1 REVERT JUMPDEST POP JUMP INVALID LOG2 PUSH5 0x6970667358 0x22 SLT KECCAK256 CALLDATACOPY SWAP6 SHL 0xAD SELFDESTRUCT 0xC3 PUSH5 0xD05AB4BE3D MSTORE8 NUMBER 0xD7 0xFC PUSH26 0x81698D78F22BD017475BB1C5B7E9DF64736F6C63430008000033 "},"methodIdentifiers":{"getEthSignedMessageHash(bytes32)":"fa540801","getMessageHash(uint256,address,uint256,uint256,string)":"3b6877e7","orders(uint256)":"a85c38ef","placeOrder(uint256,address,uint256,uint256,string,bytes)":"ed1e9ac5","recoverSigner(bytes32,bytes)":"97aba7f9","splitSignature(bytes)":"a7bb5803"}}}}}