{
  "_format": "hh-sol-artifact-1",
  "contractName": "OrderManagement",
  "sourceName": "contracts/OrderManagement.sol",
  "abi": [
    {
      "inputs": [
        {
          "internalType": "uint256",
          "name": "_id",
          "type": "uint256"
        }
      ],
      "name": "getOrder",
      "outputs": [
        {
          "components": [
            {
              "internalType": "uint256",
              "name": "id",
              "type": "uint256"
            },
            {
              "internalType": "address",
              "name": "buyer",
              "type": "address"
            },
            {
              "internalType": "uint256",
              "name": "amount",
              "type": "uint256"
            },
            {
              "internalType": "uint256",
              "name": "price",
              "type": "uint256"
            },
            {
              "internalType": "string",
              "name": "ipfsHash",
              "type": "string"
            },
            {
              "internalType": "bool",
              "name": "verified",
              "type": "bool"
            }
          ],
          "internalType": "struct OrderManagement.Order",
          "name": "",
          "type": "tuple"
        }
      ],
      "stateMutability": "view",
      "type": "function"
    },
    {
      "inputs": [
        {
          "internalType": "uint256",
          "name": "",
          "type": "uint256"
        }
      ],
      "name": "orders",
      "outputs": [
        {
          "internalType": "uint256",
          "name": "id",
          "type": "uint256"
        },
        {
          "internalType": "address",
          "name": "buyer",
          "type": "address"
        },
        {
          "internalType": "uint256",
          "name": "amount",
          "type": "uint256"
        },
        {
          "internalType": "uint256",
          "name": "price",
          "type": "uint256"
        },
        {
          "internalType": "string",
          "name": "ipfsHash",
          "type": "string"
        },
        {
          "internalType": "bool",
          "name": "verified",
          "type": "bool"
        }
      ],
      "stateMutability": "view",
      "type": "function"
    },
    {
      "inputs": [
        {
          "internalType": "uint256",
          "name": "_id",
          "type": "uint256"
        },
        {
          "internalType": "address",
          "name": "_buyer",
          "type": "address"
        },
        {
          "internalType": "uint256",
          "name": "_amount",
          "type": "uint256"
        },
        {
          "internalType": "uint256",
          "name": "_price",
          "type": "uint256"
        },
        {
          "internalType": "string",
          "name": "_ipfsHash",
          "type": "string"
        },
        {
          "internalType": "bool",
          "name": "_verified",
          "type": "bool"
        }
      ],
      "name": "updateOrder",
      "outputs": [],
      "stateMutability": "nonpayable",
      "type": "function"
    }
  ],
  "bytecode": "0x608060405234801561001057600080fd5b50610ae5806100206000396000f3fe608060405234801561001057600080fd5b50600436106100415760003560e01c806378f691cc14610046578063a85c38ef14610062578063d09ef24114610097575b600080fd5b610060600480360381019061005b9190610631565b6100c7565b005b61007c60048036038101906100779190610608565b6101f3565b60405161008e96959493929190610849565b60405180910390f35b6100b160048036038101906100ac9190610608565b6102e4565b6040516100be9190610827565b60405180910390f35b6100db67ca0bfcc4386e638260c01b61046d565b6100ef678aca45a9d2bdce2c60c01b61046d565b6040518060c001604052808781526020018673ffffffffffffffffffffffffffffffffffffffff1681526020018581526020018481526020018381526020018215158152506000808881526020019081526020016000206000820151816000015560208201518160010160006101000a81548173ffffffffffffffffffffffffffffffffffffffff021916908373ffffffffffffffffffffffffffffffffffffffff160217905550604082015181600201556060820151816003015560808201518160040190805190602001906101c7929190610470565b5060a08201518160050160006101000a81548160ff021916908315150217905550905050505050505050565b60006020528060005260406000206000915090508060000154908060010160009054906101000a900473ffffffffffffffffffffffffffffffffffffffff169080600201549080600301549080600401805461024e906109c9565b80601f016020809104026020016040519081016040528092919081815260200182805461027a906109c9565b80156102c75780601f1061029c576101008083540402835291602001916102c7565b820191906000526020600020905b8154815290600101906020018083116102aa57829003601f168201915b5050505050908060050160009054906101000a900460ff16905086565b6102ec6104f6565b610300676dd7515706d58f2660c01b61046d565b61031467fc6b3b835944533d60c01b61046d565b610328676c14132df88ef03b60c01b61046d565b6000808381526020019081526020016000206040518060c0016040529081600082015481526020016001820160009054906101000a900473ffffffffffffffffffffffffffffffffffffffff1673ffffffffffffffffffffffffffffffffffffffff1673ffffffffffffffffffffffffffffffffffffffff16815260200160028201548152602001600382015481526020016004820180546103c9906109c9565b80601f01602080910402602001604051908101604052809291908181526020018280546103f5906109c9565b80156104425780601f1061041757610100808354040283529160200191610442565b820191906000526020600020905b81548152906001019060200180831161042557829003601f168201915b505050505081526020016005820160009054906101000a900460ff1615151515815250509050919050565b50565b82805461047c906109c9565b90600052602060002090601f01602090048101928261049e57600085556104e5565b82601f106104b757805160ff19168380011785556104e5565b828001600101855582156104e5579182015b828111156104e45782518255916020019190600101906104c9565b5b5090506104f29190610544565b5090565b6040518060c0016040528060008152602001600073ffffffffffffffffffffffffffffffffffffffff1681526020016000815260200160008152602001606081526020016000151581525090565b5b8082111561055d576000816000905550600101610545565b5090565b600061057461056f846108e2565b6108b1565b90508281526020810184848401111561058c57600080fd5b610597848285610987565b509392505050565b6000813590506105ae81610a6a565b92915050565b6000813590506105c381610a81565b92915050565b600082601f8301126105da57600080fd5b81356105ea848260208601610561565b91505092915050565b60008135905061060281610a98565b92915050565b60006020828403121561061a57600080fd5b6000610628848285016105f3565b91505092915050565b60008060008060008060c0878903121561064a57600080fd5b600061065889828a016105f3565b965050602061066989828a0161059f565b955050604061067a89828a016105f3565b945050606061068b89828a016105f3565b935050608087013567ffffffffffffffff8111156106a857600080fd5b6106b489828a016105c9565b92505060a06106c589828a016105b4565b9150509295509295509295565b6106db8161093f565b82525050565b6106ea8161093f565b82525050565b6106f981610951565b82525050565b61070881610951565b82525050565b600061071982610912565b610723818561091d565b9350610733818560208601610996565b61073c81610a59565b840191505092915050565b600061075282610912565b61075c818561092e565b935061076c818560208601610996565b61077581610a59565b840191505092915050565b600060c0830160008301516107986000860182610809565b5060208301516107ab60208601826106d2565b5060408301516107be6040860182610809565b5060608301516107d16060860182610809565b50608083015184820360808601526107e9828261070e565b91505060a08301516107fe60a08601826106f0565b508091505092915050565b6108128161097d565b82525050565b6108218161097d565b82525050565b600060208201905081810360008301526108418184610780565b905092915050565b600060c08201905061085e6000830189610818565b61086b60208301886106e1565b6108786040830187610818565b6108856060830186610818565b81810360808301526108978185610747565b90506108a660a08301846106ff565b979650505050505050565b6000604051905081810181811067ffffffffffffffff821117156108d8576108d7610a2a565b5b8060405250919050565b600067ffffffffffffffff8211156108fd576108fc610a2a565b5b601f19601f8301169050602081019050919050565b600081519050919050565b600082825260208201905092915050565b600082825260208201905092915050565b600061094a8261095d565b9050919050565b60008115159050919050565b600073ffffffffffffffffffffffffffffffffffffffff82169050919050565b6000819050919050565b82818337600083830152505050565b60005b838110156109b4578082015181840152602081019050610999565b838111156109c3576000848401525b50505050565b600060028204905060018216806109e157607f821691505b602082108114156109f5576109f46109fb565b5b50919050565b7f4e487b7100000000000000000000000000000000000000000000000000000000600052602260045260246000fd5b7f4e487b7100000000000000000000000000000000000000000000000000000000600052604160045260246000fd5b6000601f19601f8301169050919050565b610a738161093f565b8114610a7e57600080fd5b50565b610a8a81610951565b8114610a9557600080fd5b50565b610aa18161097d565b8114610aac57600080fd5b5056fea264697066735822122001499304a7eaf79195fc0c1f7b1268246f145584e1d3f420fcca7a220acf0b1664736f6c63430008000033",
  "linkReferences": {},
  "deployedLinkReferences": {}
}