{
  "_format": "hh-sol-artifact-1",
  "contractName": "OrderManagement",
  "sourceName": "contracts/OrderManagement.sol",
  "abi": [
    {
      "inputs": [
        {
          "internalType": "uint256",
          "name": "_id",
          "type": "uint256"
        }
      ],
      "name": "getOrder",
      "outputs": [
        {
          "components": [
            {
              "internalType": "uint256",
              "name": "id",
              "type": "uint256"
            },
            {
              "internalType": "address",
              "name": "buyer",
              "type": "address"
            },
            {
              "internalType": "uint256",
              "name": "amount",
              "type": "uint256"
            },
            {
              "internalType": "uint256",
              "name": "price",
              "type": "uint256"
            },
            {
              "internalType": "string",
              "name": "ipfsHash",
              "type": "string"
            },
            {
              "internalType": "bool",
              "name": "verified",
              "type": "bool"
            }
          ],
          "internalType": "struct OrderManagement.Order",
          "name": "",
          "type": "tuple"
        }
      ],
      "stateMutability": "view",
      "type": "function"
    },
    {
      "inputs": [
        {
          "internalType": "uint256",
          "name": "",
          "type": "uint256"
        }
      ],
      "name": "orders",
      "outputs": [
        {
          "internalType": "uint256",
          "name": "id",
          "type": "uint256"
        },
        {
          "internalType": "address",
          "name": "buyer",
          "type": "address"
        },
        {
          "internalType": "uint256",
          "name": "amount",
          "type": "uint256"
        },
        {
          "internalType": "uint256",
          "name": "price",
          "type": "uint256"
        },
        {
          "internalType": "string",
          "name": "ipfsHash",
          "type": "string"
        },
        {
          "internalType": "bool",
          "name": "verified",
          "type": "bool"
        }
      ],
      "stateMutability": "view",
      "type": "function"
    },
    {
      "inputs": [
        {
          "internalType": "uint256",
          "name": "_id",
          "type": "uint256"
        },
        {
          "internalType": "address",
          "name": "_buyer",
          "type": "address"
        },
        {
          "internalType": "uint256",
          "name": "_amount",
          "type": "uint256"
        },
        {
          "internalType": "uint256",
          "name": "_price",
          "type": "uint256"
        },
        {
          "internalType": "string",
          "name": "_ipfsHash",
          "type": "string"
        },
        {
          "internalType": "bool",
          "name": "_verified",
          "type": "bool"
        }
      ],
      "name": "updateOrder",
      "outputs": [],
      "stateMutability": "nonpayable",
      "type": "function"
    }
  ],
  "bytecode": "0x608060405234801561001057600080fd5b50610690806100206000396000f3fe608060405234801561001057600080fd5b50600436106100415760003560e01c806378f691cc14610046578063a85c38ef1461005b578063d09ef24114610089575b600080fd5b610059610054366004610427565b6100a9565b005b61006e61006936600461040f565b610157565b604051610080969594939291906105c1565b60405180910390f35b61009c61009736600461040f565b610223565b604051610080919061055d565b6040805160c0810182528781526001600160a01b038781166020808401918252838501898152606085018981526080860189815288151560a088015260008e8152808552979097208651815593516001850180546001600160a01b031916919096161790945551600283015591516003820155925180519293926101339260048501920190610325565b5060a091909101516005909101805460ff1916911515919091179055505050505050565b6000602081905290815260409020805460018201546002830154600384015460048501805494956001600160a01b03909416949293919261019790610609565b80601f01602080910402602001604051908101604052809291908181526020018280546101c390610609565b80156102105780601f106101e557610100808354040283529160200191610210565b820191906000526020600020905b8154815290600101906020018083116101f357829003601f168201915b5050506005909301549192505060ff1686565b61022b6103a9565b60008281526020818152604091829020825160c0810184528154815260018201546001600160a01b0316928101929092526002810154928201929092526003820154606082015260048201805491929160808401919061028a90610609565b80601f01602080910402602001604051908101604052809291908181526020018280546102b690610609565b80156103035780601f106102d857610100808354040283529160200191610303565b820191906000526020600020905b8154815290600101906020018083116102e657829003601f168201915b50505091835250506005919091015460ff16151560209091015290505b919050565b82805461033190610609565b90600052602060002090601f0160209004810192826103535760008555610399565b82601f1061036c57805160ff1916838001178555610399565b82800160010185558215610399579182015b8281111561039957825182559160200191906001019061037e565b506103a59291506103ea565b5090565b6040518060c001604052806000815260200160006001600160a01b031681526020016000815260200160008152602001606081526020016000151581525090565b5b808211156103a557600081556001016103eb565b8035801515811461032057600080fd5b600060208284031215610420578081fd5b5035919050565b60008060008060008060c0878903121561043f578182fd5b863595506020808801356001600160a01b038116811461045d578384fd5b95506040880135945060608801359350608088013567ffffffffffffffff80821115610487578485fd5b818a0191508a601f83011261049a578485fd5b8135818111156104ac576104ac610644565b604051601f8201601f19168101850183811182821017156104cf576104cf610644565b60405281815283820185018d10156104e5578687fd5b81858501868301379081019093019490945250915061050660a088016103ff565b90509295509295509295565b60008151808452815b818110156105375760208185018101518683018201520161051b565b818111156105485782602083870101525b50601f01601f19169290920160200192915050565b6000602082528251602083015260018060a01b0360208401511660408301526040830151606083015260608301516080830152608083015160c060a08401526105a960e0840182610512565b905060a0840151151560c08401528091505092915050565b600087825260018060a01b038716602083015285604083015284606083015260c060808301526105f460c0830185610512565b905082151560a0830152979650505050505050565b60028104600182168061061d57607f821691505b6020821081141561063e57634e487b7160e01b600052602260045260246000fd5b50919050565b634e487b7160e01b600052604160045260246000fdfea2646970667358221220cb349592460f13b2f3a092bdfc6729ec4030384131f6e2472d3dfacfab2d8e0164736f6c63430008000033",
  "linkReferences": {},
  "deployedLinkReferences": {}
}