{
  "_format": "hh-sol-artifact-1",
  "contractName": "EnhancedOrderBook",
  "sourceName": "contracts/EnhancedOrderBook.sol",
  "abi": [
    {
      "anonymous": false,
      "inputs": [
        {
          "indexed": true,
          "internalType": "uint256",
          "name": "id",
          "type": "uint256"
        },
        {
          "indexed": true,
          "internalType": "address",
          "name": "buyer",
          "type": "address"
        },
        {
          "indexed": false,
          "internalType": "uint256",
          "name": "amount",
          "type": "uint256"
        },
        {
          "indexed": false,
          "internalType": "uint256",
          "name": "price",
          "type": "uint256"
        },
        {
          "indexed": false,
          "internalType": "string",
          "name": "ipfsHash",
          "type": "string"
        }
      ],
      "name": "OrderPlaced",
      "type": "event"
    },
    {
      "anonymous": false,
      "inputs": [
        {
          "indexed": true,
          "internalType": "uint256",
          "name": "id",
          "type": "uint256"
        },
        {
          "indexed": false,
          "internalType": "bool",
          "name": "verified",
          "type": "bool"
        }
      ],
      "name": "OrderVerified",
      "type": "event"
    },
    {
      "inputs": [
        {
          "internalType": "uint256",
          "name": "",
          "type": "uint256"
        }
      ],
      "name": "enhancedOrders",
      "outputs": [
        {
          "internalType": "uint256",
          "name": "id",
          "type": "uint256"
        },
        {
          "internalType": "address",
          "name": "buyer",
          "type": "address"
        },
        {
          "internalType": "uint256",
          "name": "amount",
          "type": "uint256"
        },
        {
          "internalType": "uint256",
          "name": "price",
          "type": "uint256"
        },
        {
          "internalType": "string",
          "name": "ipfsHash",
          "type": "string"
        },
        {
          "internalType": "bool",
          "name": "exists",
          "type": "bool"
        },
        {
          "internalType": "uint256",
          "name": "expiry",
          "type": "uint256"
        },
        {
          "internalType": "bool",
          "name": "canceled",
          "type": "bool"
        }
      ],
      "stateMutability": "view",
      "type": "function"
    },
    {
      "inputs": [
        {
          "internalType": "bytes32",
          "name": "_messageHash",
          "type": "bytes32"
        }
      ],
      "name": "getEthSignedMessageHash",
      "outputs": [
        {
          "internalType": "bytes32",
          "name": "",
          "type": "bytes32"
        }
      ],
      "stateMutability": "pure",
      "type": "function"
    },
    {
      "inputs": [
        {
          "internalType": "uint256",
          "name": "_id",
          "type": "uint256"
        },
        {
          "internalType": "address",
          "name": "_buyer",
          "type": "address"
        },
        {
          "internalType": "uint256",
          "name": "_amount",
          "type": "uint256"
        },
        {
          "internalType": "uint256",
          "name": "_price",
          "type": "uint256"
        },
        {
          "internalType": "string",
          "name": "_ipfsHash",
          "type": "string"
        }
      ],
      "name": "getMessageHash",
      "outputs": [
        {
          "internalType": "bytes32",
          "name": "",
          "type": "bytes32"
        }
      ],
      "stateMutability": "pure",
      "type": "function"
    },
    {
      "inputs": [
        {
          "internalType": "uint256",
          "name": "_id",
          "type": "uint256"
        }
      ],
      "name": "isOrderActive",
      "outputs": [
        {
          "internalType": "bool",
          "name": "",
          "type": "bool"
        }
      ],
      "stateMutability": "view",
      "type": "function"
    },
    {
      "inputs": [
        {
          "internalType": "uint256",
          "name": "_id",
          "type": "uint256"
        }
      ],
      "name": "isOrderExpired",
      "outputs": [
        {
          "internalType": "bool",
          "name": "",
          "type": "bool"
        }
      ],
      "stateMutability": "view",
      "type": "function"
    },
    {
      "inputs": [
        {
          "internalType": "uint256",
          "name": "",
          "type": "uint256"
        }
      ],
      "name": "orders",
      "outputs": [
        {
          "internalType": "uint256",
          "name": "id",
          "type": "uint256"
        },
        {
          "internalType": "address",
          "name": "buyer",
          "type": "address"
        },
        {
          "internalType": "uint256",
          "name": "amount",
          "type": "uint256"
        },
        {
          "internalType": "uint256",
          "name": "price",
          "type": "uint256"
        },
        {
          "internalType": "string",
          "name": "ipfsHash",
          "type": "string"
        },
        {
          "internalType": "bool",
          "name": "exists",
          "type": "bool"
        }
      ],
      "stateMutability": "view",
      "type": "function"
    },
    {
      "inputs": [
        {
          "internalType": "uint256",
          "name": "_id",
          "type": "uint256"
        },
        {
          "internalType": "address",
          "name": "_buyer",
          "type": "address"
        },
        {
          "internalType": "uint256",
          "name": "_amount",
          "type": "uint256"
        },
        {
          "internalType": "uint256",
          "name": "_price",
          "type": "uint256"
        },
        {
          "internalType": "string",
          "name": "_ipfsHash",
          "type": "string"
        },
        {
          "internalType": "bytes",
          "name": "_signature",
          "type": "bytes"
        }
      ],
      "name": "placeOrder",
      "outputs": [],
      "stateMutability": "nonpayable",
      "type": "function"
    },
    {
      "inputs": [
        {
          "internalType": "uint256",
          "name": "_id",
          "type": "uint256"
        },
        {
          "internalType": "address",
          "name": "_buyer",
          "type": "address"
        },
        {
          "internalType": "uint256",
          "name": "_amount",
          "type": "uint256"
        },
        {
          "internalType": "uint256",
          "name": "_price",
          "type": "uint256"
        },
        {
          "internalType": "string",
          "name": "_ipfsHash",
          "type": "string"
        },
        {
          "internalType": "bytes",
          "name": "_signature",
          "type": "bytes"
        },
        {
          "internalType": "uint256",
          "name": "_expiry",
          "type": "uint256"
        }
      ],
      "name": "placeOrderWithExpiry",
      "outputs": [],
      "stateMutability": "nonpayable",
      "type": "function"
    },
    {
      "inputs": [
        {
          "internalType": "bytes32",
          "name": "_messageHash",
          "type": "bytes32"
        },
        {
          "internalType": "bytes",
          "name": "_signature",
          "type": "bytes"
        }
      ],
      "name": "recoverSigner",
      "outputs": [
        {
          "internalType": "address",
          "name": "",
          "type": "address"
        }
      ],
      "stateMutability": "pure",
      "type": "function"
    },
    {
      "inputs": [
        {
          "internalType": "bytes",
          "name": "sig",
          "type": "bytes"
        }
      ],
      "name": "splitSignature",
      "outputs": [
        {
          "internalType": "bytes32",
          "name": "r",
          "type": "bytes32"
        },
        {
          "internalType": "bytes32",
          "name": "s",
          "type": "bytes32"
        },
        {
          "internalType": "uint8",
          "name": "v",
          "type": "uint8"
        }
      ],
      "stateMutability": "pure",
      "type": "function"
    }
  ],
  "bytecode": "0x608060405234801561001057600080fd5b506125f5806100206000396000f3fe608060405234801561001057600080fd5b506004361061009e5760003560e01c8063a85c38ef11610066578063a85c38ef1461019c578063d6e43585146101d1578063ed1e9ac514610201578063f821622f1461021d578063fa540801146102395761009e565b80633b6877e7146100a357806359c69313146100d357806393fb25451461010357806397aba7f91461013a578063a7bb58031461016a575b600080fd5b6100bd60048036038101906100b89190611c90565b610269565b6040516100ca9190612117565b60405180910390f35b6100ed60048036038101906100e89190611c67565b6102e1565b6040516100fa91906120fc565b60405180910390f35b61011d60048036038101906101189190611c67565b61040e565b604051610131989796959493929190612278565b60405180910390f35b610154600480360381019061014f9190611bd2565b610518565b60405161016191906120e1565b60405180910390f35b610184600480360381019061017f9190611c26565b610816565b60405161019393929190612132565b60405180910390f35b6101b660048036038101906101b19190611c67565b610957565b6040516101c896959493929190612210565b60405180910390f35b6101eb60048036038101906101e69190611c67565b610a48565b6040516101f891906120fc565b60405180910390f35b61021b60048036038101906102169190611d1f565b610b0c565b005b61023760048036038101906102329190611dd8565b6111c3565b005b610253600480360381019061024e9190611ba9565b611982565b6040516102609190612117565b60405180910390f35b600061027f67bc0e72d5aa67a1d760c01b6119ee565b610293676aadd7eaf4faa0e660c01b6119ee565b6102a76774d246f9cf16eafb60c01b6119ee565b85858585856040516020016102c0959493929190612086565b60405160208183030381529060405280519060200120905095945050505050565b60006102f767f1adc1b3e1371da560c01b6119f1565b61030b67a6371c04e72e93ea60c01b6119f1565b61031f67ee14e1f48761bbd360c01b6119f1565b600060016000848152602001908152602001600020905061034a67caa442929505689460c01b6119f1565b61035e679420d89f1b76979760c01b6119f1565b61037267f67a26b86e03f1ce60c01b6119f1565b8060050160009054906101000a900460ff166103c3576040517f08c379a00000000000000000000000000000000000000000000000000000000081526004016103ba906121f0565b60405180910390fd5b6103d767bc1b561856e1bb2060c01b6119f1565b6103eb67c95012cb0872997e60c01b6119f1565b6103ff67f74460fce0da2c1460c01b6119f1565b80600601544211915050919050565b60016020528060005260406000206000915090508060000154908060010160009054906101000a900473ffffffffffffffffffffffffffffffffffffffff169080600201549080600301549080600401805461046990612494565b80601f016020809104026020016040519081016040528092919081815260200182805461049590612494565b80156104e25780601f106104b7576101008083540402835291602001916104e2565b820191906000526020600020905b8154815290600101906020018083116104c557829003601f168201915b5050505050908060050160009054906101000a900460ff16908060060154908060070160009054906101000a900460ff16905088565b600061052e6777e81af5f2ed505b60c01b6119ee565b610542673d5616b4f20a127360c01b6119ee565b61055667b08e784a68b3996560c01b6119ee565b61056a67088ce5644b36b26460c01b6119ee565b60418251146040518060400160405280601881526020017f496e76616c6964207369676e6174757265206c656e6774680000000000000000815250906105e6576040517f08c379a00000000000000000000000000000000000000000000000000000000081526004016105dd91906121ae565b60405180910390fd5b506105fb679edcdb404c4ff42060c01b6119ee565b61060f67c31574ade32c2fb560c01b6119ee565b610623679e20085bd3e35c0f60c01b6119ee565b600061062e84611982565b905061064467ef2a1d01b9c7565060c01b6119ee565b61065867d07f7f3231c67ebf60c01b6119ee565b600080600061066686610816565b9250925092506106806712d9869cc597c15460c01b6119ee565b610694674f3f18bd4524b2b760c01b6119ee565b6000600185838686604051600081526020016040526040516106b99493929190612169565b6020604051602081039080840390855afa1580156106db573d6000803e3d6000fd5b5050506020604051035190506106fb67a89e09f5781ae31d60c01b6119ee565b61070f67ca0185a932095c2260c01b6119ee565b610723677926f4500a8164a760c01b6119ee565b600073ffffffffffffffffffffffffffffffffffffffff168173ffffffffffffffffffffffffffffffffffffffff1614156040518060400160405280601181526020017f496e76616c6964207369676e6174757265000000000000000000000000000000815250906107cb576040517f08c379a00000000000000000000000000000000000000000000000000000000081526004016107c291906121ae565b60405180910390fd5b506107e067590c7f966950afd160c01b6119ee565b6107f467c1adf0c5fab0240560c01b6119ee565b61080867445c5f67233d177160c01b6119ee565b809550505050505092915050565b600080600061082f674a9adbd96c529fd460c01b6119ee565b61084367ddf065094d30bf6e60c01b6119ee565b61085767c1b178296cd0713b60c01b6119ee565b61086b67d978e2c4796452c060c01b6119ee565b60418451146040518060400160405280601881526020017f496e76616c6964207369676e6174757265206c656e6774680000000000000000815250906108e7576040517f08c379a00000000000000000000000000000000000000000000000000000000081526004016108de91906121ae565b60405180910390fd5b506108fc67f7a32724d255ad2a60c01b6119ee565b6109106705c4d3c643c5b1c360c01b6119ee565b6020840151925060408401519150606084015160001a905061093c676a0a3195ef42940360c01b6119ee565b610950674041d37d8f33033560c01b6119ee565b9193909250565b60006020528060005260406000206000915090508060000154908060010160009054906101000a900473ffffffffffffffffffffffffffffffffffffffff16908060020154908060030154908060040180546109b290612494565b80601f01602080910402602001604051908101604052809291908181526020018280546109de90612494565b8015610a2b5780601f10610a0057610100808354040283529160200191610a2b565b820191906000526020600020905b815481529060010190602001808311610a0e57829003601f168201915b5050505050908060050160009054906101000a900460ff16905086565b6000610a5e6796df81748aa5776760c01b6119f1565b610a7267f9f67424a7df50bc60c01b6119f1565b610a8667f13b57fc6665732c60c01b6119f1565b6000600160008481526020019081526020016000209050610ab167e497ed2a71b5ea1d60c01b6119f1565b610ac567ddcfefee9ea83e9060c01b6119f1565b8060050160009054906101000a900460ff168015610af257508060070160009054906101000a900460ff16155b8015610b045750610b02836102e1565b155b915050919050565b610b2067f1e32a8efa92d7cf60c01b6119f4565b610b34672e44ad0c0a003f7360c01b6119f4565b610b4867ad04fc3a8cb5594860c01b6119f4565b610b5c67cdd507f08a2a2bee60c01b6119f4565b60008087815260200190815260200160002060050160009054906101000a900460ff16156040518060400160405280601781526020017f4f7264657220494420616c72656164792065786973747300000000000000000081525090610bf7576040517f08c379a0000000000000000000000000000000000000000000000000000000008152600401610bee91906121ae565b60405180910390fd5b50610c0c67fd6c7f545415ebc060c01b6119f4565b610c20677a464904c896452860c01b6119f4565b610c3467f20dd3a51066381f60c01b6119f4565b610c48677d9c77482fc3d51e60c01b6119f4565b600084116040518060400160405280602081526020017f416d6f756e74206d7573742062652067726561746572207468616e207a65726f81525090610cc3576040517f08c379a0000000000000000000000000000000000000000000000000000000008152600401610cba91906121ae565b60405180910390fd5b50610cd867eca81a09ebf8d42160c01b6119f4565b610cec672c0833d4c76c24f760c01b6119f4565b610d006768682f1dad78925260c01b6119f4565b610d1467dbc81c595b1780f660c01b6119f4565b600083116040518060400160405280601f81526020017f5072696365206d7573742062652067726561746572207468616e207a65726f0081525090610d8f576040517f08c379a0000000000000000000000000000000000000000000000000000000008152600401610d8691906121ae565b60405180910390fd5b50610da46712ae7fb4e118303460c01b6119f4565b610db867f2121135761f606060c01b6119f4565b610dcc67d9155468f2745ce260c01b6119f4565b6000829050610de567afbec24596df2a8260c01b6119f4565b610df96772f884d1ddbf029660c01b6119f4565b610e0d67c715ea265b7e3add60c01b6119f4565b602e8151146040518060400160405280601881526020017f496e76616c696420495046532068617368206c656e677468000000000000000081525090610e89576040517f08c379a0000000000000000000000000000000000000000000000000000000008152600401610e8091906121ae565b60405180910390fd5b50610e9e675a4ca1f2767ffc1a60c01b6119f4565b610eb26722669b47ad5e3e2c60c01b6119f4565b610ec667d0d3698b49e4cce460c01b6119f4565b6000610ed58888888888610269565b9050610eeb67babfd5bc696bd7fb60c01b6119f4565b610eff67e2ef5794623c746160c01b6119f4565b6000610f0b8285610518565b9050610f2167fc6772bc657b8c4c60c01b6119f4565b610f3567880aaa336ee0fa9d60c01b6119f4565b610f496746661592ebb273b260c01b6119f4565b8773ffffffffffffffffffffffffffffffffffffffff168173ffffffffffffffffffffffffffffffffffffffff1614610fb7576040517f08c379a0000000000000000000000000000000000000000000000000000000008152600401610fae906121d0565b60405180910390fd5b610fcb6731949fa012b7a90460c01b6119f4565b610fdf6782baf8fe0804ab2060c01b6119f4565b6040518060c001604052808a81526020018973ffffffffffffffffffffffffffffffffffffffff168152602001888152602001878152602001868152602001600115158152506000808b81526020019081526020016000206000820151816000015560208201518160010160006101000a81548173ffffffffffffffffffffffffffffffffffffffff021916908373ffffffffffffffffffffffffffffffffffffffff160217905550604082015181600201556060820151816003015560808201518160040190805190602001906110b89291906119f7565b5060a08201518160050160006101000a81548160ff0219169083151502179055509050506110f067f8bd3216bd351c8460c01b6119f4565b61110467bbc3cad465118ce260c01b6119f4565b8773ffffffffffffffffffffffffffffffffffffffff16897f684f2057bb3a8509f1f7339a074b4a45b6ec52d18ff42336bb628d15d256f30889898960405161114f939291906122fd565b60405180910390a361116b67139a5bb1bf81342f60c01b6119f4565b61117f67fb573c4fa30038fc60c01b6119f4565b887ff1af884d94e28fcbc40f458caa0f4480ed2be0ea44cd8f4a33439947b455b06360016040516111b091906120fc565b60405180910390a2505050505050505050565b6111d7677f97a2a083c452dc60c01b6119f1565b6111eb679ec0fa014536392d60c01b6119f1565b6111ff674b75eb51be1ca1ac60c01b6119f1565b61121367ece93b9c2b395a6e60c01b6119f1565b6001600088815260200190815260200160002060050160009054906101000a900460ff16156040518060400160405280601781526020017f4f7264657220494420616c726561647920657869737473000000000000000000815250906112af576040517f08c379a00000000000000000000000000000000000000000000000000000000081526004016112a691906121ae565b60405180910390fd5b506112c467a055bf072449816c60c01b6119f1565b6112d867890d2c4a4c016a4860c01b6119f1565b6112ec6709d733c1c044394360c01b6119f1565b6113006754366f3bb02217ef60c01b6119f1565b600085116040518060400160405280602081526020017f416d6f756e74206d7573742062652067726561746572207468616e207a65726f8152509061137b576040517f08c379a000000000000000000000000000000000000000000000000000000000815260040161137291906121ae565b60405180910390fd5b506113906797f87f73d011331d60c01b6119f1565b6113a467d2a4246cbf4af39c60c01b6119f1565b6113b867383f5b370983e67760c01b6119f1565b6113cc6779d9b1e1cd4ab1b260c01b6119f1565b600084116040518060400160405280601f81526020017f5072696365206d7573742062652067726561746572207468616e207a65726f0081525090611447576040517f08c379a000000000000000000000000000000000000000000000000000000000815260040161143e91906121ae565b60405180910390fd5b5061145c678f8ed41aa1a9dd1a60c01b6119f1565b61147067d97bfc946887453d60c01b6119f1565b61148467499f51e36feb015d60c01b6119f1565b600083905061149d674fce59aa73149fdc60c01b6119f1565b6114b1675db9767db8acc0e960c01b6119f1565b6114c567e0729c584f591cad60c01b6119f1565b602e8151146040518060400160405280601881526020017f496e76616c696420495046532068617368206c656e677468000000000000000081525090611541576040517f08c379a000000000000000000000000000000000000000000000000000000000815260040161153891906121ae565b60405180910390fd5b5061155667ddda81eaac37cdd560c01b6119f1565b61156a674e65583fc8fbc83660c01b6119f1565b61157e671cebf569cffeed2b60c01b6119f1565b611592672f59beca572c6f3960c01b6119f1565b4282116040518060400160405280601181526020017f4f726465722068617320657870697265640000000000000000000000000000008152509061160c576040517f08c379a000000000000000000000000000000000000000000000000000000000815260040161160391906121ae565b60405180910390fd5b50611621676e55940b8fcd99d160c01b6119f1565b6116356706d80068640181fb60c01b6119f1565b61164967259f5a0835a3382760c01b6119f1565b60006116588989898989610269565b905061166e6789fd1221c1e2adf760c01b6119f1565b611682674e65cf278e2d691d60c01b6119f1565b600061168e8286610518565b90506116a467b2f30363e05b450560c01b6119f1565b6116b867d4366be7a03e672b60c01b6119f1565b6116cc6719408638d7b6ef8e60c01b6119f1565b8873ffffffffffffffffffffffffffffffffffffffff168173ffffffffffffffffffffffffffffffffffffffff161461173a576040517f08c379a0000000000000000000000000000000000000000000000000000000008152600401611731906121d0565b60405180910390fd5b61174e670706d4ef6a2f5e3860c01b6119f1565b61176267d2e5ca1fa8c77cb060c01b6119f1565b6040518061010001604052808b81526020018a73ffffffffffffffffffffffffffffffffffffffff16815260200189815260200188815260200187815260200160011515815260200185815260200160001515815250600160008c81526020019081526020016000206000820151816000015560208201518160010160006101000a81548173ffffffffffffffffffffffffffffffffffffffff021916908373ffffffffffffffffffffffffffffffffffffffff1602179055506040820151816002015560608201518160030155608082015181600401908051906020019061184c9291906119f7565b5060a08201518160050160006101000a81548160ff02191690831515021790555060c0820151816006015560e08201518160070160006101000a81548160ff0219169083151502179055509050506118ae670bad95602079ca0260c01b6119f1565b6118c2678e3494ef6fb1be8360c01b6119f1565b8873ffffffffffffffffffffffffffffffffffffffff168a7f684f2057bb3a8509f1f7339a074b4a45b6ec52d18ff42336bb628d15d256f3088a8a8a60405161190d939291906122fd565b60405180910390a3611929675734bcdd7200bb6260c01b6119f1565b61193d679b82aac3fd2c68a060c01b6119f1565b897ff1af884d94e28fcbc40f458caa0f4480ed2be0ea44cd8f4a33439947b455b063600160405161196e91906120fc565b60405180910390a250505050505050505050565b6000611998670cc508dc319380d060c01b6119ee565b6119ac67cc0dd83dd45bbc0160c01b6119ee565b6119c067aa508dc83adf1ffd60c01b6119ee565b816040516020016119d19190612060565b604051602081830303815290604052805190602001209050919050565b50565b50565b50565b828054611a0390612494565b90600052602060002090601f016020900481019282611a255760008555611a6c565b82601f10611a3e57805160ff1916838001178555611a6c565b82800160010185558215611a6c579182015b82811115611a6b578251825591602001919060010190611a50565b5b509050611a799190611a7d565b5090565b5b80821115611a96576000816000905550600101611a7e565b5090565b6000611aad611aa88461236c565b61233b565b905082815260208101848484011115611ac557600080fd5b611ad0848285612452565b509392505050565b6000611aeb611ae68461239c565b61233b565b905082815260208101848484011115611b0357600080fd5b611b0e848285612452565b509392505050565b600081359050611b258161257a565b92915050565b600081359050611b3a81612591565b92915050565b600082601f830112611b5157600080fd5b8135611b61848260208601611a9a565b91505092915050565b600082601f830112611b7b57600080fd5b8135611b8b848260208601611ad8565b91505092915050565b600081359050611ba3816125a8565b92915050565b600060208284031215611bbb57600080fd5b6000611bc984828501611b2b565b91505092915050565b60008060408385031215611be557600080fd5b6000611bf385828601611b2b565b925050602083013567ffffffffffffffff811115611c1057600080fd5b611c1c85828601611b40565b9150509250929050565b600060208284031215611c3857600080fd5b600082013567ffffffffffffffff811115611c5257600080fd5b611c5e84828501611b40565b91505092915050565b600060208284031215611c7957600080fd5b6000611c8784828501611b94565b91505092915050565b600080600080600060a08688031215611ca857600080fd5b6000611cb688828901611b94565b9550506020611cc788828901611b16565b9450506040611cd888828901611b94565b9350506060611ce988828901611b94565b925050608086013567ffffffffffffffff811115611d0657600080fd5b611d1288828901611b6a565b9150509295509295909350565b60008060008060008060c08789031215611d3857600080fd5b6000611d4689828a01611b94565b9650506020611d5789828a01611b16565b9550506040611d6889828a01611b94565b9450506060611d7989828a01611b94565b935050608087013567ffffffffffffffff811115611d9657600080fd5b611da289828a01611b6a565b92505060a087013567ffffffffffffffff811115611dbf57600080fd5b611dcb89828a01611b40565b9150509295509295509295565b600080600080600080600060e0888a031215611df357600080fd5b6000611e018a828b01611b94565b9750506020611e128a828b01611b16565b9650506040611e238a828b01611b94565b9550506060611e348a828b01611b94565b945050608088013567ffffffffffffffff811115611e5157600080fd5b611e5d8a828b01611b6a565b93505060a088013567ffffffffffffffff811115611e7a57600080fd5b611e868a828b01611b40565b92505060c0611e978a828b01611b94565b91505092959891949750929550565b611eaf816123f3565b82525050565b611ec6611ec1826123f3565b6124c6565b82525050565b611ed581612405565b82525050565b611ee481612411565b82525050565b611efb611ef682612411565b6124d8565b82525050565b6000611f0c826123cc565b611f1681856123d7565b9350611f26818560208601612461565b611f2f8161255c565b840191505092915050565b6000611f45826123cc565b611f4f81856123e8565b9350611f5f818560208601612461565b80840191505092915050565b6000611f78601c836123e8565b91507f19457468657265756d205369676e6564204d6573736167653a0a3332000000006000830152601c82019050919050565b6000611fb86011836123d7565b91507f496e76616c6964207369676e61747572650000000000000000000000000000006000830152602082019050919050565b6000611ff86014836123d7565b91507f4f7264657220646f6573206e6f742065786973740000000000000000000000006000830152602082019050919050565b6120348161243b565b82525050565b61204b6120468261243b565b6124f4565b82525050565b61205a81612445565b82525050565b600061206b82611f6b565b91506120778284611eea565b60208201915081905092915050565b6000612092828861203a565b6020820191506120a28287611eb5565b6014820191506120b2828661203a565b6020820191506120c2828561203a565b6020820191506120d28284611f3a565b91508190509695505050505050565b60006020820190506120f66000830184611ea6565b92915050565b60006020820190506121116000830184611ecc565b92915050565b600060208201905061212c6000830184611edb565b92915050565b60006060820190506121476000830186611edb565b6121546020830185611edb565b6121616040830184612051565b949350505050565b600060808201905061217e6000830187611edb565b61218b6020830186612051565b6121986040830185611edb565b6121a56060830184611edb565b95945050505050565b600060208201905081810360008301526121c88184611f01565b905092915050565b600060208201905081810360008301526121e981611fab565b9050919050565b6000602082019050818103600083015261220981611feb565b9050919050565b600060c082019050612225600083018961202b565b6122326020830188611ea6565b61223f604083018761202b565b61224c606083018661202b565b818103608083015261225e8185611f01565b905061226d60a0830184611ecc565b979650505050505050565b60006101008201905061228e600083018b61202b565b61229b602083018a611ea6565b6122a8604083018961202b565b6122b5606083018861202b565b81810360808301526122c78187611f01565b90506122d660a0830186611ecc565b6122e360c083018561202b565b6122f060e0830184611ecc565b9998505050505050505050565b6000606082019050612312600083018661202b565b61231f602083018561202b565b81810360408301526123318184611f01565b9050949350505050565b6000604051905081810181811067ffffffffffffffff821117156123625761236161252d565b5b8060405250919050565b600067ffffffffffffffff8211156123875761238661252d565b5b601f19601f8301169050602081019050919050565b600067ffffffffffffffff8211156123b7576123b661252d565b5b601f19601f8301169050602081019050919050565b600081519050919050565b600082825260208201905092915050565b600081905092915050565b60006123fe8261241b565b9050919050565b60008115159050919050565b6000819050919050565b600073ffffffffffffffffffffffffffffffffffffffff82169050919050565b6000819050919050565b600060ff82169050919050565b82818337600083830152505050565b60005b8381101561247f578082015181840152602081019050612464565b8381111561248e576000848401525b50505050565b600060028204905060018216806124ac57607f821691505b602082108114156124c0576124bf6124fe565b5b50919050565b60006124d1826124e2565b9050919050565b6000819050919050565b60006124ed8261256d565b9050919050565b6000819050919050565b7f4e487b7100000000000000000000000000000000000000000000000000000000600052602260045260246000fd5b7f4e487b7100000000000000000000000000000000000000000000000000000000600052604160045260246000fd5b6000601f19601f8301169050919050565b60008160601b9050919050565b612583816123f3565b811461258e57600080fd5b50565b61259a81612411565b81146125a557600080fd5b50565b6125b18161243b565b81146125bc57600080fd5b5056fea26469706673582212200bb566a125833300c95a32bb367c9d531288cfe93ace8a927eea92e75f6e225464736f6c63430008000033",
  "linkReferences": {},
  "deployedLinkReferences": {}
}