{
  "_format": "hh-sol-artifact-1",
  "contractName": "EnhancedOrderBook",
  "sourceName": "contracts/EnhancedOrderBook.sol",
  "abi": [
    {
      "anonymous": false,
      "inputs": [
        {
          "indexed": true,
          "internalType": "uint256",
          "name": "id",
          "type": "uint256"
        },
        {
          "indexed": true,
          "internalType": "address",
          "name": "buyer",
          "type": "address"
        },
        {
          "indexed": false,
          "internalType": "uint256",
          "name": "amount",
          "type": "uint256"
        },
        {
          "indexed": false,
          "internalType": "uint256",
          "name": "price",
          "type": "uint256"
        },
        {
          "indexed": false,
          "internalType": "string",
          "name": "ipfsHash",
          "type": "string"
        }
      ],
      "name": "OrderPlaced",
      "type": "event"
    },
    {
      "anonymous": false,
      "inputs": [
        {
          "indexed": true,
          "internalType": "uint256",
          "name": "id",
          "type": "uint256"
        },
        {
          "indexed": false,
          "internalType": "bool",
          "name": "verified",
          "type": "bool"
        }
      ],
      "name": "OrderVerified",
      "type": "event"
    },
    {
      "inputs": [
        {
          "internalType": "uint256",
          "name": "",
          "type": "uint256"
        }
      ],
      "name": "enhancedOrders",
      "outputs": [
        {
          "internalType": "uint256",
          "name": "id",
          "type": "uint256"
        },
        {
          "internalType": "address",
          "name": "buyer",
          "type": "address"
        },
        {
          "internalType": "uint256",
          "name": "amount",
          "type": "uint256"
        },
        {
          "internalType": "uint256",
          "name": "price",
          "type": "uint256"
        },
        {
          "internalType": "string",
          "name": "ipfsHash",
          "type": "string"
        },
        {
          "internalType": "bool",
          "name": "exists",
          "type": "bool"
        },
        {
          "internalType": "uint256",
          "name": "expiry",
          "type": "uint256"
        },
        {
          "internalType": "bool",
          "name": "canceled",
          "type": "bool"
        }
      ],
      "stateMutability": "view",
      "type": "function"
    },
    {
      "inputs": [
        {
          "internalType": "bytes32",
          "name": "_messageHash",
          "type": "bytes32"
        }
      ],
      "name": "getEthSignedMessageHash",
      "outputs": [
        {
          "internalType": "bytes32",
          "name": "",
          "type": "bytes32"
        }
      ],
      "stateMutability": "pure",
      "type": "function"
    },
    {
      "inputs": [
        {
          "internalType": "uint256",
          "name": "_id",
          "type": "uint256"
        },
        {
          "internalType": "address",
          "name": "_buyer",
          "type": "address"
        },
        {
          "internalType": "uint256",
          "name": "_amount",
          "type": "uint256"
        },
        {
          "internalType": "uint256",
          "name": "_price",
          "type": "uint256"
        },
        {
          "internalType": "string",
          "name": "_ipfsHash",
          "type": "string"
        }
      ],
      "name": "getMessageHash",
      "outputs": [
        {
          "internalType": "bytes32",
          "name": "",
          "type": "bytes32"
        }
      ],
      "stateMutability": "pure",
      "type": "function"
    },
    {
      "inputs": [
        {
          "internalType": "uint256",
          "name": "_id",
          "type": "uint256"
        }
      ],
      "name": "isOrderActive",
      "outputs": [
        {
          "internalType": "bool",
          "name": "",
          "type": "bool"
        }
      ],
      "stateMutability": "view",
      "type": "function"
    },
    {
      "inputs": [
        {
          "internalType": "uint256",
          "name": "_id",
          "type": "uint256"
        }
      ],
      "name": "isOrderExpired",
      "outputs": [
        {
          "internalType": "bool",
          "name": "",
          "type": "bool"
        }
      ],
      "stateMutability": "view",
      "type": "function"
    },
    {
      "inputs": [
        {
          "internalType": "uint256",
          "name": "",
          "type": "uint256"
        }
      ],
      "name": "orders",
      "outputs": [
        {
          "internalType": "uint256",
          "name": "id",
          "type": "uint256"
        },
        {
          "internalType": "address",
          "name": "buyer",
          "type": "address"
        },
        {
          "internalType": "uint256",
          "name": "amount",
          "type": "uint256"
        },
        {
          "internalType": "uint256",
          "name": "price",
          "type": "uint256"
        },
        {
          "internalType": "string",
          "name": "ipfsHash",
          "type": "string"
        },
        {
          "internalType": "bool",
          "name": "exists",
          "type": "bool"
        }
      ],
      "stateMutability": "view",
      "type": "function"
    },
    {
      "inputs": [
        {
          "internalType": "uint256",
          "name": "_id",
          "type": "uint256"
        },
        {
          "internalType": "address",
          "name": "_buyer",
          "type": "address"
        },
        {
          "internalType": "uint256",
          "name": "_amount",
          "type": "uint256"
        },
        {
          "internalType": "uint256",
          "name": "_price",
          "type": "uint256"
        },
        {
          "internalType": "string",
          "name": "_ipfsHash",
          "type": "string"
        },
        {
          "internalType": "bytes",
          "name": "_signature",
          "type": "bytes"
        }
      ],
      "name": "placeOrder",
      "outputs": [],
      "stateMutability": "nonpayable",
      "type": "function"
    },
    {
      "inputs": [
        {
          "internalType": "uint256",
          "name": "_id",
          "type": "uint256"
        },
        {
          "internalType": "address",
          "name": "_buyer",
          "type": "address"
        },
        {
          "internalType": "uint256",
          "name": "_amount",
          "type": "uint256"
        },
        {
          "internalType": "uint256",
          "name": "_price",
          "type": "uint256"
        },
        {
          "internalType": "string",
          "name": "_ipfsHash",
          "type": "string"
        },
        {
          "internalType": "bytes",
          "name": "_signature",
          "type": "bytes"
        },
        {
          "internalType": "uint256",
          "name": "_expiry",
          "type": "uint256"
        }
      ],
      "name": "placeOrderWithExpiry",
      "outputs": [],
      "stateMutability": "nonpayable",
      "type": "function"
    },
    {
      "inputs": [
        {
          "internalType": "bytes32",
          "name": "_messageHash",
          "type": "bytes32"
        },
        {
          "internalType": "bytes",
          "name": "_signature",
          "type": "bytes"
        }
      ],
      "name": "recoverSigner",
      "outputs": [
        {
          "internalType": "address",
          "name": "",
          "type": "address"
        }
      ],
      "stateMutability": "pure",
      "type": "function"
    },
    {
      "inputs": [
        {
          "internalType": "bytes",
          "name": "sig",
          "type": "bytes"
        }
      ],
      "name": "splitSignature",
      "outputs": [
        {
          "internalType": "bytes32",
          "name": "r",
          "type": "bytes32"
        },
        {
          "internalType": "bytes32",
          "name": "s",
          "type": "bytes32"
        },
        {
          "internalType": "uint8",
          "name": "v",
          "type": "uint8"
        }
      ],
      "stateMutability": "pure",
      "type": "function"
    }
  ],
  "bytecode": "0x608060405234801561001057600080fd5b506112e5806100206000396000f3fe608060405234801561001057600080fd5b506004361061009e5760003560e01c8063a85c38ef11610066578063a85c38ef14610155578063d6e435851461017a578063ed1e9ac51461018d578063f821622f146101a2578063fa540801146101b55761009e565b80633b6877e7146100a357806359c69313146100cc57806393fb2545146100ec57806397aba7f914610113578063a7bb580314610133575b600080fd5b6100b66100b1366004610e64565b6101c8565b6040516100c391906110bb565b60405180910390f35b6100df6100da366004610dcc565b610204565b6040516100c391906110b0565b6100ff6100fa366004610dcc565b61024d565b6040516100c39897969594939291906111af565b610126610121366004610de4565b61032a565b6040516100c3919061109c565b610146610141366004610e29565b610451565b6040516100c3939291906110c4565b610168610163366004610dcc565b6104c7565b6040516100c396959493929190611167565b6100df610188366004610dcc565b610593565b6101a061019b366004610ecd565b6105d3565b005b6101a06101b0366004610f5a565b6108e2565b6100b66101c3366004610dcc565b610c6b565b600085858585856040516020016101e395949392919061104f565b60405160208183030381529060405280519060200120905095945050505050565b6000818152600160205260408120600581015460ff1661023f5760405162461bcd60e51b815260040161023690611139565b60405180910390fd5b60060154421190505b919050565b6001602081905260009182526040909120805491810154600282015460038301546004840180546001600160a01b0390941694929391929161028e9061125e565b80601f01602080910402602001604051908101604052809291908181526020018280546102ba9061125e565b80156103075780601f106102dc57610100808354040283529160200191610307565b820191906000526020600020905b8154815290600101906020018083116102ea57829003601f168201915b5050505060058301546006840154600790940154929360ff918216939092501688565b6000815160411460405180604001604052806018815260200177092dcecc2d8d2c840e6d2cedcc2e8eae4ca40d8cadccee8d60431b815250906103805760405162461bcd60e51b815260040161023691906110fb565b50600061038c84610c6b565b9050600080600061039c86610451565b9250925092506000600185838686604051600081526020016040526040516103c794939291906110dd565b6020604051602081039080840390855afa1580156103e9573d6000803e3d6000fd5b505060408051601f198101518183019092526011815270496e76616c6964207369676e617475726560781b602082015290925090506001600160a01b0382166104455760405162461bcd60e51b815260040161023691906110fb565b50979650505050505050565b6000806000835160411460405180604001604052806018815260200177092dcecc2d8d2c840e6d2cedcc2e8eae4ca40d8cadccee8d60431b815250906104aa5760405162461bcd60e51b815260040161023691906110fb565b5050505060208101516040820151606083015160001a9193909250565b6000602081905290815260409020805460018201546002830154600384015460048501805494956001600160a01b0390941694929391926105079061125e565b80601f01602080910402602001604051908101604052809291908181526020018280546105339061125e565b80156105805780601f1061055557610100808354040283529160200191610580565b820191906000526020600020905b81548152906001019060200180831161056357829003601f168201915b5050506005909301549192505060ff1686565b6000818152600160205260408120600581015460ff1680156105ba5750600781015460ff16155b80156105cc57506105ca83610204565b155b9392505050565b6000868152602081815260409182902060050154825180840190935260178352764f7264657220494420616c72656164792065786973747360481b9183019190915260ff16156106365760405162461bcd60e51b815260040161023691906110fb565b50600084116040518060400160405280602081526020017f416d6f756e74206d7573742062652067726561746572207468616e207a65726f8152509061068f5760405162461bcd60e51b815260040161023691906110fb565b5060408051808201909152601f81527f5072696365206d7573742062652067726561746572207468616e207a65726f006020820152836106e25760405162461bcd60e51b815260040161023691906110fb565b508151604080518082019091526018815277092dcecc2d8d2c84092a08ca640d0c2e6d040d8cadccee8d60431b60208201528391602e146107365760405162461bcd60e51b815260040161023691906110fb565b50600061074688888888886101c8565b90506000610754828561032a565b9050876001600160a01b0316816001600160a01b0316146107875760405162461bcd60e51b81526004016102369061110e565b6040518060c001604052808a8152602001896001600160a01b03168152602001888152602001878152602001868152602001600115158152506000808b81526020019081526020016000206000820151816000015560208201518160010160006101000a8154816001600160a01b0302191690836001600160a01b0316021790555060408201518160020155606082015181600301556080820151816004019080519060200190610839929190610c9b565b5060a091909101516005909101805460ff19169115159190911790556040516001600160a01b038916908a907f684f2057bb3a8509f1f7339a074b4a45b6ec52d18ff42336bb628d15d256f30890610896908b908b908b90611206565b60405180910390a3887ff1af884d94e28fcbc40f458caa0f4480ed2be0ea44cd8f4a33439947b455b06360016040516108cf91906110b0565b60405180910390a2505050505050505050565b60008781526001602090815260409182902060050154825180840190935260178352764f7264657220494420616c72656164792065786973747360481b9183019190915260ff16156109475760405162461bcd60e51b815260040161023691906110fb565b50600085116040518060400160405280602081526020017f416d6f756e74206d7573742062652067726561746572207468616e207a65726f815250906109a05760405162461bcd60e51b815260040161023691906110fb565b5060408051808201909152601f81527f5072696365206d7573742062652067726561746572207468616e207a65726f006020820152846109f35760405162461bcd60e51b815260040161023691906110fb565b508251604080518082019091526018815277092dcecc2d8d2c84092a08ca640d0c2e6d040d8cadccee8d60431b60208201528491602e14610a475760405162461bcd60e51b815260040161023691906110fb565b5060408051808201909152601181527013dc99195c881a185cc8195e1c1a5c9959607a1b6020820152428311610a905760405162461bcd60e51b815260040161023691906110fb565b506000610aa089898989896101c8565b90506000610aae828661032a565b9050886001600160a01b0316816001600160a01b031614610ae15760405162461bcd60e51b81526004016102369061110e565b6040518061010001604052808b81526020018a6001600160a01b0316815260200189815260200188815260200187815260200160011515815260200185815260200160001515815250600160008c81526020019081526020016000206000820151816000015560208201518160010160006101000a8154816001600160a01b0302191690836001600160a01b0316021790555060408201518160020155606082015181600301556080820151816004019080519060200190610ba4929190610c9b565b5060a082015160058201805491151560ff1992831617905560c0830151600683015560e09092015160079091018054911515919092161790556040516001600160a01b038a16908b907f684f2057bb3a8509f1f7339a074b4a45b6ec52d18ff42336bb628d15d256f30890610c1e908c908c908c90611206565b60405180910390a3897ff1af884d94e28fcbc40f458caa0f4480ed2be0ea44cd8f4a33439947b455b0636001604051610c5791906110b0565b60405180910390a250505050505050505050565b600081604051602001610c7e919061101e565b604051602081830303815290604052805190602001209050919050565b828054610ca79061125e565b90600052602060002090601f016020900481019282610cc95760008555610d0f565b82601f10610ce257805160ff1916838001178555610d0f565b82800160010185558215610d0f579182015b82811115610d0f578251825591602001919060010190610cf4565b50610d1b929150610d1f565b5090565b5b80821115610d1b5760008155600101610d20565b80356001600160a01b038116811461024857600080fd5b600082601f830112610d5b578081fd5b813567ffffffffffffffff80821115610d7657610d76611299565b604051601f8301601f191681016020018281118282101715610d9a57610d9a611299565b604052828152848301602001861015610db1578384fd5b82602086016020830137918201602001929092529392505050565b600060208284031215610ddd578081fd5b5035919050565b60008060408385031215610df6578081fd5b82359150602083013567ffffffffffffffff811115610e13578182fd5b610e1f85828601610d4b565b9150509250929050565b600060208284031215610e3a578081fd5b813567ffffffffffffffff811115610e50578182fd5b610e5c84828501610d4b565b949350505050565b600080600080600060a08688031215610e7b578081fd5b85359450610e8b60208701610d34565b93506040860135925060608601359150608086013567ffffffffffffffff811115610eb4578182fd5b610ec088828901610d4b565b9150509295509295909350565b60008060008060008060c08789031215610ee5578081fd5b86359550610ef560208801610d34565b94506040870135935060608701359250608087013567ffffffffffffffff80821115610f1f578283fd5b610f2b8a838b01610d4b565b935060a0890135915080821115610f40578283fd5b50610f4d89828a01610d4b565b9150509295509295509295565b600080600080600080600060e0888a031215610f74578081fd5b87359650610f8460208901610d34565b95506040880135945060608801359350608088013567ffffffffffffffff80821115610fae578283fd5b610fba8b838c01610d4b565b945060a08a0135915080821115610fcf578283fd5b50610fdc8a828b01610d4b565b92505060c0880135905092959891949750929550565b6000815180845261100a81602086016020860161122e565b601f01601f19169290920160200192915050565b7f19457468657265756d205369676e6564204d6573736167653a0a3332000000008152601c810191909152603c0190565b60008682526bffffffffffffffffffffffff198660601b166020830152846034830152836054830152825161108b81607485016020870161122e565b919091016074019695505050505050565b6001600160a01b0391909116815260200190565b901515815260200190565b90815260200190565b928352602083019190915260ff16604082015260600190565b93845260ff9290921660208401526040830152606082015260800190565b6000602082526105cc6020830184610ff2565b602080825260119082015270496e76616c6964207369676e617475726560781b604082015260600190565b60208082526014908201527313dc99195c88191bd95cc81b9bdd08195e1a5cdd60621b604082015260600190565b600087825260018060a01b038716602083015285604083015284606083015260c0608083015261119a60c0830185610ff2565b905082151560a0830152979650505050505050565b60006101008a835260018060a01b038a1660208401528860408401528760608401528060808401526111e381840188610ff2565b95151560a0840152505060c0810192909252151560e09091015295945050505050565b6000848252836020830152606060408301526112256060830184610ff2565b95945050505050565b60005b83811015611249578181015183820152602001611231565b83811115611258576000848401525b50505050565b60028104600182168061127257607f821691505b6020821081141561129357634e487b7160e01b600052602260045260246000fd5b50919050565b634e487b7160e01b600052604160045260246000fdfea26469706673582212207d2edc83fc85c461a585bdf3490dc8efbfefd7b2b3d5b03ce31d126d9b902d7464736f6c63430008000033",
  "linkReferences": {},
  "deployedLinkReferences": {}
}