{
  "_format": "hh-sol-artifact-1",
  "contractName": "OrderStorage",
  "sourceName": "contracts/OrderStorage.sol",
  "abi": [
    {
      "inputs": [
        {
          "internalType": "uint256",
          "name": "_id",
          "type": "uint256"
        }
      ],
      "name": "getOrder",
      "outputs": [
        {
          "components": [
            {
              "internalType": "uint256",
              "name": "id",
              "type": "uint256"
            },
            {
              "internalType": "address",
              "name": "buyer",
              "type": "address"
            },
            {
              "internalType": "uint256",
              "name": "amount",
              "type": "uint256"
            },
            {
              "internalType": "uint256",
              "name": "price",
              "type": "uint256"
            },
            {
              "internalType": "string",
              "name": "ipfsHash",
              "type": "string"
            },
            {
              "internalType": "bool",
              "name": "verified",
              "type": "bool"
            }
          ],
          "internalType": "struct OrderStorage.Order",
          "name": "",
          "type": "tuple"
        }
      ],
      "stateMutability": "view",
      "type": "function"
    },
    {
      "inputs": [
        {
          "internalType": "uint256",
          "name": "",
          "type": "uint256"
        }
      ],
      "name": "orders",
      "outputs": [
        {
          "internalType": "uint256",
          "name": "id",
          "type": "uint256"
        },
        {
          "internalType": "address",
          "name": "buyer",
          "type": "address"
        },
        {
          "internalType": "uint256",
          "name": "amount",
          "type": "uint256"
        },
        {
          "internalType": "uint256",
          "name": "price",
          "type": "uint256"
        },
        {
          "internalType": "string",
          "name": "ipfsHash",
          "type": "string"
        },
        {
          "internalType": "bool",
          "name": "verified",
          "type": "bool"
        }
      ],
      "stateMutability": "view",
      "type": "function"
    },
    {
      "inputs": [
        {
          "internalType": "uint256",
          "name": "_id",
          "type": "uint256"
        },
        {
          "internalType": "address",
          "name": "_buyer",
          "type": "address"
        },
        {
          "internalType": "uint256",
          "name": "_amount",
          "type": "uint256"
        },
        {
          "internalType": "uint256",
          "name": "_price",
          "type": "uint256"
        },
        {
          "internalType": "string",
          "name": "_ipfsHash",
          "type": "string"
        },
        {
          "internalType": "bool",
          "name": "_verified",
          "type": "bool"
        }
      ],
      "name": "storeOrder",
      "outputs": [],
      "stateMutability": "nonpayable",
      "type": "function"
    }
  ],
  "bytecode": "0x608060405234801561001057600080fd5b50610690806100206000396000f3fe608060405234801561001057600080fd5b50600436106100415760003560e01c8063a85c38ef14610046578063d09ef24114610074578063fddfaf1014610094575b600080fd5b61005961005436600461040f565b6100a9565b60405161006b969594939291906105c1565b60405180910390f35b61008761008236600461040f565b610175565b60405161006b919061055d565b6100a76100a2366004610427565b610277565b005b6000602081905290815260409020805460018201546002830154600384015460048501805494956001600160a01b0390941694929391926100e990610609565b80601f016020809104026020016040519081016040528092919081815260200182805461011590610609565b80156101625780601f1061013757610100808354040283529160200191610162565b820191906000526020600020905b81548152906001019060200180831161014557829003601f168201915b5050506005909301549192505060ff1686565b61017d610325565b60008281526020818152604091829020825160c0810184528154815260018201546001600160a01b031692810192909252600281015492820192909252600382015460608201526004820180549192916080840191906101dc90610609565b80601f016020809104026020016040519081016040528092919081815260200182805461020890610609565b80156102555780601f1061022a57610100808354040283529160200191610255565b820191906000526020600020905b81548152906001019060200180831161023857829003601f168201915b50505091835250506005919091015460ff16151560209091015290505b919050565b6040805160c0810182528781526001600160a01b038781166020808401918252838501898152606085018981526080860189815288151560a088015260008e8152808552979097208651815593516001850180546001600160a01b031916919096161790945551600283015591516003820155925180519293926103019260048501920190610366565b5060a091909101516005909101805460ff1916911515919091179055505050505050565b6040518060c001604052806000815260200160006001600160a01b031681526020016000815260200160008152602001606081526020016000151581525090565b82805461037290610609565b90600052602060002090601f01602090048101928261039457600085556103da565b82601f106103ad57805160ff19168380011785556103da565b828001600101855582156103da579182015b828111156103da5782518255916020019190600101906103bf565b506103e69291506103ea565b5090565b5b808211156103e657600081556001016103eb565b8035801515811461027257600080fd5b600060208284031215610420578081fd5b5035919050565b60008060008060008060c0878903121561043f578182fd5b863595506020808801356001600160a01b038116811461045d578384fd5b95506040880135945060608801359350608088013567ffffffffffffffff80821115610487578485fd5b818a0191508a601f83011261049a578485fd5b8135818111156104ac576104ac610644565b604051601f8201601f19168101850183811182821017156104cf576104cf610644565b60405281815283820185018d10156104e5578687fd5b81858501868301379081019093019490945250915061050660a088016103ff565b90509295509295509295565b60008151808452815b818110156105375760208185018101518683018201520161051b565b818111156105485782602083870101525b50601f01601f19169290920160200192915050565b6000602082528251602083015260018060a01b0360208401511660408301526040830151606083015260608301516080830152608083015160c060a08401526105a960e0840182610512565b905060a0840151151560c08401528091505092915050565b600087825260018060a01b038716602083015285604083015284606083015260c060808301526105f460c0830185610512565b905082151560a0830152979650505050505050565b60028104600182168061061d57607f821691505b6020821081141561063e57634e487b7160e01b600052602260045260246000fd5b50919050565b634e487b7160e01b600052604160045260246000fdfea2646970667358221220b4f8f04fa945d9ac0d2159ad1ef1f69db7c5a26b92870236a1eb59bed8f97c0164736f6c63430008000033",
  "linkReferences": {},
  "deployedLinkReferences": {}
}