{
  "_format": "hh-sol-artifact-1",
  "contractName": "OrderStorage",
  "sourceName": "contracts/OrderStorage.sol",
  "abi": [
    {
      "inputs": [
        {
          "internalType": "uint256",
          "name": "_id",
          "type": "uint256"
        }
      ],
      "name": "getOrder",
      "outputs": [
        {
          "components": [
            {
              "internalType": "uint256",
              "name": "id",
              "type": "uint256"
            },
            {
              "internalType": "address",
              "name": "buyer",
              "type": "address"
            },
            {
              "internalType": "uint256",
              "name": "amount",
              "type": "uint256"
            },
            {
              "internalType": "uint256",
              "name": "price",
              "type": "uint256"
            },
            {
              "internalType": "string",
              "name": "ipfsHash",
              "type": "string"
            },
            {
              "internalType": "bool",
              "name": "verified",
              "type": "bool"
            }
          ],
          "internalType": "struct OrderStorage.Order",
          "name": "",
          "type": "tuple"
        }
      ],
      "stateMutability": "view",
      "type": "function"
    },
    {
      "inputs": [
        {
          "internalType": "uint256",
          "name": "",
          "type": "uint256"
        }
      ],
      "name": "orders",
      "outputs": [
        {
          "internalType": "uint256",
          "name": "id",
          "type": "uint256"
        },
        {
          "internalType": "address",
          "name": "buyer",
          "type": "address"
        },
        {
          "internalType": "uint256",
          "name": "amount",
          "type": "uint256"
        },
        {
          "internalType": "uint256",
          "name": "price",
          "type": "uint256"
        },
        {
          "internalType": "string",
          "name": "ipfsHash",
          "type": "string"
        },
        {
          "internalType": "bool",
          "name": "verified",
          "type": "bool"
        }
      ],
      "stateMutability": "view",
      "type": "function"
    },
    {
      "inputs": [
        {
          "internalType": "uint256",
          "name": "_id",
          "type": "uint256"
        },
        {
          "internalType": "address",
          "name": "_buyer",
          "type": "address"
        },
        {
          "internalType": "uint256",
          "name": "_amount",
          "type": "uint256"
        },
        {
          "internalType": "uint256",
          "name": "_price",
          "type": "uint256"
        },
        {
          "internalType": "string",
          "name": "_ipfsHash",
          "type": "string"
        },
        {
          "internalType": "bool",
          "name": "_verified",
          "type": "bool"
        }
      ],
      "name": "storeOrder",
      "outputs": [],
      "stateMutability": "nonpayable",
      "type": "function"
    }
  ],
  "bytecode": "0x608060405234801561001057600080fd5b50610ae5806100206000396000f3fe608060405234801561001057600080fd5b50600436106100415760003560e01c8063a85c38ef14610046578063d09ef2411461007b578063fddfaf10146100ab575b600080fd5b610060600480360381019061005b9190610608565b6100c7565b60405161007296959493929190610849565b60405180910390f35b61009560048036038101906100909190610608565b6101b8565b6040516100a29190610827565b60405180910390f35b6100c560048036038101906100c09190610631565b610341565b005b60006020528060005260406000206000915090508060000154908060010160009054906101000a900473ffffffffffffffffffffffffffffffffffffffff1690806002015490806003015490806004018054610122906109c9565b80601f016020809104026020016040519081016040528092919081815260200182805461014e906109c9565b801561019b5780601f106101705761010080835404028352916020019161019b565b820191906000526020600020905b81548152906001019060200180831161017e57829003601f168201915b5050505050908060050160009054906101000a900460ff16905086565b6101c0610470565b6101d4677441b77966cf453660c01b61046d565b6101e8671d607b8791db44b060c01b61046d565b6101fc6710952ba75f2908f760c01b61046d565b6000808381526020019081526020016000206040518060c0016040529081600082015481526020016001820160009054906101000a900473ffffffffffffffffffffffffffffffffffffffff1673ffffffffffffffffffffffffffffffffffffffff1673ffffffffffffffffffffffffffffffffffffffff168152602001600282015481526020016003820154815260200160048201805461029d906109c9565b80601f01602080910402602001604051908101604052809291908181526020018280546102c9906109c9565b80156103165780601f106102eb57610100808354040283529160200191610316565b820191906000526020600020905b8154815290600101906020018083116102f957829003601f168201915b505050505081526020016005820160009054906101000a900460ff1615151515815250509050919050565b61035567e916c36347f0e40d60c01b61046d565b61036967bdd031ff7de69dcc60c01b61046d565b6040518060c001604052808781526020018673ffffffffffffffffffffffffffffffffffffffff1681526020018581526020018481526020018381526020018215158152506000808881526020019081526020016000206000820151816000015560208201518160010160006101000a81548173ffffffffffffffffffffffffffffffffffffffff021916908373ffffffffffffffffffffffffffffffffffffffff160217905550604082015181600201556060820151816003015560808201518160040190805190602001906104419291906104be565b5060a08201518160050160006101000a81548160ff021916908315150217905550905050505050505050565b50565b6040518060c0016040528060008152602001600073ffffffffffffffffffffffffffffffffffffffff1681526020016000815260200160008152602001606081526020016000151581525090565b8280546104ca906109c9565b90600052602060002090601f0160209004810192826104ec5760008555610533565b82601f1061050557805160ff1916838001178555610533565b82800160010185558215610533579182015b82811115610532578251825591602001919060010190610517565b5b5090506105409190610544565b5090565b5b8082111561055d576000816000905550600101610545565b5090565b600061057461056f846108e2565b6108b1565b90508281526020810184848401111561058c57600080fd5b610597848285610987565b509392505050565b6000813590506105ae81610a6a565b92915050565b6000813590506105c381610a81565b92915050565b600082601f8301126105da57600080fd5b81356105ea848260208601610561565b91505092915050565b60008135905061060281610a98565b92915050565b60006020828403121561061a57600080fd5b6000610628848285016105f3565b91505092915050565b60008060008060008060c0878903121561064a57600080fd5b600061065889828a016105f3565b965050602061066989828a0161059f565b955050604061067a89828a016105f3565b945050606061068b89828a016105f3565b935050608087013567ffffffffffffffff8111156106a857600080fd5b6106b489828a016105c9565b92505060a06106c589828a016105b4565b9150509295509295509295565b6106db8161093f565b82525050565b6106ea8161093f565b82525050565b6106f981610951565b82525050565b61070881610951565b82525050565b600061071982610912565b610723818561091d565b9350610733818560208601610996565b61073c81610a59565b840191505092915050565b600061075282610912565b61075c818561092e565b935061076c818560208601610996565b61077581610a59565b840191505092915050565b600060c0830160008301516107986000860182610809565b5060208301516107ab60208601826106d2565b5060408301516107be6040860182610809565b5060608301516107d16060860182610809565b50608083015184820360808601526107e9828261070e565b91505060a08301516107fe60a08601826106f0565b508091505092915050565b6108128161097d565b82525050565b6108218161097d565b82525050565b600060208201905081810360008301526108418184610780565b905092915050565b600060c08201905061085e6000830189610818565b61086b60208301886106e1565b6108786040830187610818565b6108856060830186610818565b81810360808301526108978185610747565b90506108a660a08301846106ff565b979650505050505050565b6000604051905081810181811067ffffffffffffffff821117156108d8576108d7610a2a565b5b8060405250919050565b600067ffffffffffffffff8211156108fd576108fc610a2a565b5b601f19601f8301169050602081019050919050565b600081519050919050565b600082825260208201905092915050565b600082825260208201905092915050565b600061094a8261095d565b9050919050565b60008115159050919050565b600073ffffffffffffffffffffffffffffffffffffffff82169050919050565b6000819050919050565b82818337600083830152505050565b60005b838110156109b4578082015181840152602081019050610999565b838111156109c3576000848401525b50505050565b600060028204905060018216806109e157607f821691505b602082108114156109f5576109f46109fb565b5b50919050565b7f4e487b7100000000000000000000000000000000000000000000000000000000600052602260045260246000fd5b7f4e487b7100000000000000000000000000000000000000000000000000000000600052604160045260246000fd5b6000601f19601f8301169050919050565b610a738161093f565b8114610a7e57600080fd5b50565b610a8a81610951565b8114610a9557600080fd5b50565b610aa18161097d565b8114610aac57600080fd5b5056fea2646970667358221220aa020a6f714d1d19ab0d9c9908bc87e237c9c106fa284f3d90465d0a563dfdc464736f6c63430008000033",
  "linkReferences": {},
  "deployedLinkReferences": {}
}